S0110000416D704C65644D6F642E73726563C0
S11300000C943B000C9458000C9458000C94580029
S11300100C9458000C9458000C9458000C945800FC
S11300200C9458000C9458000C9458000C945800EC
S11300300C9458000C9458000C9458000C945800DC
S11300400C9458000C9458000C9426010C945800FD
S11300500C9458000C9458000C9458000C945800BC
S11300600C9458000C9458001E02270264027E026D
S11300706D027602860211241FBECFEFD4E0DEBFEC
S1130080CDBF11E0A0E0B1E0E0EAF9E202C00590E2
S11300900D92A835B107D9F723E0A8E5B1E001C076
S11300A01D92AC3EB207E1F70E946F010C94CE148E
S11300B00C940000CF93DF93DC01409159018091AF
S11300C05A0150E0481B51090AF0B8C040585F4F2C
S11300D0423051050CF4ACC0E0915A01EF77F0E0E6
S11300E0E55AFE4F80818F3FC1F409C0E0915A0167
S11300F0EF77F0E0E55AFE4F90819F3F71F4E09175
S11301005A01F0E0E45AFE4F80814250510990E0D8
S113011048175907C4F480E096C020915A0130E092
S11301202F5F3F4F2F773078332334F42150310938
S113013020683F6F2F5F3F4F20935A014150510970
S1130140423051059CF6E0915A01F0E0E45AFE4F2A
S11301504081242F30E080915A0190E001968F77FE
S11301609078992324F4019780689F6F0196809377
S11301705A0180915A0190E001968F7790789923E3
S113018024F4019780689F6F019680935A0170E070
S1130190621773070CF44EC01216130604F5ED0132
S11301A0A40FB11DE0915A01EF77F0E0E55AFE4F3C
S11301B09081490F999320915A0130E02F5F3F4F6E
S11301C02F773078332334F42150310920683F6F7E
S11301D02F5F3F4F20935A01CA17DB0719F7E091AD
S11301E05A01EF77F0E0E55AFE4F8081841310C086
S11301F080915A0190E001968F779078992324F4A6
S1130200019780689F6F019680935A0181E01BC01B
S113021080915A0190E001968F779078992324F485
S1130220019780689F6F019680935A0180E00BC00C
S113023080E009C080E007C080E005C0423051057D
S11302400CF04ACFF9CFDF91CF9108951F920F920E
S11302500FB60F9211248F939F93EF93FF93809186
S1130260590190E001968F779078992324F40197AF
S113027080689F6F019680935801909158018091F6
S11302805A01981761F0E0915901F0E08091C6009D
S1130290E55AFE4F80838091580180935901FF9164
S11302A0EF919F918F910F900FBE0F901F90189513
S11302B09C0140E050E060E271EA87E090E00E9437
S11302C05D14215031093093C5002093C40088E99E
S11302D08093C10086E08093C20078940895CF9300
S11302E0DF93CDB7DEB7E2970FB6F894DEBF0FBE4B
S11302F0CDBFEBEDF1E08BEB93E0119211921192F3
S11303001192E817F907C9F780E096E90E945801AD
S11303100E94731180E090E00E94B8148A3010F4B7
S11303200E94331181E090E00E94B8149FEF980F6F
S1130330983710F48093000182E090E00E94B81492
S1130340853610F40E94361183E090E00E94B814C0
S1130350853610F40E943F1184E090E00E94B814A6
S1130360853110F40E94481185E090E00E94B81491
S1130370082F8FEF800F803150F5802F0E946E116F
S113038010E0101611061CF50F2EF6E0EF2EF12CDE
S1130390F02DC12CD12CC7010E94B814B82EC7016E
S11303A001960E94B814A82EC70102960E94B814A0
S11303B0282F4A2D6B2D8C2D0E9457118FEFC81AB0
S11303C0D80A93E0E90EF11CC016D10621F7FE010C
S11303D031967F016894442442F8512C42018E1ACC
S11303E09F0A0F2EF5E0AF2EB12CF02DAE1ABF0AE6
S11303F086E090E03C016E1A7F0A6091000170E093
S11304008BED91E00E9475116091000170E08BED1D
S113041091E00E944B1162E3C7010E945A008823B5
S113042009F493C0E9818E2F90E08730910508F09C
S11304308CC0FC01EC5CFF4F0C947C148A810E94FC
S113044033116A8180E090E00E94C0147EC08A81EA
S1130450813108F07AC00E946E116A8185E090E0D3
S11304600E94C0148A81882309F46FC08E010D5F35
S11304701F4F312CC12CD12CFFEFCF1ADF0AF8010A
S1130480228141816081832D0E945711F80160818E
S1130490C401800F911F0E94C014F8016181C5013D
S11304A0800F911F0E94C014F8016281C301800F64
S11304B0911F0E94C0140D5F1F4F33948A8190E0F6
S11304C0C816D906CCF241C08A810E9436116A81CD
S11304D082E090E00E94C01438C08A810E943F11DB
S11304E06A8183E090E00E94C0142FC08A810E9438
S11304F048116A81C2010E94C01427C06A816093B6
S1130500000181E090E00E94C0141FC08A810E9413
S113051033118B810E9436118C810E943F118D8191
S11305200E9448116A8180E090E00E94C0146B81AF
S113053082E090E00E94C0146C8183E090E00E940D
S1130540C0146D81C2010E94C014F5E8FA95F1F758
S1130550000053CF2F923F924F925F926F927F92FF
S11305608F929F92AF92BF92CF92DF92EF92FF92BF
S11305700F931F93CF93DF93CDB7DEB7A8970FB632
S1130580F894DEBF0FBECDBF082F192F1B01209199
S113059044012AA36091450170E080E090E00E944C
S11305A0C51220E030E048E452E40E9422126BA31A
S11305B07CA38DA39EA3121413040CF094C1309158
S11305C0C003398B8091BC039091BD03A091BE03FD
S11305D0B091BF0389839A83AB83BC839091BB039F
S11305E0A92FB0E0FD01EE0FFF1FEE0FFF1FEE5F1E
S11305F0FE4FC080D180E280F3801196BE83AD832C
S1130600C701B6017727882799270E94C3126A8BEE
S11306107B8B8C8B9D8B6D2D70E080E090E00E9435
S1130620C3126E8B7F8B888F998FB7018827992788
S11306300E94C3126A8F7B8F8C8F9D8FA02EB12E48
S11306408091420190E0ED81FE81E817F90714F0F2
S11306501E821D822D813E81220F331F220F331FE4
S11306602E5F3E4FD901CD90DD90ED90FC90C701F7
S1130670B6017727882799270E94C3126D837E834A
S11306808F8398876D2D70E080E090E00E94C31204
S113069069877A878B879C87B701882799270E9467
S11306A0C3126D877E878F87988B812C912C9AA19A
S11306B0892F90E0A0E0B0E08E8F9F8FA8A3B9A30C
S11306C0A989A11144C0B401092C000C880B990B11
S11306D00E94C5126B017C0129813A814B815C81A6
S11306E00E941D1288230CF476C06E8D7F8D88A124
S11306F099A10E94C5122B013C019B01AC016981A7
S11307007A818B819C810E94B1119B01AC01C7014C
S1130710B6010E941D1288230CF064C029813A811D
S11307204B815C81C701B6010E94B011A301920103
S11307300E9422129B01AC0160E070E080E89FE31C
S11307400E94B011062F172F88A79FA35BC0B40186
S1130750092C000C880B990B0E94C5126B017C01BB
S11307609B01AC0169817A818B819C810E941D125D
S11307701816ECF56E8D7F8D88A199A10E94C51283
S11307802B013C019B01AC0169817A818B819C81A5
S11307900E94B0119B01AC01C701B6010E94D7139E
S11307A0882364F1A701960169817A818B819C81F8
S11307B00E94B011A30192010E9422129B01AC017C
S11307C060E070E080E89FE30E94B011062F172FCD
S11307D088A79FA317C000E010E0B0E8B8A7EFE334
S11307E0EFA310C000E010E018A61FA20BC000E0A9
S11307F010E0F0E8F8A72FE32FA304C000E010E016
S113080018A61FA2202F312F48A55FA160E070E039
S113081080E89FE30E94B0116B017C012D813E8131
S11308204F815885602F712F88A59FA10E94DC13EA
S11308302B013C012A893B894C895D89C701B6019A
S11308400E94DC139B01AC01C301B2010E94B111EF
S11308500E949412D50111966C9329853A854B8593
S11308605C85602F712F88A59FA10E94DC132B014A
S11308703C012E893F89488D598DC701B6010E94DC
S1130880DC139B01AC01C301B2010E94B1110E94AF
S11308909412F50162832D853E854F855889602F1A
S11308A0712F88A59FA10E94DC132B013C012A8D86
S11308B03B8D4C8D5D8DC701B6010E94DC139B01FD
S11308C0AC01C301B2010E94B1110E949412D5017E
S11308D06C93BFEF8B1A9B0AE4E0AE0EB11C281494
S11308E0390409F0EDCEF090C003F11017C02BA12C
S11308F03CA14DA15EA16091BC037091BD038091A8
S1130900BE039091BF030E94B1116093BC03709326
S1130910BD038093BE039093BF0316C02BA13CA1DB
S11309204DA15EA16091BC037091BD038091BE0393
S11309309091BF030E94B0116093BC037093BD03F8
S11309408093BE039093BF03FAA10F2F10E091018F
S1130950200F311F3A8329838090BC039090BD03FC
S1130960A090BE03B090BF03B901330F880B990B5D
S11309700E94C512A50194010E941D12181694F438
S113098066277727601B710B072E000C880B990BC9
S11309900E94C5129B01AC01C501B4010E941D1245
S11309A08823CCF58091BB0390E0019660914201CD
S11309B070E00E9449148093BB0381E0F81201C0E7
S11309C080E08093C00331E0F31213C066277727D9
S11309D0601B710B072E000C880B990B0E94C5122B
S11309E06093BC037093BD038093BE039093BF03D5
S11309F012C069817A8161507109072E000C880B3D
S1130A00990B0E94C5126093BC037093BD0380933D
S1130A10BE039093BF03A8960FB6F894DEBF0FBE33
S1130A20CDBFDF91CF911F910F91FF90EF90DF9099
S1130A30CF90BF90AF909F908F907F906F905F907A
S1130A404F903F902F9008952F923F924F925F9234
S1130A506F927F928F929F92AF92BF92CF92DF92CA
S1130A60EF92FF920F931F93CF93DF93CDB7DEB72F
S1130A70AD970FB6F894DEBF0FBECDBF9A838983BE
S1130A808B01209144012FA36091450170E080E027
S1130A9090E00E94C51220E030E048EC52E40E944D
S1130AA0221268A779A78AA79BA7C80111230CF46F
S1130AB0019695958795DC011196BA87A9871A1630
S1130AC01B060CF0C0C1A090C6038091C203909194
S1130AD0C303A091C403B091C5038D839E83AF83E8
S1130AE0B8879091C103A92FB0E0B88BAF87CD012F
S1130AF001966091420170E00E944914FC01EE0FDE
S1130B00FF1FEE0FFF1FEE5FFE4F4080518062809B
S1130B107380C301B2017727882799270E94C312E3
S1130B206B877C878D879E87EF85F889EE0FFF1F83
S1130B30EE0FFF1FEE5FFE4FC080D180E280F38096
S1130B40C701B6017727882799270E94C3126F87A8
S1130B50788B898B9A8B652D70E080E090E00E9401
S1130B60C3126B8B7C8B8D8B9E8B6D2D70E080E024
S1130B7090E00E94C3126F8B788F898F9A8F662DB5
S1130B8070E080E090E00E94C3126B8F7C8F8D8FA9
S1130B909E8F6E2D70E080E090E00E94C3126F8FF4
S1130BA078A389A39AA329803A804801F1E08F1A97
S1130BB0F0EC9F0A880C991C880C991C820C931CDD
S1130BC0412C512C0F2EFFE36F2EF02D9FA1892F66
S1130BD090E0A0E0B0E08BA39CA3ADA3BEA3A110C2
S1130BE048C0B201052C000C880B990B0E94C51259
S1130BF06B017C012D813E814F8158850E941D121D
S1130C0088230CF47FC06BA17CA18DA19EA10E94BE
S1130C10C51269837A838B839C839B01AC016D81AC
S1130C207E818F8198850E94B1119B01AC01C7011F
S1130C30B6010E941D1288230CF06AC02D813E81EA
S1130C404F815885C701B6010E94B01129813A81AC
S1130C504B815C810E9422129B01AC0160E070E038
S1130C6080E8962D0E94B011B62E072F8DA79CA761
S1130C705EC0B201052C000C880B990B0E94C512B2
S1130C806B017C019B01AC016D817E818F81988514
S1130C900E941D1218160CF040C06BA17CA18DA1FE
S1130CA09EA10E94C51269837A838B839C839B01D6
S1130CB0AC016D817E818F8198850E94B0119B016A
S1130CC0AC01C701B6010E94D713882364F1A701C0
S1130CD096016D817E818F8198850E94B011298152
S1130CE03A814B815C810E9422129B01AC0160E03D
S1130CF070E080E8962D0E94B011B62E072F8DA7C4
S1130D009CA715C0B12C00E0A0E8ADA76CA60FC04D
S1130D10B12C00E01DA61CA60AC0B12C00E0B0E86E
S1130D20BDA76CA604C0B12C00E01DA61CA62B2DEB
S1130D30302F4DA55CA560E070E080E8962D0E9400
S1130D40B0116B017C012B853C854D855E856B2D37
S1130D50702F8DA59CA50E94DC1369837A838B83F5
S1130D609C832F85388949895A89C701B6010E9415
S1130D70DC139B01AC0169817A818B819C810E9487
S1130D80B1110E949412162FF10161832B893C89C1
S1130D904D895E896B2D702F8DA59CA50E94DC1357
S1130DA069837A838B839C832F89388D498D5A8DEF
S1130DB0C701B6010E94DC139B01AC0169817A81F1
S1130DC08B819C810E94B1110E949412762ED101D4
S1130DD012966C932B8D3C8D4D8D5E8D6B2D702FEB
S1130DE08DA59CA50E94DC1369837A838B839C83E5
S1130DF02F8D38A149A15AA1C701B6010E94DC1365
S1130E009B01AC0169817A818B819C810E94B11123
S1130E100E949412F1016083D40111961C931197DE
S1130E2012967C9212976C93BFEF4B1A5B0AE4E024
S1130E302E0E311CF4E08F1A910829853A8542164A
S1130E4053060CF4CCCEF090C603F11017C028A5BD
S1130E5039A54AA55BA56091C2037091C303809133
S1130E60C4039091C5030E94B1116093C2037093AF
S1130E70C3038093C4039093C50316C028A539A562
S1130E804AA55BA56091C2037091C3038091C4031A
S1130E909091C5030E94B0116093C2037093C30381
S1130EA08093C4039093C5033FA1032F10E0898569
S1130EB09A85800F911F9A8389838090C2039090B2
S1130EC0C303A090C403B090C503BC01990F880B61
S1130ED0990B0E94C512A50194010E941D121816B7
S1130EE094F466277727601B710B072E000C880B80
S1130EF0990B0E94C5129B01AC01C501B4010E946B
S1130F001D128823CCF58091C10390E00196609175
S1130F10420170E00E9449148093C10381E0F812F9
S1130F2001C080E08093C60391E0F91213C06627E4
S1130F307727601B710B072E000C880B990B0E94FE
S1130F40C5126093C2037093C3038093C403909348
S1130F50C50312C069817A8161507109072E000CA2
S1130F60880B990B0E94C5126093C2037093C3034C
S1130F708093C4039093C503AD960FB6F894DEBF77
S1130F800FBECDBFDF91CF911F910F91FF90EF90D6
S1130F90DF90CF90BF90AF909F908F907F906F9095
S1130FA05F904F903F902F9008952F923F924F92D1
S1130FB05F926F927F928F929F92AF92BF92CF92E5
S1130FC0DF92EF92FF920F931F93CF93DF938C01E5
S1130FD0EB016091450170E080E090E00E94C51251
S1130FE020E030E44CE955E40E9422122B013C013C
S1130FF01C161D060CF04AC0E091CC03F0E0EE0F85
S1131000FF1FEE0FFF1FEE5FFE4F80809180A280D6
S1131010B380C090C803D090C903E090CA03F09095
S1131020CB03C501B4017727882799270E94C312EF
S1131030A70196010E94DC130E949412262E692DAA
S113104070E080E090E00E94C312A70196010E9424
S1131050DC130E949412362E6A2D70E080E090E03A
S11310600E94C312A70196010E94DC130E949412ED
S1131070F801CC0FDD1FCC0FDD1F0C0F1D1F2182CB
S1131080328260833496E017F107C9F7C091C70331
S1131090C11115C0A30192016091C8037091C903E5
S11310A08091CA039091CB030E94B1116093C8034D
S11310B07093C9038093CA039093CB0314C0A30114
S11310C092016091C8037091C9038091CA03909101
S11310D0CB030E94B0116093C8037093C90380933B
S11310E0CA039093CB03C090C803D090C903E09087
S11310F0CA03F090CB0320E030E040E85FE3C7018F
S1131100B6010E94D713882384F081E08093C7033B
S113111080E090E0A0E8BFE38093C8039093C90304
S1131120A093CA03B093CB0320C020E030E0A90110
S1131130C701B6010E941D121816BCF0CC23A9F0F9
S11311408091CC0390E001966091420170E00E948E
S113115049148093CC031092C7031092C8031092D1
S1131160C9031092CA031092CB03DF91CF911F9150
S11311700F91FF90EF90DF90CF90BF90AF909F9032
S11311808F907F906F905F904F903F902F90089535
S11311902F923F924F925F926F927F928F929F9283
S11311A0AF92BF92CF92DF92EF92FF920F931F9371
S11311B0CF93DF93CDB7DEB72D970FB6F894DEBF8C
S11311C00FBECDBF1C018B016091450170E080E032
S11311D090E00E94C51220E030E44CE955E40E94FE
S11311E0221269877A878B879C87101611060CF068
S11311F0AFC0C090CE03D090CF03E090D003F09066
S1131200D103A701960160E070E080E89FE30E94AB
S1131210B01169837A838B839C838091CD0390E0A2
S1131220FC01EE0FFF1FEE0FFF1FEE5FFE4F40802D
S113123051806280738001966091420170E00E9447
S11312404914FC01EE0FFF1FEE0FFF1FEE5FFE4F70
S113125080809180A280B380C301B2017727882760
S113126099270E94C31229813A814B815C810E9493
S1131270DC136D837E838F839887C501B401772740
S1131280882799270E94C312A70196010E94DC13A4
S11312909B01AC016D817E818F8198850E94B11183
S11312A00E9494126D87652D70E080E090E00E94AA
S11312B0C31229813A814B815C810E94DC136D83C6
S11312C07E838F839887692D70E080E090E00E9490
S11312D0C312A70196010E94DC139B01AC016D812E
S11312E07E818F8198850E94B1110E9494126D8332
S11312F0662D70E080E090E00E94C31229813A815B
S11313004B815C810E94DC132B013C016A2D70E04F
S113131080E090E00E94C312A70196010E94DC13B2
S11313209B01AC01C301B2010E94B1110E9494124D
S1131330F101000F111F000F111F200E311E8D85AA
S113134081838D81828360833496E215F305B9F736
S11313502091CE033091CF034091D0035091D1031B
S113136069857A858B859C850E94B1116093CE0333
S11313707093CF038093D0039093D10320E030E0A7
S113138040E85FE30E94D71388239CF08091CD034B
S113139090E001966091420170E00E9449148093AC
S11313A0CD031092CE031092CF031092D00310926B
S11313B0D1032D960FB6F894DEBF0FBECDBFDF91DB
S11313C0CF911F910F91FF90EF90DF90CF90BF903E
S11313D0AF909F908F907F906F905F904F903F90D1
S11313E02F90089516161706A4F440910201309127
S11313F0030120910401FC01660F771F660F771F1C
S1131400860F971F4183328320833496E817F907A8
S1131410C9F708952F923F924F925F926F927F92F5
S11314208F929F92AF92BF92CF92DF92EF92FF92F0
S11314300F931F93CF93DF93CDB7DEB7A0970FB66B
S1131440F894DEBF0FBECDBF988F8F8B7A8F698FD4
S11314506091450170E080E090E00E94C51220E0B8
S113146030E048E452E40E9422126B8F7C8F8D8F0F
S11314709E8F6091430170E080E090E00E94C3126F
S11314806D877E878F87988BA090D703B090D80301
S11314901A141B040CF010C16091DB037091DC037F
S11314A08091DD039091DE03698B7A8B8B8B9C8B0F
S11314B02090D9033090DA0341017FEF871A970A0D
S11314C080914201A82FB0E0BE8BAD8BEF89F88DDF
S11314D000E010E0C101880F991F880F991F9C013B
S11314E02E5F3E4F1901F8A3EF8FB801012E000CB7
S11314F0880B990B0E94C5129B01AC0169897A89FA
S11315008B899C890E94B0116B017C0120E030E042
S1131510A9010E941D12882324F4F7FAF094F7F825
S1131520F0942D853E854F855889C701B6010E94E8
S11315301D1288230CF0A8C02D853E854F8558893F
S1131540C701B6010E94221269837A838B839C832C
S1131550D101CD90DD90ED90FC909B01AC0160E059
S113156070E080E89FE30E94B0116D837E838F83D7
S11315709887C4016D897E890E944914FC01EE0F8D
S1131580FF1FEE0FFF1FEE5FFE4F40805180628011
S11315907380C701B6017727882799270E94C31251
S11315A029813A814B815C810E94DC1369877A87A7
S11315B08B879C87C301B2017727882799270E94CC
S11315C0C3122D813E814F8158850E94DC139B01FB
S11315D0AC0169857A858B859C850E94B1110E9436
S11315E09412EF8DF8A161836D2D70E080E090E09E
S11315F00E94C31229813A814B815C810E94DC13D1
S113160069877A878B879C87652D70E080E090E0FE
S11316100E94C3122D813E814F8158850E94DC13A4
S11316209B01AC0169857A858B859C850E94B111EB
S11316300E949412AF8DB8A112966C936E2D70E037
S113164080E090E00E94C31229813A814B815C8141
S11316500E94DC136B017C01662D70E080E090E059
S11316600E94C3122D813E814F8158850E94DC1354
S11316709B01AC01C701B6010E94B1110E949412F2
S1131680EF8DF8A160830CC0D1012C9111969C912F
S1131690119712968C91EF8DF8A121839283808308
S11316A00F5F1F4F2F8D38A12C5F3F4F38A32F8F13
S11316B00A151B050CF419CF698D7A8DA616B70689
S11316C074F58091D9039091DA03019660914201F7
S11316D070E00E944914FC01EE0FFF1FEE0FFF1F84
S11316E0EE5FFE4F408131812281F501EE0FFF1F35
S11316F0EE0FFF1F8F89988DE80FF91F898D9A8D42
S1131700880F991F880F991FAF89B88D8A0F9B1F67
S11317104183328320833496E817F907C9F720916F
S1131720DB033091DC034091DD035091DE036B8DCC
S11317307C8D8D8D9E8D0E94B1116B017C01609317
S1131740DB037093DC038093DD039093DE03B50128
S11317500B2C000C880B990B0E94C5129B01AC0149
S1131760C701B6010E94D71388230CF44FC080919F
S1131770D603811109C0C50101979093D8038093C2
S1131780D70381E08093D603E091D703F091D80387
S1131790FA83E983BF01FF0F880B990B0E94C512DE
S11317A02D853E854F8558890E94B1119B01AC015E
S11317B0C701B6010E94D713882344F18D859E8505
S11317C0AF85B889B0588093DB039093DC03A09372
S11317D0DD03B093DE031092D60329813A811216F9
S11317E01306A4F0698D7A8D7093D8036093D703A0
S11317F08091D9039091DA0301966091420170E0DF
S11318000E9449149093DA038093D903A0960FB6EB
S1131810F894DEBF0FBECDBFDF91CF911F910F9122
S1131820FF90EF90DF90CF90BF90AF909F908F90FC
S11318307F906F905F904F903F902F9008952F92DC
S11318403F924F925F926F927F928F929F92AF924C
S1131850BF92CF92DF92EF92FF920F931F93CF9399
S1131860DF93CDB7DEB762970FB6F894DEBF0FBE35
S1131870CDBF9A8789877C876B876091450170E02B
S113188080E090E00E94C51220E030E048E452E499
S11318900E9422126D877E878F87988B6091430107
S11318A070E080E090E00E94C3122B013C01209084
S11318B0E0033090E103121413040CF0A7C060910C
S11318C0E4037091E5038091E6039091E703698353
S11318D07A838B839C838091E2039091E303DC0100
S11318E01196BE83AD8380914201E82FF0E0F88722
S11318F0EF8329853A8500E010E03A8B298BB80103
S1131900012E000C880B990B0E94C5129B01AC019F
S113191069817A818B819C810E94B0114B015C01A9
S113192020E030E0A9010E941D12882324F4B7FAB4
S1131930B094B7F8B094A3019201C501B4010E9418
S11319401D1288230CF051C0A3019201C501B401FA
S11319500E9422129B01AC0160E070E080E89FE3EA
S11319600E94B0114B015C018D819E816F8178854D
S11319700E944914FC01EE0FFF1FEE0FFF1FEE5FE4
S1131980FE4FC080D180E280F380C701B601772783
S1131990882799270E94C312A50194010E94DC1391
S11319A00E949412A989BA8911966C936D2D70E0E6
S11319B080E090E00E94C312A50194010E94DC1310
S11319C00E949412E989FA8962836E2D70E080E0A6
S11319D090E00E94C312A50194010E94DC130E94AE
S11319E09412A989BA896C9305C0E989FA8911828C
S11319F0128210820F5F1F4F29893A892C5F3F4F53
S1131A003A8B298B021513050CF479CF6B857C85F1
S1131A102616370674F58091E2039091E30301964C
S1131A206091420170E00E944914FC01EE0FFF1F17
S1131A30EE0FFF1FEE5FFE4F408131812281F101E5
S1131A40EE0FFF1FEE0FFF1F89859A85E80FF91F20
S1131A508B859C85880F991F880F991FA985BA8546
S1131A608A0F9B1F4183328320833496E817F9073A
S1131A70C9F72091E4033091E5034091E6035091C6
S1131A80E7036D857E858F8598890E94B1116B016E
S1131A907C016093E4037093E5038093E6039093E1
S1131AA0E703B101032C000C880B990B0E94C512AB
S1131AB09B01AC01C701B6010E94D71388230CF423
S1131AC04CC08091DF0381110AC0B1E02B1A3108A8
S1131AD03092E1032092E00381E08093DF03E09100
S1131AE0E003F091E103FA83E983BF01FF0F880B60
S1131AF0990B0E94C512A30192010E94B1119B018E
S1131B00AC01C701B6010E94D713882334F1D30175
S1131B10C201B0588093E4039093E503A093E603D5
S1131B20B093E7031092DF0329813A81121613065A
S1131B30A4F06B857C857093E1036093E00380914E
S1131B40E2039091E30301966091420170E00E94E8
S1131B5049149093E3038093E20362960FB6F894DA
S1131B60DEBF0FBECDBFDF91CF911F910F91FF90CC
S1131B70EF90DF90CF90BF90AF909F908F907F9029
S1131B806F905F904F903F902F9008952F923F92C7
S1131B904F925F926F927F928F929F92AF92BF9279
S1131BA0CF92DF92EF92FF920F931F93CF93DF9325
S1131BB0CDB7DEB7A8970FB6F894DEBF0FBECDBF82
S1131BC0082F192F3B016091450170E080E090E0FF
S1131BD00E94C51220E030E04AE754E40E94221239
S1131BE06BA37CA38DA39EA3209143012E8F3091E0
S1131BF04401398F161417040CF039C18091E8039D
S1131C009091E903A091EA03B091EB0389839A834D
S1131C10AB83BC83C0900201D0900301E090040127
S1131C20F0900501C701B6017727882799270E94FC
S1131C30C31269877A878B879C876D2D70E080E05B
S1131C4090E00E94C3126D877E878F87988B6E2DDC
S1131C5070E080E090E00E94C312698B7A8B8B8BDA
S1131C609C8B0D831E83212C312CAE8D8A2F90E00A
S1131C709C01092E000C440B550B2D8B3E8B4F8B76
S1131C80588F512C412C398D830F911D9C01990F34
S1131C90440B550B2A8F3B8F4C8F5D8F998D892F69
S1131CA090E0A0E0B0E08F8F98A3A9A3BAA3AD8180
S1131CB0BE81B8A7AFA3B101032C000C880B990B0C
S1131CC00E94C51229813A814B815C810E94B01126
S1131CD06B017C0120E030E0A9010E941D128823E1
S1131CE024F4F7FAF094F7F8F0946D897E898F89DB
S1131CF0988D0E94C5124B015C019B01AC01C70188
S1131D00B6010E941D1288230CF468C0B301620D51
S1131D10731D072E000C880B990B0E94C512298194
S1131D203A814B815C810E94B0116D837E838F83E5
S1131D309887A50194010E941D1288230CF453C0B6
S1131D406A8D7B8D8C8D9D8D0E94C5124B015C012B
S1131D509B01AC01C701B6010E941D128823CCF47B
S1131D60A7019601C501B4010E94B0116B017C0169
S1131D706F8D78A189A19AA10E94C3129B01AC0125
S1131D80C701B6010E942212E62EF72E082F192F42
S1131D9033C0A50194016D817E818F8198850E9455
S1131DA01D1288232CF52D813E814F815885C50154
S1131DB0B4010E94B0116B017C016F8D78A189A1DF
S1131DC09AA10E94C3129B01AC01C701B6010E94F3
S1131DD02212E62EF72E082F192F0EC0E52CF42C14
S1131DE000E81FE309C0E52CF42C00E81FE304C05D
S1131DF0E12CF12C00E010E029853A854B855C85C7
S1131E006E2D7F2D802F912F0E94DC130E9494123F
S1131E10EFA1F8A561832D853E854F8558896E2DE8
S1131E207F2D802F912F0E94DC130E949412AFA16A
S1131E30B8A512966C9329893A894B895C896E2DD1
S1131E407F2D802F912F0E94DC130E949412EFA10A
S1131E50F8A56083FFEF2F1A3F0A2FA138A52C5F46
S1131E603F4F38A72FA36214730409F024CF2091A5
S1131E70E8033091E9034091EA035091EB036BA12D
S1131E807CA18DA19EA10E94B1116B017C013E8DAC
S1131E90032F10E0598D452F50E05A834983B30135
S1131EA0600F711F640F751F072E000C880B990BB0
S1131EB00E94C5129B01AC01C701B6010E94D71351
S1131EC088234CF4C092E803D092E903E092EA0339
S1131ED0F092EB0314C089819A81800F911F9A8339
S1131EE08983BC01990F880B990B0E94C5126093DA
S1131EF0E8037093E9038093EA039093EB03A896B5
S1131F000FB6F894DEBF0FBECDBFDF91CF911F9106
S1131F100F91FF90EF90DF90CF90BF90AF909F9084
S1131F208F907F906F905F904F903F902F90089587
S1131F302F923F924F925F926F927F928F929F92D5
S1131F40AF92BF92CF92DF92EF92FF920F931F93C3
S1131F50CF93DF93CDB7DEB7A6970FB6F894DEBF65
S1131F600FBECDBF082F192F1B016091450170E0F2
S1131F7080E090E00E94C51220E030E04AEF53E494
S1131F800E94221269A37AA38BA39CA360914301AC
S1131F9070E080E090E00E94C31269837A838B83AF
S1131FA09C83121413040CF014C18091D2039091F9
S1131FB0D303A091D403B091D5038D839E83AF83C3
S1131FC0B887A2E0B1E06C9170E080E090E00E94FC
S1131FD0C51269877A878B879C876091060170E0B8
S1131FE080E090E00E94C5126D877E878F87988B72
S1131FF06091030170E080E090E00E94C512698B5B
S11320007A8B8B8B9C8B6091070170E080E090E071
S11320100E94C5126D8B7E8B8F8B988F609104010B
S113202070E080E090E00E94C512698F7A8F8B8FF8
S11320309C8F6091080170E080E090E00E94C512DE
S11320406D8F7E8F8F8F98A30DA31EA300E010E0E9
S1132050B801012E000C880B990B0E94C51229812E
S11320603A814B815C810E9422122D813E814F81F5
S113207058850E94B11120E030E040E850E40E940D
S11320800B1320E030E040E050E40E94B0116B01FB
S11320907C0120E030E0A9010E941D128823C4F4D1
S11320A0C701B601905820E030E040E85FE30E94A9
S11320B0B01120E030E040E85FE30E94B11120E07D
S11320C030E040E05FE30E94DC136B017C0116C04A
S11320D020E030E040E85FE3C701B6010E94B011A0
S11320E020E030E040E85FE30E94B11120E030E0FE
S11320F040E05FE30E94DC136B017C01A7019601C1
S113210060E070E080E89FE30E94B0114B015C0145
S113211029853A854B855C85C701B6010E94DC138D
S11321202B013C012D853E854F855889C501B4019D
S11321300E94DC139B01AC01C301B2010E94B111E6
S11321400E949412ADA1BEA111966C9329893A897B
S11321504B895C89C701B6010E94DC132B013C0149
S11321602D893E894F89588DC501B4010E94DC1325
S11321709B01AC01C301B2010E94B1110E949412EF
S1132180EDA1FEA16283298D3A8D4B8D5C8DC70133
S1132190B6010E94DC136B017C012D8D3E8D4F8DA9
S11321A058A1C501B4010E94DC139B01AC01C70115
S11321B0B6010E94B1110E949412ADA1BEA16C930C
S11321C00F5F1F4F1496BEA3ADA32016310609F06E
S11321D03FCF2091D2033091D3034091D403509147
S11321E0D50369A17AA18BA19CA10E94B1116B01B5
S11321F07C0120E030E040E850E40E94D713181638
S11322004CF0C092D203D092D303E092D403F09264
S1132210D50310C020E030E040E850E4C701B60127
S11322200E94B0116093D2037093D3038093D403BC
S11322309093D503A6960FB6F894DEBF0FBECDBF1C
S1132240DF91CF911F910F91FF90EF90DF90CF908E
S1132250BF90AF909F908F907F906F905F904F90C2
S11322603F902F900895809301010895853620F0C2
S113227084E6809345010895809345010895853649
S113228020F084E6809344010895809344010895E6
S1132290809343010895E0910101F0E0EE0FFF1FE8
S11322A0EA5BFE4F0190F081E02D0995089590912D
S11322B04201891790F4E82FF0E0EE0FFF1FEE0FB4
S11322C0FF1FEE5FFE4F862F90E0A0E0B0E0942B5E
S11322D0A22B80839183A283B3830895813110F468
S11322E0809342010895539A0895CF93DF93DC01BC
S11322F0EB011C161D0634F12FC04081518162810F
S11323007381022E04C076956795579547950A9474
S1132310D2F740FF07C05B9A5B9A5B9A5B9A5B9A21
S11323205B9806C05B9A5B985B985B985B985B983C
S11323302150310910F79F5F292F30E02C173D07FA
S113234014F00AC090E0FD0184E0989FE00DF11DB7
S1132350112427E130E0D1CF1BB8DF91CF9108954C
S11323605058BB27AA270E94C8110C949D130E94A1
S11323708F1338F00E94961320F039F49F3F19F41C
S113238026F40C948C130EF4E095E7FB0C9478136C
S1132390E92F0E94AE1358F3BA1762077307840734
S11323A0950720F079F4A6F50C94D0130EF4E0957B
S11323B00B2EBA2FA02D0B01B90190010C01CA01FB
S11323C0A0011124FF27591B99F0593F50F4503EA6
S11323D068F11A16F040A22F232F342F4427585F98
S11323E0F3CF469537952795A795F0405395C9F7B0
S11323F07EF41F16BA0B620B730B840BBAF0915068
S1132400A1F0FF0FBB1F661F771F881FC2F70EC006
S1132410BA0F621F731F841F48F4879577956795D9
S1132420B795F7959E3F08F0B0CF9395880F08F0C5
S11324309927EE0F9795879508950E94541308F4F1
S113244081E008950E9436120C949D130E94961305
S113245058F00E948F1340F029F45F3F29F00C9448
S1132460781351110C94D1130C948C130E94AE1355
S113247068F39923B1F3552391F3951B550BBB27AF
S1132480AA2762177307840738F09F5F5F4F220FF4
S1132490331F441FAA1FA9F335D00E2E3AF0E0E8EB
S11324A032D091505040E695001CCAF72BD0FE2F35
S11324B029D0660F771F881FBB1F261737074807C9
S11324C0AB07B0E809F0BB0B802DBF01FF27935881
S11324D05F4F3AF09E3F510578F00C9478130C94BA
S11324E0D1135F3FE4F3983ED4F3869577956795CF
S11324F0B795F7959F5FC9F7880F911D96958795B6
S113250097F90895E1E0660F771F881FBB1F6217D4
S113251073078407BA0720F0621B730B840BBA0B92
S1132520EE1F88F7E09508950E94B61388F09F5730
S113253098F0B92F9927B751B0F0E1F0660F771FE3
S1132540881F991F1AF0BA95C9F714C0B13091F0D9
S11325500E94D013B1E008950C94D013672F782F04
S11325608827B85F39F0B93FCCF38695779567959E
S1132570B395D9F73EF490958095709561957F4F0A
S11325808F4F9F4F0895E89409C097FB3EF49095B0
S11325908095709561957F4F8F4F9F4F9923A9F038
S11325A0F92F96E9BB279395F695879577956795C7
S11325B0B795F111F8CFFAF4BB0F11F460FF1BC00B
S11325C06F5F7F4F8F4F9F4F16C0882311F096E99E
S11325D011C0772321F09EE8872F762F05C066234C
S11325E071F096E8862F70E060E02AF09A95660F05
S11325F0771F881FDAF7880F9695879597F90895BE
S11326000E948F1320F019F00E94961350F40C943A
S11326108C130C94D113E92F0E94AE1388F3552325
S1132620B1F3E7FB6217730784079507A8F189F3F1
S1132630E92FFF2788232AF03197660F771F881F19
S1132640DAF7952F5527442332F091505040220F4A
S1132650331F441FD2F7BB27E91BF50B621B730B17
S1132660840BB109B1F222F4620F731F841FB11DF0
S113267031972AF0660F771F881FBB1FEFCF915049
S1132680504062F041F0882332F0660F771F881FB4
S113269091505040C1F793950C947E13869577958D
S11326A067959F5FD9F7F7CF990F0008550FAA0BCD
S11326B0E0E8FEEF16161706E807F907C0F0121651
S11326C01306E407F50798F0621B730B840B950B54
S11326D039F40A2661F0232B242B252B21F40895A9
S11326E00A2609F4A140A6958FEF811D811D089546
S11326F097F99F6780E870E060E008959F3F31F0AC
S1132700915020F4879577956795B795880F911D1B
S11327109695879597F908959FEF80EC0895002486
S11327200A941616170618060906089500240A9432
S113273012161306140605060895092E0394000CB8
S113274011F4882352F0BB0F40F4BF2B11F460FF47
S113275004C06F5F7F4F8F4F9F4F089557FD905870
S1132760440F551F59F05F3F71F04795880F97FB51
S1132770991F61F09F3F79F087950895121613060B
S11327801406551FF2CF4695F1DF08C0161617063A
S11327901806991FF1CF869571056105089408956F
S11327A0E894BB2766277727CB0197F908950E9401
S11327B0541308F48FEF08950E94EF130C949D13A3
S11327C00E948F1338F00E94961320F0952311F085
S11327D00C9478130C948C1311240C94D1130E9430
S11327E0AE1370F3959FC1F3950F50E0551F629F90
S11327F0F001729FBB27F00DB11D639FAA27F00D56
S1132800B11DAA1F649F6627B00DA11D661F829F7C
S11328102227B00DA11D621F739FB00DA11D621F61
S1132820839FA00D611D221F749F3327A00D611D7E
S1132830231F849F600D211D822F762F6A2F112460
S11328409F5750409AF0F1F088234AF0EE0FFF1F93
S1132850BB1F661F771F881F91505040A9F79E3FEA
S1132860510580F00C9478130C94D1135F3FE4F37A
S1132870983ED4F3869577956795B795F795E79540
S11328809F5FC1F7FE2B880F911D9695879597F949
S1132890089597FB072E16F4009407D077FD09D00E
S11328A00E94821407FC05D03EF4909581959F4FB9
S11328B00895709561957F4F0895052E97FB1EF43A
S11328C000940E94741457FD07D00E94961407FCCC
S11328D003D04EF40C947414509540953095219582
S11328E03F4F4F4F5F4F0895909580957095619538
S11328F07F4F8F4F9F4F0895EE0FFF1F0590F49168
S1132900E02D0994AA1BBB1B51E107C0AA1FBB1FE2
S1132910A617B70710F0A61BB70B881F991F5A9567
S1132920A9F780959095BC01CD010895A1E21A2ED6
S1132930AA1BBB1BFD010DC0AA1FBB1FEE1FFF1F5F
S1132940A217B307E407F50720F0A21BB30BE40BAF
S1132950F50B661F771F881F991F1A9469F76095F6
S11329607095809590959B01AC01BD01CF010895B0
S1132970F999FECF92BD81BDF89A992780B5089543
S1132980262FF999FECF1FBA92BD81BD20BD0FB687
S1132990F894FA9AF99A0FBE01960895F894FFCF25
S11329A07805FF00000000FF00000000FF00FFFFAB
S11329B0000000FFFF00FF00FF00FFFFFF0000001A
S11329C00000000000000000000000000000000003
S11329D000000000000000000000000000000000F3
S11329E0000007040364AA022405D507C808F209F5
S10B29F0980F0A0A1F0CC60D22
S9030000FC
