:100000000C9434000C9451000C9451000C94510049
:100010000C9451000C9451000C9451000C9451001C
:100020000C9451000C9451000C9451000C9451000C
:100030000C9451000C9451000C9451000C945100FC
:100040000C9451000C9451000C9453000C945100EA
:100050000C9451000C9451000C9451000C945100DC
:100060000C9451000C94510011241FBECFEFD4E02A
:10007000DEBFCDBF11E0A0E0B1E0EEEBF2E002C0E8
:1000800005900D92AE30B107D9F722E0AEE0B1E0B5
:1000900001C01D92A131B207E1F70E942A010C9420
:1000A0005D010C9400001F920F920FB60F92112465
:1000B0002F933F934F938F939F93EF93FF932091B1
:1000C0000F0130E0C9010196907899231CF4019743
:1000D0009F6F019680930E0140911001481741F0E7
:1000E0009091C600F901EF5EFE4F908380930F015F
:1000F000FF91EF919F918F914F913F912F910F9091
:100100000FBE0F901F9018958BB9419A8FEC97E016
:100110000197F1F700C0000041988FEC97E001973C
:10012000F1F700C0000008958AB18FEF8AB987B156
:10013000836087B98BB11BB840988BB180638BB952
:10014000419A8FEC97E00197F1F700C000004198C9
:100150008FEC97E00197F1F700C000008FE097E285
:100160000197F1F700C00000419A8FEC97E00197EA
:10017000F1F700C0000041988FEC97E00197F1F78C
:1001800000C000008FE891E00197F1F700C0000087
:10019000419A8FEC97E00197F1F700C00000419879
:1001A0008FEC97E00197F1F700C000008FE891E035
:1001B0000197F1F700C00000089540980E94840064
:1001C000089581E00E94DD008FE99FE00197F1F73B
:1001D00000C0000008956460880F862B0E94DD0037
:1001E00080EA8A95F1F708954860660F462B24E06F
:1001F000829FC0011124842B0E94DD0080EA8A9531
:10020000F1F70895440F440F4062660F660F660FC2
:10021000642B20E1829FC0011124862B0E94DD0007
:1002200080EA8A95F1F70895409A0E94840080EA56
:100230008A95F1F70895CF93DF93EC0188818823A5
:1002400031F021960E94140189918111FBCFDF9139
:10025000CF9108950E94940040E061E081E00E9407
:10026000020160E081E00E94EB000E94E10041E0B9
:1002700061E081E00E94F40080E091E00E941B01B7
:1002800061E081E00E94EB000F2EF0E0EF2EF1E044
:10029000FF2EF02D0CE011E0E70189910E9414017E
:1002A0002FEF84E39CE0215080409040E1F700C0B4
:0E02B0000000C017D10789F7EFCFF894FFCFF9
:0E02BE0048656C6C6F20576F726C64210000F5
:00000001FF
