S0110000416D704C65644D6F642E73726563C0
S11300000C9434000C9451000C9451000C94510045
S11300100C9451000C9451000C9451000C94510018
S11300200C9451000C9451000C9451000C94510008
S11300300C9451000C9451000C9451000C945100F8
S11300400C9451000C9451000C94F3000C94510046
S11300500C9451000C9451000C9451000C945100D8
S11300600C9451000C94510011241FBECFEFD4E026
S1130070DEBFCDBF12E0A0E0B1E0EAE6F7E102C0E6
S113008005900D92AC30B107D9F723E0ACE0B2E0B3
S113009001C01D92AD3BB207E1F70E943B010C94F5
S11300A0B30B0C94000020910E0230E040910D023D
S11300B050E0421B530B0AF091C053954230510556
S11300C00CF486C0F901E15FFD4F70817F3FB1F40C
S11300D009C03327F901E15FFD4F70817F3F71F45F
S11300E0A0930E0242505109F901E15FFD4F2181B5
S11300F030E042175307A4F480E008952F5F3F4F88
S1130100307833232CF4215031093F6F2F5F3F4F58
S1130110A22F4150510942305105DCF620930E02C2
S113012020910E0230E02F5F3F4FF901E15FFD4F58
S11301307081E72FF0E0307833232CF4215031091B
S11301403F6F2F5F3F4F2F5F422F40930E02462F8A
S113015050E04E175F07F4F11E161F06D4F4FC019D
S1130160AC01470F511D30E0D901A15FBD4F9C91F7
S1130170790F91932F5F3F4F307833232CF4215024
S113018031093F6F2F5F3F4FE417F50761F7209365
S11301900E0280910E0290E0FC01E15FFD4F208190
S11301A027130BC00196907899231CF401979F6F35
S11301B0019680930E0281E0089501969078992328
S11301C01CF401979F6F019680930E0280E00895BE
S11301D080E0089580E0089580E00895423051055C
S11301E00CF070CFF9CF1F920F920FB60F9211241B
S11301F02F933F934F938F939F93EF93FF9320916C
S11302000D0230E0C9010196907899231CF40197FE
S11302109F6F019680930C0240910E02481741F0A3
S11302209091C600F901E15FFD4F908380930D0228
S1130230FF91EF919F918F914F913F912F910F904B
S11302400FBE0F901F9018959C0140E050E060E2B3
S113025071EA87E090E00E945E0B215031093093EF
S1130260C5002093C40088E98093C10086E0809390
S1130270C20078940895CF93DF93CDB7DEB7CA5701
S1130280D1090FB6F894DEBF0FBECDBF3D9A459A93
S1130290EFE0F3E08FEA93E0119211921192119240
S11302A0E817F907C9F780E096E90E9424010E9443
S11302B0000980E00E94E008C12CD12C609100016B
S11302C070E08FE093E00E9402096091000170E009
S11302D08FE093E00E94E3086AE7CE0101960E9452
S11302E05300882379F18981813021F038F08330FB
S11302F031F128C08A81811105C024C08A810E94FD
S1130300E00820C08E010B5F1F4FEC2CFD2C8FEFFB
S1130310E81AF80AD8011197C8010297F801208158
S11303204C91FC0160818FEF8E0D0E94EF080D5FF0
S11303301F4F8A8190E0E816F9064CF303C08A81C6
S1130340809300018FE19EE40197F1F700C0000063
S1130350B5CF2F923F924F925F926F927F928F927E
S11303609F92AF92BF92CF92DF92EF92FF920F9340
S11303701F93CF93DF93CDB7DEB767970FB6F8948B
S1130380DEBF0FBECDBF8C019091B2039F5F923050
S113039018F49093B203F7C11092B203D090B10352
S11303A08091AF03282F30E08091B003482F880F4D
S11303B0550B5B8B4A8B440F551F440F551FCA01C5
S11303C001964801880E991E1801240E351E4E5FB1
S11303D05F4F040F151F24011E821D82C901880F5F
S11303E0991F880F991FDC01AF5FBE4FBD8BAC8B8B
S11303F0EA89FB893196FA83E98320E030E03F8B78
S11304002E8BD98A54014101320128016F017B01ED
S11304104E895F894F5F5F4F5F8B4E8BBA01550FDB
S1130420880B990B0E94510A20E030E040E251E42D
S11304300E94AE0969837A838B839C835989511105
S1130440AAC0C601AE89BF898A1B9B0B0AF44FC19F
S11304508E159F050CF04BC1AC89BD892D913D9142
S11304604D915C912D833E834F83588729813A8136
S11304704B815C8160E070E080E89FE30E94410969
S113048069877A878B879C876D817E818F81988528
S11304907727882799270E944F0A29813A814B811F
S11304A05C810E94DD0A6D877E878F87988BF501BA
S11304B0608170E080E090E00E94510A9B01AC01F1
S11304C069857A858B859C850E94DD0A9B01AC0138
S11304D06D857E858F8598890E9442090E94200A35
S11304E0D5016C93BE816B2F70E080E090E00E9498
S11304F04F0A29813A814B815C810E94DD0A6D8714
S11305007E878F87988BF201608170E080E090E0B5
S11305100E94510A9B01AC0169857A858B859C8573
S11305200E94DD0A9B01AC016D857E858F859889CB
S11305300E9442090E94200AD2016C93BF816B2F52
S113054070E080E090E00E944F0A29813A814B815B
S11305505C810E94DD0A69837A838B839C83F40126
S1130560608170E080E090E00E94510A9B01AC0140
S113057069857A858B859C850E94DD0A9B01AC0187
S113058069817A818B819C810E9442090E94200AA0
S1130590D4016C93ACC08A899B89EE89FF898E0F44
S11305A09F1F01978E159F050CF0A1C099230CF491
S11305B09EC0AC89BD892D913D914D915C912D8357
S11305C03E834F83588729813A814B815C8160E067
S11305D070E080E89FE30E94410969877A878B87EE
S11305E09C876D817E818F819885772788279927BD
S11305F00E944F0A29813A814B815C810E94DD0A65
S11306006D877E878F87988BF301608170E080E02F
S113061090E00E94510A9B01AC0169857A858B8523
S11306209C850E94DD0A9B01AC016D857E858F85CA
S113063098890E9442090E94200AD3016C93BE81CA
S11306406B2F70E080E090E00E944F0A29813A818C
S11306504B815C810E94DD0A6D877E878F87988B32
S1130660F801608170E080E090E00E94510A9B01F3
S1130670AC0169857A858B859C850E94DD0A9B0186
S1130680AC016D857E858F8598890E9442090E9400
S1130690200AD8016C93BF816B2F70E080E090E05A
S11306A00E944F0A29813A814B815C810E94DD0AB4
S11306B069837A838B839C83F101608170E080E09D
S11306C090E00E94510A9B01AC0169857A858B8573
S11306D09C850E94DD0A9B01AC0169817A818B8132
S11306E09C810E9442090E94200AD1016C93B4E0CB
S11306F0AB1AB108E4E08E1A9108F4E04F1A5108DD
S113070024E0620E711C34E0230E311C0C5F1F4F79
S11307104E895F894A30510509F07ACE57012091FC
S1130720B103222331F08091B00381508093B00350
S113073005C08091B0038F5F8093B0038091B003B4
S1130740082E000C990BA501465F5F4F841795078F
S11307501CF4863F9F4FBCF48091AF0390E0019658
S11307606091010270E00E944A0B8093AF0381E024
S1130770213009F480E08093B1038A9D802D1124F7
S113078081508093B00367960FB6F894DEBF0FBE16
S1130790CDBFDF91CF911F910F91FF90EF90DF902C
S11307A0CF90BF90AF909F908F907F906F905F900D
S11307B04F903F902F9008952F923F924F925F92C7
S11307C06F927F928F929F92AF92BF92CF92DF925D
S11307D0EF92FF920F931F93CF93DF93CDB7DEB7C2
S11307E0A9970FB6F894DEBF0FBECDBF8C019091D0
S11307F0B6039F5F923018F49093B603F4C210923C
S1130800B6032091B5032D8B2091B403CB0177233C
S11308100CF401967FA36EA3A801BC01759567959E
S11308207F8F6E8F8091B30390E0A22F220FBB0BBA
S1130830B9A3A8A39D01220F331F220F331FB901AF
S11308406F5F7F4F4801860E971E6801C20ED31E4C
S11308502E5F3F4F3801620E731E2EA13FA121501F
S113086031092A1B3B0B220F331F220F331FB901FF
S11308706F5F7F4F7801E60EF71E1801220E331EBC
S113088089010E5F1F4F040F151F188B0F873E86BB
S11308902D86FC86EB86DA86C9861A821982880F31
S11308A0991F880F991FFC01EF5FFE4FFDA3ECA376
S11308B01196BBA3AAA320E030E039A728A7C4015E
S11308C05301340147017101280185011C0148A528
S11308D059A54F5F5F4F59A748A7BA01550F880B19
S11308E0990B0E94510A20E030E040E251E40E945A
S11308F0AE0969837A838B839C835D895111FCC023
S11309008AA19BA168A579A5861B970B0AF4F9C156
S1130910AE8DBF8DA817B9070CF4F3C1ACA1BDA16E
S11309202D913D914D915C91298B3A8B4B8B5C8B36
S1130930CA01B9017727882799270E944F0A29817C
S11309403A814B815C810E94DD0A6E8B7F8B888F9C
S1130950998F29813A814B815C8160E070E080E865
S11309609FE30E9441096D837E838F839887F301FF
S1130970608170E080E090E00E94510A9B01AC012C
S11309806D817E818F8198850E94DD0A9B01AC0177
S11309906E897F89888D998D0E9442090E94200A60
S11309A0D3016C93BA896B2F70E080E090E00E94D1
S11309B04F0A29813A814B815C810E94DD0A6A8F4A
S11309C07B8F8C8F9D8FF501608170E080E090E0DB
S11309D00E94510A9B01AC016D817E818F819885B3
S11309E00E94DD0A9B01AC016A8D7B8D8C8D9D8DEF
S11309F00E9442090E94200AD5016C93BB896B2F87
S1130A0070E080E090E00E944F0A29813A814B8196
S1130A105C810E94DD0A69837A838B839C83F6015F
S1130A20608170E080E090E00E94510A9B01AC017B
S1130A306D817E818F8198850E94DD0A9B01AC01C6
S1130A4069817A818B819C810E9442090E94200ADB
S1130A50D6016C93F401608170E080E090E00E9424
S1130A60510A9B01AC016D817E818F8198850E9422
S1130A70DD0A9B01AC016E897F89888D998D0E9466
S1130A8042090E94200AD4016C93F201608170E053
S1130A9080E090E00E94510A9B01AC016D817E814F
S1130AA08F8198850E94DD0A9B01AC016A8D7B8D44
S1130AB08C8D9D8D0E9442090E94200AD2016C9364
S1130AC0F701608170E080E090E00E94510A9B0190
S1130AD0AC016D817E818F8198850E94DD0A9B0126
S1130AE0AC0169817A818B819C810E9442090E94B8
S1130AF0200AD7016C9305C188A199A1E8A5F9A59D
S1130B008E0F9F1F01972E8D3F8D281739070CF4E8
S1130B10F8C099230CF4F5C0ACA1BDA14D915D9131
S1130B206D917C91498B5A8B6B8B7C8BCB01BA0179
S1130B307727882799270E944F0A29813A814B8178
S1130B405C810E94DD0A6E8B7F8B888F998F29814F
S1130B503A814B815C8160E070E080E89FE30E9411
S1130B6041096D837E838F839887F101608170E0F2
S1130B7080E090E00E94510A9B01AC016D817E816E
S1130B808F8198850E94DD0A9B01AC016E897F8963
S1130B90888D998D0E9442090E94200AD1016C938C
S1130BA0BA896B2F70E080E090E00E944F0A29819F
S1130BB03A814B815C810E94DD0A6A8F7B8F8C8F26
S1130BC09D8FF801608170E080E090E00E94510AFE
S1130BD09B01AC016D817E818F8198850E94DD0A25
S1130BE09B01AC016A8D7B8D8C8D9D8D0E94420989
S1130BF00E94200AD8016C93BB896B2F70E080E0BF
S1130C0090E00E944F0A29813A814B815C810E94C5
S1130C10DD0A69837A838B839C83E985FA85608105
S1130C2070E080E090E00E94510A9B01AC016D816C
S1130C307E818F8198850E94DD0A9B01AC016981C8
S1130C407A818B819C810E9442090E94200AA98595
S1130C50BA856C93EB85FC85608170E080E090E060
S1130C600E94510A9B01AC016D817E818F81988520
S1130C700E94DD0A9B01AC016E897F89888D998D64
S1130C800E9442090E94200AAB85BC856C93EF85C3
S1130C90F889608170E080E090E00E94510A9B0135
S1130CA0AC016D817E818F8198850E94DD0A9B0154
S1130CB0AC016A8D7B8D8C8D9D8D0E9442090E94B2
S1130CC0200AAF85B8896C93ED85FE85608170E05C
S1130CD080E090E00E94510A9B01AC016D817E810D
S1130CE08F8198850E94DD0A9B01AC0169817A811C
S1130CF08B819C810E9442090E94200AAD85BE8599
S1130D006C93B4E06B1A7108E4E0CE1AD108F4E0F5
S1130D10AF1AB10824E0820E911C34E0E30EF11CFA
S1130D2044E0440E511C54E0250E311C69857A853B
S1130D306C5F7F4F7A8769870C5F1F4F8B859C851B
S1130D4004979C878B87AD85BE851497BE87AD8736
S1130D50EF85F8893497F88BEF8728A539A52A30D1
S1130D60310509F0B4CD4091B503442331F08091AD
S1130D70B40381508093B40305C08091B4038F5FA2
S1130D808093B4032091B403022E000C330B8E8D98
S1130D909F8D0A96281739071CF4263F3F4F1CF5F0
S1130DA08091B30390E001966091010270E00E948B
S1130DB04A0B8093B30321E0413009F420E02093EF
S1130DC0B50330E06EA17FA1269FC001279F900D3F
S1130DD0369F900D112499230CF4019695958795CF
S1130DE081508093B403A9960FB6F894DEBF0FBE6A
S1130DF0CDBFDF91CF911F910F91FF90EF90DF90C6
S1130E00CF90BF90AF909F908F907F906F905F90A6
S1130E104F903F902F9008954F925F926F927F92E0
S1130E208F929F92AF92BF92CF92DF92FF920F93D5
S1130E301F93CF93DF936C01EB01F090B9036F2DF7
S1130E4070E080E090E00E944F0A20E030E048E447
S1130E5052E40E94AE094B015C011C161D060CF005
S1130E6048C0E091B803F0E0EE0FFF1FEE0FFF1F44
S1130E70EF5FFE4F4080518062807380C301B201F6
S1130E807727882799270E944F0AA50194010E9479
S1130E90DD0A0E94200A062F652D70E080E090E0B4
S1130EA00E944F0AA50194010E94DD0A0E94200AB3
S1130EB0162F662D70E080E090E00E944F0AA50195
S1130EC094010E94DD0A0E94200AF6013296CC0F9A
S1130ED0DD1FCC0FDD1F2296C6018C0F9D1FDF0185
S1130EE011970C93108311976C933496E817F907B4
S1130EF0B1F78091B703811104C0F394F092B90360
S1130F0003C0FA94F092B9038091B903823330F0AC
S1130F1091E09093B703882339F013C0811111C075
S1130F208091B703882369F08091B80390E001961B
S1130F306091010270E00E944A0B8093B803109202
S1130F40B703DF91CF911F910F91FF90DF90CF9066
S1130F50BF90AF909F908F907F906F905F904F90D5
S1130F6008952F923F924F925F926F927F928F9249
S1130F709F92AF92BF92CF92DF92EF92FF920F9324
S1130F801F93CF93DF93CDB7DEB72A970FB6F894AC
S1130F90DEBF0FBECDBF1C018B012091BB032A878E
S1130FA0622F70E080E090E00E944F0A20E030E081
S1130FB048E452E40E94AE0969837A838B839C835C
S1130FC0101611060CF0B2C09B01AC0160E070E099
S1130FD080E89FE30E9441096D837E838F83988715
S1130FE08091BA0390E0FC01EE0FFF1FEE0FFF1F8C
S1130FF0EF5FFE4F80809180A280B3800196609164
S1131000010270E00E944A0BFC01EE0FFF1FEE0F7D
S1131010FF1FEF5FFE4FC080D180E280F380C501E7
S1131020B4017727882799270E944F0A9B01AC01B6
S11310306D817E818F8198850E94DD0A2B013C01A0
S1131040C701B6017727882799270E944F0A29816B
S11310503A814B815C810E94DD0A9B01AC01C30192
S1131060B2010E9442090E94200A6987692D70E03A
S113107080E090E00E944F0A9B01AC016D817E816B
S11310808F8198850E94DD0A2B013C016D2D70E053
S113109080E090E00E944F0A29813A814B815C8173
S11310A00E94DD0A9B01AC01C301B2010E94420906
S11310B00E94200A762E6A2D70E080E090E00E9463
S11310C04F0A9B01AC016D817E818F8198850E94BE
S11310D0DD0A4B015C016E2D70E080E090E00E941F
S11310E04F0A29813A814B815C810E94DD0A9B0170
S11310F0AC01C501B4010E9442090E94200AF10119
S11311003296000F111F000F111F0E5F1F4F200E8C
S1131110311E9A858985DF0111978C93708211970E
S11311206C933496E215F305B1F79A878A858F5F3D
S11311308093BB03833368F08091BA0390E00196F7
S11311406091010270E00E944A0B8093BA031092EE
S1131150BB032A960FB6F894DEBF0FBECDBFDF9156
S1131160CF911F910F91FF90EF90DF90CF90BF90A0
S1131170AF909F908F907F906F905F904F903F9033
S11311802F9008950F931F9316161706B4F4009129
S11311900101109102012091030130910401FC012D
S11311A0660F771F660F771F860F971F01931193A2
S11311B021933193E817F907C9F71F910F91089507
S11311C08093BC030895E091BC03F0E0EE0FFF1F91
S11311D0EE5FFD4F0190F081E02D09950895909107
S11311E00102891760F4E82FF0E0EE0FFF1FEE0F05
S11311F0FF1FEF5FFE4F20836183428313820895B4
S1131200539A08951F93CF93DF93DC01EB011C16CF
S11312101D0634F131C04081518162817381022EF7
S113122004C076956795579547950A94D2F740FF81
S113123007C05B9A5B9A5B9A5B9A5B9A5B9806C061
S11312405B9A5B985B985B985B985B98215031093B
S113125010F79F5F292F30E02C173D0724F00CC0B6
S113126090E017E180E0FD0124E0929FE00DF11D84
S11312701124212F382FCFCF1BB8DF91CF911F918D
S113128008955058BB27AA270E9459090C94A30A11
S11312900E94950A38F00E949C0A20F039F49F3F7E
S11312A019F426F40C94920A0EF4E095E7FB0C94DE
S11312B08C0AE92F0E94B40A58F3BA17620773071D
S11312C08407950720F079F4A6F50C94D60A0EF459
S11312D0E0950B2EBA2FA02D0B01B90190010C0142
S11312E0CA01A0011124FF27591B99F0593F50F45A
S11312F0503E68F11A16F040A22F232F342F4427B2
S1131300585FF3CF469537952795A795F0405395A9
S1131310C9F77EF41F16BA0B620B730B840BBAF079
S11313209150A1F0FF0FBB1F661F771F881FC2F7E4
S11313300EC0BA0F621F731F841F48F487957795F8
S11313406795B795F7959E3F08F0B0CF9395880FB2
S113135008F09927EE0F9795879508950E94C20982
S11313600C94A30A0E949C0A58F00E94950A40F02B
S113137029F45F3F29F00C948C0A51110C94D70A7C
S11313800C94920A0E94B40A68F39923B1F355238A
S113139091F3951B550BBB27AA2762177307840784
S11313A038F09F5F5F4F220F331F441FAA1FA9F31A
S11313B035D00E2E3AF0E0E832D091505040E69508
S11313C0001CCAF72BD0FE2F29D0660F771F881F69
S11313D0BB1F261737074807AB07B0E809F0BB0B5C
S11313E0802DBF01FF2793585F4F3AF09E3F510570
S11313F078F00C948C0A0C94D70A5F3FE4F3983E7F
S1131400D4F3869577956795B795F7959F5FC9F758
S1131410880F911D9695879597F90895E1E0660FD9
S1131420771F881FBB1F621773078407BA0720F052
S1131430621B730B840BBA0BEE1F88F7E0950895BB
S11314400E94BC0A88F09F5798F0B92F9927B7518A
S1131450B0F0E1F0660F771F881F991F1AF0BA9554
S1131460C9F714C0B13091F00E94D60AB1E00895D2
S11314700C94D60A672F782F8827B85F39F0B93FC4
S1131480CCF3869577956795B395D9F73EF4909507
S11314908095709561957F4F8F4F9F4F0895E89485
S11314A009C097FB3EF490958095709561957F4FA8
S11314B08F4F9F4F9923A9F0F92F96E9BB27939556
S11314C0F695879577956795B795F111F8CFFAF466
S11314D0BB0F11F460FF1BC06F5F7F4F8F4F9F4F97
S11314E016C0882311F096E911C0772321F09EE8F5
S11314F0872F762F05C0662371F096E8862F70E05B
S113150060E02AF09A95660F771F881FDAF7880F34
S11315109695879597F9089597F99F6780E870E005
S113152060E008959FEF80EC089500240A94161655
S1131530170618060906089500240A9412161306BD
S1131540140605060895092E0394000C11F488234B
S113155052F0BB0F40F4BF2B11F460FF04C06F5F67
S11315607F4F8F4F9F4F089557FD9058440F551F3D
S113157059F05F3F71F04795880F97FB991F61F011
S11315809F3F79F087950895121613061406551F88
S1131590F2CF4695F1DF08C0161617061806991FF4
S11315A0F1CF86957105610508940895E894BB27E9
S11315B066277727CB0197F908950E94F00A0C94C7
S11315C0A30A0E94950A38F00E949C0A20F09523F1
S11315D011F00C948C0A0C94920A11240C94D70ADE
S11315E00E94B40A70F3959FC1F3950F50E0551F04
S11315F0629FF001729FBB27F00DB11D639FAA2764
S1131600F00DB11DAA1F649F6627B00DA11D661FB2
S1131610829F2227B00DA11D621F739FB00DA11DD3
S1131620621F839FA00D611D221F749F3327A00D8D
S1131630611D231F849F600D211D822F762F6A2F29
S113164011249F5750409AF0F1F088234AF0EE0F8E
S1131650FF1FBB1F661F771F881F91505040A9F7BB
S11316609E3F510580F00C948C0A0C94D70A5F3F7E
S1131670E4F3983ED4F3869577956795B795F795F7
S1131680E7959F5FC1F7FE2B880F911D969587956F
S113169097F9089597FB072E16F4009407D077FD69
S11316A009D00E947D0B07FC05D03EF490958195EE
S11316B09F4F0895709561957F4F0895052E97FB70
S11316C01EF400940E94750B57FD07D00E94910BE5
S11316D007FC03D04EF40C94750B5095409530954F
S11316E021953F4F4F4F5F4F08959095809570958A
S11316F061957F4F8F4F9F4F0895AA1BBB1B51E1EC
S113170007C0AA1FBB1FA617B70710F0A61BB70B6D
S1131710881F991F5A95A9F780959095BC01CD0112
S11317200895A1E21A2EAA1BBB1BFD010DC0AA1F1E
S1131730BB1FEE1FFF1FA217B307E407F50720F036
S1131740A21BB30BE40BF50B661F771F881F991FB1
S11317501A9469F760957095809590959B01AC01FA
S10D1760BD01CF010895F894FFCFF6
S113176A270000FF0000FF0000FF00000000FFFF49
S113177A00FF00FF00FFFF0000FFFFFF0000000062
S113178A000000000000000000000000000000004B
S113179A000000000000000000000000000000003B
S11317AA000000000000000000000000000000002B
S11317BA000000000000000000000000000000001B
S11317CA000000000000000000000000000000000B
S11317DA00000000000000000000000000000000FB
S11317EA00000000000000000000000000000000EB
S11317FA00000000000000000000000000000000DB
S113180A00000000000000000000000000000000CA
S113181A00000000000000000000000000000000BA
S113182A00000000000000000000000000000000AA
S113183A000000000000000000000000000000009A
S113184A000000000000000000000000000000008A
S113185A000000000000000000000000000000007A
S10F186A0007A901DC030C07B107C20849
S9030000FC
