:100000000C944A000C9467000C9467000C946700F1
:100010000C9467000C9467000C9467000C946700C4
:100020000C9467000C9467000C9467000C946700B4
:100030000C9467000C9467000C9467000C946700A4
:100040000C9467000C9467000C9435010C946700C5
:100050000C9467000C9467000C9467000C94670084
:100060000C9467000C946700BD01C101E401F0012C
:10007000E801EC01F40105A84CCDB2D44EB93836F4
:10008000A9020C50B9918688083CA6AAAA2ABE00EB
:100090000000803F11241FBECFEFD4E0DEBFCDBFF4
:1000A00011E0A0E0B1E0E0E2F7E202C005900D92BD
:1000B000A835B107D9F723E0A8E5B1E001C01D924A
:1000C000AC3EB207E1F70E947E010C948E130C94B3
:1000D0000000CF93DF93DC014091590180915A01D8
:1000E00050E0481B51090AF0B8C040585F4F4230F9
:1000F00051050CF4ACC0E0915A01EF77F0E0E55AFD
:10010000FE4F80818F3FC1F409C0E0915A01EF7723
:10011000F0E0E55AFE4F90819F3F71F4E0915A0163
:10012000F0E0E45AFE4F80814250510990E04817B8
:100130005907C4F480E096C020915A0130E02F5F47
:100140003F4F2F773078332334F421503109206822
:100150003F6F2F5F3F4F20935A014150510942306A
:1001600051059CF6E0915A01F0E0E45AFE4F4081BF
:10017000242F30E080915A0190E001968F7790789B
:10018000992324F4019780689F6F019680935A0108
:1001900080915A0190E001968F779078992324F40A
:1001A000019780689F6F019680935A0170E06217F3
:1001B00073070CF44EC01216130604F5ED01A40FDC
:1001C000B11DE0915A01EF77F0E0E55AFE4F9081C2
:1001D000490F999320915A0130E02F5F3F4F2F77BD
:1001E0003078332334F42150310920683F6F2F5F7A
:1001F0003F4F20935A01CA17DB0719F7E0915A01C4
:10020000EF77F0E0E55AFE4F8081841310C08091B3
:100210005A0190E001968F779078992324F4019702
:1002200080689F6F019680935A0181E01BC0809186
:100230005A0190E001968F779078992324F40197E2
:1002400080689F6F019680935A0180E00BC080E028
:1002500009C080E007C080E005C0423051050CF0C5
:100260004ACFF9CFDF91CF9108951F920F920FB629
:100270000F9211248F939F93EF93FF9380915901D5
:1002800090E001968F779078992324F40197806805
:100290009F6F0196809358019091580180915A0167
:1002A000981761F0E0915901F0E08091C600E55A9D
:1002B000FE4F80838091580180935901FF91EF9107
:1002C0009F918F910F900FBE0F901F9018959C01DA
:1002D00040E050E060E271EA87E090E00E94331372
:1002E000215031093093C5002093C40088E98093E0
:1002F000C10086E08093C20078940895CF93DF9385
:10030000CDB7DEB7E2970FB6F894DEBF0FBECDBF14
:10031000EBEDF1E08BEB93E01192119211921192BF
:10032000E817F907C9F780E096E90E9467010E9483
:100330001010C12CD12C6091000170E08BED91E088
:100340000E9412106091000170E08BED91E00E941C
:10035000E80F62E3CE0101960E946900882309F448
:100360004FC0E9818E2F90E08730910508F048C09A
:10037000FC01EC5CFF4F0C9452138A810E94D00F59
:100380003FC08A810E940B108A818823C9F18E01A7
:100390000B5F1F4FEC2CFD2C8FEFE81AF80AD801E9
:1003A0001197C8010297F80120814C91FC016081EE
:1003B0008FEF8E0D0E94F40F0D5F1F4F8A8190E02A
:1003C000E816F9064CF31CC08A810E94D30F18C0AE
:1003D0008A810E94DC0F14C08A810E94E50F10C040
:1003E0008A81809300010CC08A810E94D00F8B818A
:1003F0000E94D30F8C810E94DC0F8D810E94E50F3B
:100400008FE99FE00197F1F700C0000094CF2F9291
:100410003F924F925F926F927F928F929F92AF9294
:10042000BF92CF92DF92EF92FF920F931F93CF93E1
:10043000DF93CDB7DEB7AA970FB6F894DEBF0FBE35
:10044000CDBF4C017E836D83809144018CA360916C
:10045000450170E080E090E00E946D1120E030E006
:1004600048EC52E40E94C3106DA37EA38FA398A70B
:10047000AD81BE811A161B060CF095C1B091C00368
:10048000BF838091BC039091BD03A091BE03B09146
:10049000BF0389839A83AB83BC830091BB0310E0C5
:1004A000C80101966091420170E00E941F13FC0197
:1004B000EE0FFF1FEE0FFF1FEE5FFE4FC080D180DB
:1004C000E280F380C701B6017727882799270E9429
:1004D0006B11688779878A879B87000F111F000F30
:1004E000111FF801EE5FFE4F4080518062807380E3
:1004F000C301B2017727882799270E946B116C8767
:100500007D878E879F876D2D70E080E090E00E9450
:100510006B11688B798B8A8B9B8B652D70E080E0EB
:1005200090E00E946B116C8B7D8B8E8B9F8B6E2D60
:1005300070E080E090E00E946B11688F798F8A8F65
:100540009B8F662D70E080E090E00E946B116C8FB5
:100550007D8F8E8F9F8F92E0890E911C212C312CE4
:100560009CA1892F90E0A0E0B0E088A399A3AAA362
:10057000BBA3AF81A11144C0B101032C000C880BB7
:10058000990B0E946D116B017C0129813A814B818D
:100590005C810E94BE1088230CF476C068A179A10A
:1005A0008AA19BA10E946D112B013C019B01AC0112
:1005B00069817A818B819C810E9452109B01AC01E0
:1005C000C701B6010E94BE1088230CF062C02981C9
:1005D0003A814B815C81C701B6010E945110A30191
:1005E00092010E94C3109B01AC0160E070E080E8C2
:1005F0009FE30E945110A62EB72E082F192F57C027
:10060000B101032C000C880B990B0E946D116B013A
:100610007C019B01AC0169817A818B819C810E9464
:10062000BE101816DCF568A179A18AA19BA10E94D1
:100630006D112B013C019B01AC0169817A818B8199
:100640009C810E9451109B01AC01C701B6010E9420
:100650001D12882344F1A701960169817A818B815B
:100660009C810E945110A30192010E94C3109B0122
:10067000AC0160E070E080E89FE30E945110A62E7C
:10068000B72E082F192F13C0A12CB12C00E81FE39F
:100690000EC0A12CB12C00E010E009C0A12CB12C9F
:1006A00000E81FE304C0A12CB12C00E010E02A2DCB
:1006B0003B2D402F512F60E070E080E89FE30E94C7
:1006C00051106B017C01F4013197FAA7E9A72A2D9B
:1006D0003B2D402F512F688579858A859B850E9407
:1006E00022122B013C012C853D854E855F85C7017B
:1006F000B6010E9422129B01AC01C301B2010E940B
:1007000052100E943C11A9A5BAA56C932A2D3B2D2D
:10071000402F512F688979898A899B890E942212EA
:100720002B013C012C893D894E895F89C701B601A7
:100730000E9422129B01AC01C301B2010E9452101F
:100740000E943C11F4016083C40102979AA789A713
:100750002A2D3B2D402F512F688D798D8A8D9B8DB1
:100760000E9422122B013C012C8D3D8D4E8D5F8D00
:10077000C701B6010E9422129B01AC01C301B20164
:100780000E9452100E943C11A9A5BAA56C93BFEF1C
:100790002B1A3B0AE4E08E0E911C8D819E81281657
:1007A000390609F0E6CEF090C003F11017C02DA174
:1007B0003EA14FA158A56091BC037091BD038091EB
:1007C000BE039091BF030E9452106093BC037093CC
:1007D000BD038093BE039093BF0316C02DA13EA11D
:1007E0004FA158A56091BC037091BD038091BE03D9
:1007F0009091BF030E9451106093BC037093BD039E
:100800008093BE039093BF039CA1092F10E0CD807D
:10081000DE80C00ED11E8090BC039090BD03A090DE
:10082000BE03B090BF03B6010D2C000C880B990BD2
:100830000E946D11A50194010E94BE10181694F437
:1008400066277727601B710B072E000C880B990B0E
:100850000E946D119B01AC01C501B4010E94BE1044
:100860008823BCF58091BB0390E001966091420122
:1008700070E00E941F138093BB0381E0F81201C057
:1008800080E08093C003811113C066277727601B27
:10089000710B072E000C880B990B0E946D11609351
:1008A000BC037093BD038093BE039093BF0311C03C
:1008B000B60161507109072E000C880B990B0E943C
:1008C0006D116093BC037093BD038093BE0390933E
:1008D000BF03AA960FB6F894DEBF0FBECDBFDF915F
:1008E000CF911F910F91FF90EF90DF90CF90BF902D
:1008F000AF909F908F907F906F905F904F903F90C0
:100900002F9008952F923F924F925F926F927F9215
:100910008F929F92AF92BF92CF92DF92EF92FF920F
:100920000F931F93CF93DF93CDB7DEB7AC970FB67E
:10093000F894DEBF0FBECDBF8C011B012091440196
:1009400028A76091450170E080E090E00E946D1161
:1009500020E030E048EC52E40E94C31069A77AA777
:100960008BA79CA7C10133200CF401969595879520
:10097000DC011196BA87A9871A161B060CF0B8C1BC
:10098000A090C6038091C2039091C303A091C403B9
:10099000B091C5038D839E83AF83B8878090C103D8
:1009A000912CC40101966091420170E00E941F13D6
:1009B000FC01EE0FFF1FEE0FFF1FEE5FFE4FC0802A
:1009C000D180E280F380C701B60177278827992775
:1009D0000E946B116B877C878D879E87C401880F6F
:1009E000991F880F991F8E5F9E4FDC014D905D907F
:1009F0006D907C90C301B2017727882799270E94C8
:100A00006B116F87788B898B9A8B6D2D70E080E0EE
:100A100090E00E946B116B8B7C8B8D8B9E8B652D78
:100A200070E080E090E00E946B116F8B788F898F6F
:100A30009A8F6E2D70E080E090E00E946B116B8FBA
:100A40007C8F8D8F9E8F662D70E080E090E00E94FD
:100A50006B116F8F78A389A39AA34801B2E08B0E24
:100A6000911C220C331C220C331CE2E02E1A31089C
:100A7000200E311E412C512C98A5892F90E0A0E02A
:100A8000B0E08CA39DA3AEA3BFA3ABA27201ABA1A8
:100A9000A11144C0B7010F2C000C880B990B0E94C8
:100AA0006D112B013C012D813E814F8158850E94A3
:100AB000BE1088230CF477C06CA17DA18EA19FA1EC
:100AC0000E946D115B016C019B01AC016D817E8107
:100AD0008F8198850E9452109B01AC01C301B20125
:100AE0000E94BE1088230CF068C02D813E814F818A
:100AF0005885C301B2010E945110A60195010E94C0
:100B0000C3109B01AC0160E070E080E89FE30E94AD
:100B10005110062F172FC82ED92E62C0B7010F2CE7
:100B2000000C880B990B0E946D112B013C019B015D
:100B3000AC016D817E818F8198850E94BE10181650
:100B40000CF040C06CA17DA18EA19FA10E946D11EF
:100B50005B016C019B01AC016D817E818F81988569
:100B60000E9451109B01AC01C301B2010E941D12F1
:100B7000882394F1A30192016D817E818F819885F4
:100B80000E945110A60195010E94C3109B01AC0167
:100B900060E070E080E89FE30E945110062F172F5D
:100BA000C82ED92E1DC000E010E06894CC24C7F8F0
:100BB0000F2EFFE3DF2EF02D13C000E010E0C12C5C
:100BC000D12C0EC000E010E06894CC24C7F80F2EA2
:100BD000FFE3DF2EF02D04C000E010E0C12CD12C8B
:100BE000202F312F4C2D5D2D60E070E080E89FE3D9
:100BF0000E94511069837A838B839C83202F312F2D
:100C00004C2D5D2D6B857C858D859E850E942212E5
:100C10002B013C012F85388949895A8969817A815C
:100C20008B819C810E9422129B01AC01C301B20105
:100C30000E9452100E943C11B62EF401319760833D
:100C4000202F312F4C2D5D2D6B897C898D899E89BC
:100C50000E9422122B013C012F89388D498D5A8D1B
:100C600069817A818B819C810E9422129B01AC0157
:100C7000C301B2010E9452100E943C11A62EF40141
:100C80006083202F312F4C2D5D2D6B8D7C8D8D8DB4
:100C90009E8D0E9422122B013C012F8D38A149A16B
:100CA0005AA169817A818B819C810E9422129B01C9
:100CB000AC01C301B2010E9452100E943C11F40128
:100CC00032976083F1013197B082D101AC923197B4
:100CD0006083BFEFEB1AFB0AE4E08E0E911CF4E098
:100CE0002F1A310829853A85E216F3060CF4CFCE87
:100CF000F090C603F11017C029A53AA54BA55CA535
:100D00006091C2037091C3038091C4039091C503A5
:100D10000E9452106093C2037093C3038093C40374
:100D20009093C50316C029A53AA54BA55CA5609173
:100D3000C2037091C3038091C4039091C5030E94C4
:100D400051106093C2037093C3038093C4039093C4
:100D5000C50338A5032F10E0C984DA84C00ED11E64
:100D60008090C2039090C303A090C403B090C503C9
:100D7000B6010D2C000C880B990B0E946D11A5017A
:100D800094010E94BE10181694F466277727601B02
:100D9000710B072E000C880B990B0E946D119B01A3
:100DA000AC01C501B4010E94BE108823BCF580913E
:100DB000C10390E001966091420170E00E941F1310
:100DC0008093C10381E0F81201C080E08093C603E4
:100DD000811113C066277727601B710B072E000C4B
:100DE000880B990B0E946D116093C2037093C3032B
:100DF0008093C4039093C50311C0B601615071097B
:100E0000072E000C880B990B0E946D116093C20392
:100E10007093C3038093C4039093C503AC960FB63D
:100E2000F894DEBF0FBECDBFDF91CF911F910F9120
:100E3000FF90EF90DF90CF90BF90AF909F908F90FA
:100E40007F906F905F904F903F902F9008952F92DA
:100E50003F924F925F926F927F928F929F92AF924A
:100E6000BF92CF92DF92EF92FF920F931F93CF9397
:100E7000DF938C01EB016091450170E080E090E030
:100E80000E946D1120E030E44CE955E40E94C3104B
:100E90002B013C011C161D060CF053C0E091CC0345
:100EA000F0E0EE0FFF1FEE0FFF1FEE5FFE4F8080A2
:100EB0009180A280B380C090C803D090C903E09015
:100EC000CA03F090CB03C501B4017727882799277F
:100ED0000E946B11A70196010E9422120E943C11F0
:100EE000262E692D70E080E090E00E946B119B013E
:100EF000AC01C701B6010E9422120E943C11362E9D
:100F00006A2D70E080E090E00E946B119B01AC01C3
:100F1000C701B6010E9422120E943C11F8013296CC
:100F2000CC0FDD1FCC0FDD1F22960C0F1D1FDF0124
:100F300011972C92308211976C933496E017F10739
:100F4000B1F78091C703811115C0A301920160918F
:100F5000C8037091C9038091CA039091CB030E948A
:100F600052106093C8037093C9038093CA0390938F
:100F7000CB0314C0A30192016091C8037091C9030F
:100F80008091CA039091CB030E9451106093C803D3
:100F90007093C9038093CA039093CB03C090C80396
:100FA000D090C903E090CA03F090CB0320E030E07A
:100FB00040E85FE3C701B6010E941D12882384F058
:100FC00081E08093C70380E090E0A0E8BFE38093D6
:100FD000C8039093C903A093CA03B093CB0322C064
:100FE00020E030E0A901C701B6010E94BE1018162A
:100FF000CCF08091C7038823A9F08091CC0390E0C6
:1010000001966091420170E00E941F138093CC030F
:101010001092C7031092C8031092C9031092CA031A
:101020001092CB03DF91CF911F910F91FF90EF9022
:10103000DF90CF90BF90AF909F908F907F906F90F8
:101040005F904F903F902F9008952F923F924F9234
:101050005F926F927F928F929F92AF92BF92CF9248
:10106000DF92EF92FF920F931F93CF93DF93CDB751
:10107000DEB72D970FB6F894DEBF0FBECDBF1C01B3
:101080008B016091450170E080E090E00E946D115D
:1010900020E030E44CE955E40E94C31069877A8768
:1010A0008B879C87101611060CF0C2C08091CE036E
:1010B0009091CF03A091D003B091D10389839A83FB
:1010C000AB83BC839C01AD0160E070E080E89FE3EE
:1010D0000E9451106D837E838F8398878091CD030A
:1010E00090E0FC01EE0FFF1FEE0FFF1FEE5FFE4FC3
:1010F00080809180A280B38001966091420170E06F
:101100000E941F13FC01EE0FFF1FEE0FFF1FEE5F8B
:10111000FE4FC080D180E280F380C501B401772703
:10112000882799270E946B119B01AC016D817E81FC
:101130008F8198850E9422122B013C01C701B601C4
:101140007727882799270E946B119B01AC01698141
:101150007A818B819C810E9422129B01AC01C30188
:10116000B2010E9452100E943C116D87692D70E0FF
:1011700080E090E00E946B119B01AC016D817E814B
:101180008F8198850E9422122B013C016D2D70E009
:1011900080E090E00E946B119B01AC0169817A8133
:1011A0008B819C810E9422129B01AC01C301B20180
:1011B0000E9452100E943C11762E6A2D70E080E051
:1011C00090E00E946B119B01AC016D817E818F814B
:1011D00098850E9422124B015C016E2D70E080E028
:1011E00090E00E946B119B01AC0169817A818B8137
:1011F0009C810E9422129B01AC01C501B4010E9496
:1012000052100E943C11F1013296000F111F000F85
:10121000111F0E5F1F4F200E311E8D85DF011197AC
:101220008C93708211976C933496E215F305B1F7A5
:101230002091CE033091CF034091D0035091D10340
:1012400069857A858B859C850E9452106093CE03B8
:101250007093CF038093D0039093D10320E030E0CC
:1012600040E85FE30E941D1288239CF08091CD032B
:1012700090E001966091420170E00E941F138093FC
:10128000CD031092CE031092CF031092D003109290
:10129000D1032D960FB6F894DEBF0FBECDBFDF9100
:1012A000CF911F910F91FF90EF90DF90CF90BF9063
:1012B000AF909F908F907F906F905F904F903F90F6
:1012C0002F9008950F931F9316161706B4F40091EC
:1012D0000201109103012091040130910501FC01EC
:1012E000660F771F660F771F860F971F0193119365
:1012F00021933193E817F907C9F71F910F910895CA
:101300002F923F924F925F926F927F928F929F9215
:10131000AF92BF92CF92DF92EF92FF920F931F9303
:10132000CF93DF93CDB7DEB7A6970FB6F894DEBFA5
:101330000FBECDBF9E8F8D8F7AA369A360914501AB
:1013400070E080E090E00E946D1120E030E048E421
:1013500052E40E94C3106BA37CA38DA39EA3609153
:10136000430170E080E090E00E946B11698B7A8B02
:101370008B8B9C8B8091DD039091DE0318161906F0
:10138000D4F029A13AA13093DE032093DD038091AC
:10139000DB039091DC0301966091420170E00E94B2
:1013A0001F139093DC038093DB0338A32F8F121657
:1013B00013060CF036C16091D7037091D803809169
:1013C000D9039091DA036D8B7E8B8F8B988F8091F0
:1013D000DB039091DC03DC011196BA8FA98F209179
:1013E0004201E22FF0E0FC8FEB8F2091DD03309182
:1013F000DE0338A32F8F2D8C3E8C3FEF231A330A48
:101400004D8C5E8C320142E0640E711C00E010E0F5
:10141000880F991F880F991FBC016E5F7E4FAF8C9C
:10142000B8A04101130132012B01B801012E000CBB
:10143000880B990B0E946D119B01AC016D897E890F
:101440008F89988D0E9451106B017C0120E030E063
:10145000A9010E94BE10882324F4F7FAF094F7F84B
:10146000F09429893A894B895C89C701B6010E94A9
:10147000BE1088230CF0BCC029893A894B895C894D
:10148000C701B6010E94C31069837A838B839C8352
:10149000D2018D919D910D90BC91A02D8D839E8345
:1014A000AF83B88729813A814B815C8160E070E02D
:1014B00080E89FE30E94511069877A878B879C8719
:1014C000898D9A8D6B8D7C8D0E941F137C016D819F
:1014D0007E818F8198857727882799270E946B11B5
:1014E00029813A814B815C810E9422126D877E871F
:1014F0008F87988BC701880F991F880F991F8E5F60
:101500009E4FFC01C080D180E280F380C701B6010C
:101510007727882799270E946B119B01AC01698569
:101520007A858B859C850E9422129B01AC016D857A
:101530007E858F8598890E9452100E943C11D401AB
:101540006C93BE816B2F70E080E090E00E946B1185
:1015500029813A814B815C810E9422126D877E87AE
:101560008F87988B6D2D70E080E090E00E946B116A
:101570009B01AC0169857A858B859C850E9422122E
:101580009B01AC016D857E858F8598890E945210E4
:101590000E943C11F1016083FF816F2F70E080E0B9
:1015A00090E00E946B1129813A814B815C810E94FD
:1015B000221269837A838B839C836E2D70E080E096
:1015C00090E00E946B119B01AC0169857A858B8547
:1015D0009C850E9422129B01AC0169817A818B81DA
:1015E0009C810E9452100E943C11D3016C930AC04E
:1015F000F201208191818281D4012C93F1019083A9
:10160000D3018C930F5F1F4FB4E08B0E911CE4E06D
:101610006E0E711CF4E02F0E311C0A151B050CF424
:1016200004CF29A13AA14F8D58A14217530794F531
:101630008091DB039091DC0301966091420170E0A0
:101640000E941F13FC01EE0FFF1FEE0FFF1FEE5F46
:10165000FE4F408131812281EF8DF8A1EE0FFF1FF7
:10166000EE0FFF1F32966D8D7E8DE60FF71F89A15D
:101670009AA1880F991F880F991F0296860F971FAE
:10168000DF0111974C93308311972C933496E81710
:10169000F907B1F72091D7033091D8034091D903CE
:1016A0005091DA036BA17CA18DA19EA10E945210E2
:1016B0006B017C016093D7037093D8038093D903A7
:1016C0009093DA03AF8DB8A1BD01BB0F880B990BC6
:1016D0000E946D119B01AC01C701B6010E941D1251
:1016E0008823ACF18091D60381110AC08F8D98A117
:1016F00001979093DE038093DD0381E08093D6030E
:101700006091DD037091DE03072E000C880B990BAE
:101710000E946D1129893A894B895C890E94521077
:101720009B01AC01C701B6010E941D1288237CF009
:1017300089899A89AB89BC89B0588093D7039093E3
:10174000D803A093D903B093DA031092D603A696D8
:101750000FB6F894DEBF0FBECDBFDF91CF911F91C2
:101760000F91FF90EF90DF90CF90BF90AF909F9040
:101770008F907F906F905F904F903F902F90089543
:101780002F923F924F925F926F927F928F929F9291
:10179000AF92BF92CF92DF92EF92FF920F931F937F
:1017A000CF93DF93CDB7DEB766970FB6F894DEBF61
:1017B0000FBECDBF9E878D87788B6F876091450167
:1017C00070E080E090E00E946D1120E030E048E49D
:1017D00052E40E94C310698B7A8B8B8B9C8B609137
:1017E000430170E080E090E00E946B1169837A838E
:1017F0008B839C838091E6039091E703181619066A
:10180000CCF02F8538893093E7032093E60380914D
:10181000E4039091E50301966091420170E00E941B
:101820001F139093E5038093E40339011216130606
:101830000CF0C3C06091E0037091E1038091E2037A
:101840009091E3036D837E838F8398878091E40377
:101850009091E503DC011196BA87A9878091420136
:10186000E82FF0E0FC87EB876090E6037090E703D9
:101870000D851E850F5F1F4F4D845E841201F2E0BF
:101880002F0E311CE12CF12CFE8AED8A2D893E8928
:10189000B901330F880B990B0E946D119B01AC01AC
:1018A0006D817E818F8198850E9451106B017C0132
:1018B00020E030E0A9010E94BE10882324F4F7FA4A
:1018C000F094F7F8F09429813A814B815C81C7014B
:1018D000B6010E94BE1088230CF055C029813A81C0
:1018E0004B815C81C701B6010E94C3109B01AC0112
:1018F00060E070E080E89FE30E9451106B017C0182
:1019000089859A856B857C850E941F13FC01EE0FEB
:10191000FF1FEE0FFF1FEE5FFE4F80809180A280C1
:10192000B380C501B4017727882799270E946B11DE
:101930009B01AC01C701B6010E9422120E943C111A
:10194000D8016C93692D70E080E090E00E946B11EB
:101950009B01AC01C701B6010E9422120E943C11FA
:10196000F10160836A2D70E080E090E00E946B11CD
:101970009B01AC01C701B6010E9422120E943C11DA
:10198000D2016C9306C0F8011082D1011C92F201C1
:1019900010822D893E892F5F3F4F3E8B2D8B0C5F30
:1019A0001F4F34E0430E511C64E0260E311C8D891C
:1019B0009E89861597050CF469CFAF85B8896A169C
:1019C0007B068CF58091E4039091E503019660918C
:1019D000420170E00E941F13FC01EE0FFF1FEE0F8B
:1019E000FF1FEE5FFE4F408131812281F301EE0F38
:1019F000FF1FEE0FFF1F32966D857E85E60FF71FE6
:101A00008F859889880F991F880F991F0296860FD6
:101A1000971FDF0111974C93308311972C933496C5
:101A2000E817F907B1F72091E0033091E103409105
:101A3000E2035091E30369897A898B899C890E942A
:101A400052106B017C016093E0037093E10380937B
:101A5000E2039093E303B301072C000C880B990B6E
:101A60000E946D119B01AC01C701B6010E941D12BD
:101A70008823A4F18091DF03811109C0C30101977C
:101A80009093E7038093E60381E08093DF03609106
:101A9000E6037091E703072E000C880B990B0E9458
:101AA0006D1129813A814B815C810E9452109B010A
:101AB000AC01C701B6010E941D1288237CF0898108
:101AC0009A81AB81BC81B0588093E0039093E1038D
:101AD000A093E203B093E3031092DF0366960FB680
:101AE000F894DEBF0FBECDBFDF91CF911F910F9154
:101AF000FF90EF90DF90CF90BF90AF909F908F902E
:101B00007F906F905F904F903F902F9008952F920D
:101B10003F924F925F926F927F928F929F92AF927D
:101B2000BF92CF92DF92EF92FF920F931F93CF93CA
:101B3000DF9300D000D0CDB7DEB72C017B016091E0
:101B4000450170E080E090E00E946D1120E030E0FF
:101B50004AE754E40E94C31069837A838B839C8391
:101B6000609143011E141F040CF04DC08090E803E7
:101B70009090E903A090EA03B090EB0370E080E05E
:101B800090E00E946D11A50194010E9452100E94E4
:101B900035116B01C501B4010E9435113B01209044
:101BA0000201309003014091040182010F5F1F4F39
:101BB0005201F201329620E030E0261537051CF084
:101BC0002C153D0554F0EC14FD046CF4C601B7016E
:101BD0000E941F132817390734F4D8012C92308241
:101BE000D5014C9305C0D8011C921082D5011C92DE
:101BF0002F5F3F4F0C5F1F4FB4E0AB0EB11C34960C
:101C00002E153F05D1F62091E8033091E90340916C
:101C1000EA035091EB0369817A818B819C810E9458
:101C200052104B015C01B701FF0C880B990B0E940D
:101C30006D119B01AC01C501B4010E941D128823E6
:101C40004CF48092E8039092E903A092EA03B092E8
:101C5000EB0308C01092E8031092E9031092EA0324
:101C60001092EB030F900F900F900F90DF91CF9198
:101C70001F910F91FF90EF90DF90CF90BF90AF90AA
:101C80009F908F907F906F905F904F903F902F909C
:101C900008952F923F924F925F926F927F928F9210
:101CA0009F92AF92BF92CF92DF92EF92FF920F93EB
:101CB0001F93CF93DF93CDB7DEB7A8970FB6F894F5
:101CC000DEBF0FBECDBF8C013B016091450170E0CE
:101CD00080E090E00E946D1120E030E04AEF53E494
:101CE0000E94C3106DA37EA38FA398A760914301A8
:101CF00070E080E090E00E946B11161417040CF065
:101D000005C19B01AC0160E070E080E89FE30E94A8
:101D1000C3106D837E838F8398878091D2039091C7
:101D2000D303A091D403B091D50389879A87AB8759
:101D3000BC870F2EF2E0AF2EF1E0BF2EF02DD501C3
:101D4000CD90DD90ED90FC90C701B60177278827F4
:101D500099270E946B116D877E878F87988BF5017D
:101D600084809580A680B780C501B4017727882735
:101D700099270E946B11698B7A8B8B8B9C8B6D2DB5
:101D800070E080E090E00E946B116D8B7E8B8F8BFA
:101D9000988F692D70E080E090E00E946B11698F50
:101DA0007A8F8B8F9C8F6E2D70E080E090E00E9488
:101DB0006B116D8F7E8F8F8F98A36A2D70E080E0FE
:101DC00090E00E946B1169A37AA38BA39CA30E5F82
:101DD0001F4F212C312C5301B101032C000C880B17
:101DE000990B0E946D112D813E814F8158850E9473
:101DF000221229853A854B855C850E9452100E94EB
:101E00008F1220E030E040E85FE30E94521020E0B3
:101E100030E040E05FE30E9422126B017C019B01F5
:101E2000AC0160E070E080E89FE30E94511069839C
:101E30007A838B839C834801F1E08F1A9108A70174
:101E400096016D857E858F8598890E9422122B01CF
:101E50003C0129893A894B895C8969817A818B8126
:101E60009C810E9422129B01AC01C301B2010E941D
:101E700052100E943C11D4016C93A70196016D8908
:101E80007E898F89988D0E9422122B013C01298D19
:101E90003A8D4B8D5C8D69817A818B819C810E940A
:101EA00022129B01AC01C301B2010E9452100E9498
:101EB0003C11F80160834801F2E08F1A9108A701F4
:101EC00096016D8D7E8D8F8D98A10E9422126B01DF
:101ED0007C0129A13AA14BA15CA169817A818B8106
:101EE0009C810E9422129B01AC01C701B6010E9495
:101EF00052100E943C11D4016C93BFEF2B1A3B0A85
:101F00000C5F1F4F2A143B0409F066CF2091D203C7
:101F10003091D3034091D4035091D5036DA17EA19C
:101F20008FA198A50E9452106B017C012BED3FE020
:101F300049EC50E40E941D1218164CF0C092D203D6
:101F4000D092D303E092D403F092D50310C02BEDCE
:101F50003FE049EC50E4C701B6010E945110609384
:101F6000D2037093D3038093D4039093D503A896A0
:101F70000FB6F894DEBF0FBECDBFDF91CF911F919A
:101F80000F91FF90EF90DF90CF90BF90AF909F9018
:101F90008F907F906F905F904F903F902F9008951B
:101FA000809301010895853620F084E680934501F1
:101FB0000895809345010895853620F084E6809346
:101FC0004401089580934401089580934301089546
:101FD000E0910101F0E0EE0FFF1FEA5BFE4F019080
:101FE000F081E02D0995089590914201891790F4B0
:101FF000E82FF0E0EE0FFF1FEE0FFF1FEE5FFE4F2A
:10200000862F90E0A0E0B0E0942BA22B80839183F8
:10201000A283B3830895813110F48093420108951F
:10202000539A08951F93CF93DF93DC01EB011C16A5
:102030001D0634F131C04081518162817381022ECD
:1020400004C076956795579547950A94D2F740FF57
:1020500007C05B9A5B9A5B9A5B9A5B9A5B9806C037
:102060005B9A5B985B985B985B985B982150310911
:1020700010F79F5F292F30E02C173D0724F00CC08C
:1020800090E017E180E0FD0124E0929FE00DF11D5A
:102090001124212F382FCFCF1BB8DF91CF911F9163
:1020A00008955058BB27AA270E9469100C94E31189
:1020B0000E94D51138F00E94DC1120F039F49F3FC6
:1020C00019F426F40C94D2110EF4E095E7FB0C946D
:1020D000CC11E92F0E94F41158F3BA176207730765
:1020E0008407950720F079F4A6F50C9416120EF4E7
:1020F000E0950B2EBA2FA02D0B01B90190010C0118
:10210000CA01A0011124FF27591B99F0593F50F42F
:10211000503E68F11A16F040A22F232F342F442787
:10212000585FF3CF469537952795A795F04053957F
:10213000C9F77EF41F16BA0B620B730B840BBAF04F
:102140009150A1F0FF0FBB1F661F771F881FC2F7BA
:102150000EC0BA0F621F731F841F48F487957795CE
:102160006795B795F7959E3F08F0B0CF9395880F88
:1021700008F09927EE0F9795879508950E94A8116A
:1021800008F481E008950E94D7100C94E3110E9496
:10219000DC1158F00E94D51140F029F45F3F29F07E
:1021A0000C94CC1151110C9417120C94D2110E9462
:1021B000F41168F39923B1F3552391F3951B550B53
:1021C000BB27AA2762177307840738F09F5F5F4F0A
:1021D000220F331F441FAA1FA9F335D00E2E3AF049
:1021E000E0E832D091505040E695001CCAF72BD061
:1021F000FE2F29D0660F771F881FBB1F26173707B2
:102200004807AB07B0E809F0BB0B802DBF01FF27E3
:1022100093585F4F3AF09E3F510578F00C94CC11E3
:102220000C9417125F3FE4F3983ED4F386957795AC
:102230006795B795F7959F5FC9F7880F911D96959C
:10224000879597F90895E1E0660F771F881FBB1FF8
:10225000621773078407BA0720F0621B730B840BA5
:10226000BA0BEE1F88F7E09508950E943C11689420
:10227000B1110C94171208950E94FC1188F09F5719
:1022800098F0B92F9927B751B0F0E1F0660F771F9A
:10229000881F991F1AF0BA95C9F714C0B13091F090
:1022A0000E941612B1E008950C941612672F782F31
:1022B0008827B85F39F0B93FCCF386957795679555
:1022C000B395D9F73EF490958095709561957F4FC1
:1022D0008F4F9F4F0895E89409C097FB3EF4909567
:1022E0008095709561957F4F8F4F9F4F9923A9F0EF
:1022F000F92F96E9BB279395F6958795779567957E
:10230000B795F111F8CFFAF4BB0F11F460FF1BC0C1
:102310006F5F7F4F8F4F9F4F16C0882311F096E954
:1023200011C0772321F09EE8872F762F05C0662302
:1023300071F096E8862F70E060E02AF09A95660FBB
:10234000771F881FDAF7880F9695879597F9089574
:10235000990F0008550FAA0BE0E8FEEF16161706B6
:10236000E807F907C0F012161306E407F50798F01E
:10237000621B730B840B950B39F40A2661F0232B37
:10238000242B252B21F408950A2609F4A140A695B3
:102390008FEF811D811D089597F99F6780E870E098
:1023A00060E008959FEF80EC089500240A941616CB
:1023B000170618060906089500240A941216130633
:1023C000140605060895092E0394000C11F48823C1
:1023D00052F0BB0F40F4BF2B11F460FF04C06F5FDD
:1023E0007F4F8F4F9F4F089557FD9058440F551FB3
:1023F00059F05F3F71F04795880F97FB991F61F087
:102400009F3F79F087950895121613061406551FFD
:10241000F2CF4695F1DF08C0161617061806991F69
:10242000F1CF86957105610508940895E894BB275E
:1024300066277727CB0197F908950E94A81108F421
:102440008FEF08950E9435120C94E3110E94D5116C
:1024500038F00E94DC1120F0952311F00C94CC117F
:102460000C94D21111240C9417120E94F41170F3E1
:10247000959FC1F3950F50E0551F629FF001729F29
:10248000BB27F00DB11D639FAA27F00DB11DAA1F38
:10249000649F6627B00DA11D661F829F2227B00D85
:1024A000A11D621F739FB00DA11D621F839FA00D10
:1024B000611D221F749F3327A00D611D231F849F60
:1024C000600D211D822F762F6A2F11249F575040B7
:1024D0009AF0F1F088234AF0EE0FFF1FBB1F661F32
:1024E000771F881F91505040A9F79E3F510580F0FB
:1024F0000C94CC110C9417125F3FE4F3983ED4F384
:10250000869577956795B795F795E7959F5FC1F79E
:10251000FE2B880F911D9695879597F908959F93A7
:102520000E9499120F9007FCEE5F0C94C2120C945B
:10253000D2110E94FC11D8F3E894E0E0BB279F572A
:10254000F0F02AED3FE049EC06C0EE0FBB0F661F2E
:10255000771F881F28F0B23A62077307840728F0B4
:10256000B25A620B730B840BE3959A9572F780381D
:1025700030F49A95BB0F661F771F881FD2F79048DB
:102580000C94D812EF93E0FF07C0A2EA2AED3FE0D7
:1025900049EC5FEB0E9469100E94E3110F900394D5
:1025A00001FC9058E6E7F0E00C94E4129F3F31F014
:1025B000915020F4879577956795B795880F911D71
:1025C0009695879597F908959F938F937F936F932F
:1025D000FF93EF939B01AC010E942212EF91FF91B8
:1025E0000E94F8122F913F914F915F910C9422120B
:1025F000DF93CF931F930F93FF92EF92DF927B01B4
:102600008C01689406C0DA2EEF010E943512FE019B
:10261000E894A5912591359145915591A6F3EF0147
:102620000E946910FE019701A801DA9469F7DF9012
:10263000EF90FF900F911F91CF91DF91089597FB3D
:10264000072E16F4009407D077FD09D00E94581386
:1026500007FC05D03EF4909581959F4F08957095A5
:1026600061957F4F0895052E97FB1EF400940E94FC
:102670004A1357FD07D00E946C1307FC03D04EF499
:102680000C944A1350954095309521953F4F4F4FEC
:102690005F4F089590958095709561957F4F8F4F0E
:1026A0009F4F0895EE0FFF1F0590F491E02D0994C0
:1026B000AA1BBB1B51E107C0AA1FBB1FA617B70768
:1026C00010F0A61BB70B881F991F5A95A9F7809584
:1026D0009095BC01CD010895A1E21A2EAA1BBB1B47
:1026E000FD010DC0AA1FBB1FEE1FFF1FA217B307DE
:1026F000E407F50720F0A21BB30BE40BF50B661FF4
:10270000771F881F991F1A9469F7609570958095B7
:1027100090959B01AC01BD01CF010895F894FFCFC6
:10272000150800FF0000FFFF0000FF00000000FF91
:10273000FF000000FF00FF00FF00FFFFFF000000A0
:102740000000000000000000000000000000000089
:102750000000000000000000000000000000000079
:1027600000000705053207028204270725086209D1
:08277000490E8009C00B870D22
:00000001FF
