:100000000C9434000C9451000C9451000C94510049
:100010000C9451000C9451000C9451000C9451001C
:100020000C9451000C9451000C9451000C9451000C
:100030000C9451000C9451000C9451000C945100FC
:100040000C9451000C9451000C94F8000C94510045
:100050000C9451000C9451000C9451000C945100DC
:100060000C9451000C94510011241FBECFEFD4E02A
:10007000DEBFCDBF12E0A0E0B1E0EEE6F6E102C0E7
:1000800005900D92AC30B107D9F723E0ACE0B2E0B7
:1000900001C01D92A93BB207E1F70E9440010C94F8
:1000A000350B0C940000FC0120910E0230E04091D1
:1000B0000D0250E0421B530B0AF095C0539542309D
:1000C00051050CF48CC0D901A15FBD4F8C918F3FBD
:1000D000B9F409C03327D901A15FBD4F9C919F3F5F
:1000E00079F480930E0242505109D901A15FBD4FAE
:1000F00011968C9190E048175907A4F480E0089578
:100100002F5F3F4F307833232CF4215031093F6F5C
:100110002F5F3F4F822F4150510942305105D4F695
:1001200020930E0280910E0290E00196DC01A15F07
:10013000BD4F4C91907899231CF401979F6F0196C5
:100140008F5FA82FB0E080930E02BB27A15FBD4F49
:100150008C91808311968C911197818312968C914A
:100160008283642F70E06150710916161706C4F47B
:1001700080910E0220E030E090E0FC01E15FFD4F55
:100180005081450F0196907899231CF401979F6F39
:1001900001962F5F3F4F2617370774F380930E02A7
:1001A00080910E0290E0FC01E15FFD4F208124135D
:1001B0000BC00196907899231CF401979F6F0196CC
:1001C00080930E0281E008950196907899231CF4A3
:1001D00001979F6F019680930E0280E0089580E062
:1001E000089580E00895423051050CF06CCFF9CFAE
:1001F0001F920F920FB60F9211242F933F934F939C
:100200008F939F93EF93FF9320910D0230E0C901EC
:100210000196907899231CF401979F6F0196809323
:100220000C0240910E02481741F09091C600F9016E
:10023000E15FFD4F908380930D02FF91EF919F91BD
:100240008F914F913F912F910F900FBE0F901F9064
:1002500018959C0140E050E060E271EA87E090E090
:100260000E94E00A215031093093C5002093C40058
:1002700088E98093C10086E08093C2007894089555
:10028000CF93DF9300D01F92CDB7DEB73D9A459A4A
:10029000EFE0F3E08BEA93E0119211921192119248
:1002A000E817F907C9F780E096E90E9429010E9442
:1002B000820884E00E94620867E270E08FE093E0C9
:1002C0000E94840867E270E08FE093E00E94650876
:1002D000CE0101960E945300882379F08B3739F4C0
:1002E00021E041E061E080E00E94710806C02B81BE
:1002F0004A81698180E00E9471088FE19EE4019744
:10030000F1F700C00000D8CF2F923F924F925F923A
:100310006F927F928F929F92AF92BF92CF92DF9215
:10032000EF92FF920F931F93CF93DF93CDB7DEB77A
:1003300063970FB6F894DEBF0FBECDBFFC017F8779
:100340006E879091AE039F5F923018F49093AE0346
:10035000BFC11092AE032091AD0329878091AB03FA
:10036000482F50E08091AC03A82FB0E0BD87AC8748
:100370009D01220F331F220F331F1901B2E02B0EF4
:10038000311C2E0E3F1E2F5F3F4F4F01820E931EDA
:1003900000E010E0CA01880F991F880F991FFC0127
:1003A000E050FF4FFB87EA872C853D852F5F3F4F4D
:1003B000398B288B540141010F5F1F4FB801012E6B
:1003C000000C880B990B0E94D30920E030E040E735
:1003D00051E40E9430096B017C01398531119CC0C8
:1003E00088899989801B910B0AF46FC1AA85BB8506
:1003F0004D905D906D907C90A701960160E070E05B
:1004000080E89FE30E94C30869837A838B839C837F
:100410003B8A2A8AC301B2017727882799270E943D
:10042000D109A70196010E945F0A6D837E838F83A5
:100430009887F1016291FB8BEA8B70E080E090E09D
:100440000E94D3099B01AC0169817A818B819C81D7
:100450000E945F0A9B01AC016D817E818F8198852E
:100460000E94C4080E94A209AA89BB896C93652DC9
:1004700070E080E090E00E94D109A70196010E94FF
:100480005F0A6D837E838F839887F101608170E0BE
:1004900080E090E00E94D3099B01AC0169817A81E0
:1004A0008B819C810E945F0A9B01AC016D817E81E2
:1004B0008F8198850E94C4080E94A209D1016C9383
:1004C000F1013297FE83ED83662D70E080E090E0CD
:1004D0000E94D109A70196010E945F0A6B017C016D
:1004E000AD81BE816C9170E080E090E00E94D30904
:1004F0009B01AC0169817A818B819C810E945F0A9A
:100500009B01AC01C701B6010E94C4080E94A20968
:10051000ED81FE8160839AC08C859D85800F911F3F
:1005200001972E853F85821793070CF0CBC0A7015A
:10053000960160E070E080E89FE30E94C308698351
:100540007A838B839C83AA85BB854D905D906D904B
:100550007C90C301B2017727882799270E94D1098F
:10056000A70196010E945F0A6D837E838F8398871F
:10057000F501608170E080E090E00E94D3099B016A
:10058000AC0169817A818B819C810E945F0A9B0109
:10059000AC016D817E818F8198850E94C4080E9484
:1005A000A209D5016C93652D70E080E090E00E9477
:1005B000D109A70196010E945F0A6D837E838F8314
:1005C0009887F401608170E080E090E00E94D30998
:1005D0009B01AC0169817A818B819C810E945F0AB9
:1005E0009B01AC016D817E818F8198850E94C4083A
:1005F0000E94A209D4016C93BE82AD82662D70E088
:1006000080E090E00E94D109A70196010E945F0A54
:100610006B017C01F5016291FE83ED8370E080E067
:1006200090E00E94D3099B01AC0169817A818B81A2
:100630009C810E945F0A9B01AC01C701B6010E9428
:10064000C4080E94A209AD81BE816C93B4E02B1A4C
:100650003108E4E0AE0EB11CF4E08F0E911C0F30B7
:10066000110509F0A9CE2091AD03222331F080912C
:10067000AC0381508093AC0305C08091AC038F5FC5
:100680008093AC038091AC0390E04E855F85841726
:100690009507F4F08091AB0390E001966091000221
:1006A00070E00E94CC0A8093AB0381E0213009F412
:1006B00080E08093AD035E85859F802D112480931B
:1006C000AC0306C02091AD03D2CF2091AD03D5CFAE
:1006D00063960FB6F894DEBF0FBECDBFDF91CF910A
:1006E0001F910F91FF90EF90DF90CF90BF90AF9050
:1006F0009F908F907F906F905F904F903F902F9042
:1007000008952F923F924F925F926F927F928F92B5
:100710009F92AF92BF92CF92DF92EF92FF920F9390
:100720001F93CF93DF93CDB7DEB7A1970FB6F894A1
:10073000DEBF0FBECDBFAC019091B2039F5F923080
:1007400018F49093B203D1C21092B2032091B10376
:100750002D8B1091B0038091AF03282F30E0FB0167
:1007600077230CF431967F8F6E8FCA01AF015595B8
:1007700047955B8F4A8F612F70E0798F688FAB014F
:10078000440F551F440F551FBA016E5F7F4F3C0148
:10079000660E771E2E8C3F8C71E0271A3108A88DCB
:1007A000B98D2A1A3B0A220C331C220C331CB2E0EE
:1007B0002B0E311C280E391E4F5F5F4F4C01840EEB
:1007C000951E00E010E0C901880F991F880F991F3E
:1007D000FC01E050FF4FFF8BEE8B288D398D2F5F92
:1007E0003F4F3D8F2C8F5401430121010F5F1F4F5D
:1007F000B801012E000C880B990B0E94D30920E050
:1008000030E040E251E40E9430096D837E838F83A3
:1008100098873D893111F6C08C8D9D8D801B910B81
:100820000AF460C2AE89BF89CD90DD90ED90FC9056
:10083000C701B6017727882799270E94D1092D8102
:100840003E814F8158850E945F0A69877A878B872E
:100850009C872D813E814F81588560E070E080E863
:100860009FE30E94C30869837A838B839C83F3018F
:100870006291FE87ED8770E080E090E00E94D309EE
:100880009B01AC0169817A818B819C810E945F0A06
:100890009B01AC0169857A858B859C850E94C40883
:1008A0000E94A209AD85BE856C936D2D70E080E03D
:1008B00090E00E94D1092D813E814F8158850E9490
:1008C0005F0A6D877E878F87988BF301608170E068
:1008D00080E090E00E94D3099B01AC0169817A819C
:1008E0008B819C810E945F0A9B01AC016D857E8596
:1008F0008F8598890E94C4080E94A209D3016C9335
:100900006E2D70E080E090E00E94D1092D813E8143
:100910004F8158850E945F0A6B017C01F301329779
:10092000FE83ED83608170E080E090E00E94D30957
:100930009B01AC0169817A818B819C810E945F0A55
:100940009B01AC01C701B6010E94C4080E94A20924
:10095000AD81BE816C93F2016291FE83ED8370E004
:1009600080E090E00E94D3099B01AC0169817A810B
:100970008B819C810E945F0A9B01AC0169857A850D
:100980008B859C850E94C4080E94A209AD81BE810E
:100990006C93F201608170E080E090E00E94D309E6
:1009A0009B01AC0169817A818B819C810E945F0AE5
:1009B0009B01AC016D857E858F8598890E94C40856
:1009C0000E94A209D2016C93F2013297FE83ED835B
:1009D000608170E080E090E00E94D3099B01AC014F
:1009E00069817A818B819C810E945F0A9B01AC01A5
:1009F000C701B6010E94C4080E94A209AD81BE8150
:100A00006C931FC1888D998D800F911F0197EA8D7E
:100A1000FB8DE817F9070CF462C1AE89BF89CD9050
:100A2000DD90ED90FC90C701B601772788279927C4
:100A30000E94D1092D813E814F8158850E945F0A15
:100A400069877A878B879C872D813E814F81588566
:100A500060E070E080E89FE30E94C30869837A83C6
:100A60008B839C83F501608170E080E090E00E94C0
:100A7000D3099B01AC0169817A818B819C810E94A1
:100A80005F0A9B01AC0169857A858B859C850E94F4
:100A9000C4080E94A209D5016C932D2D30E040E0DE
:100AA00050E02D873E874F87588BCA01B9010E94BD
:100AB000D1092D813E814F8158850E945F0A698B43
:100AC0007A8B8B8B9C8BD4016C9170E080E090E0F2
:100AD0000E94D3099B01AC0169817A818B819C8141
:100AE0000E945F0A9B01AC0169897A898B899C8984
:100AF0000E94C4080E94A209F4016083B9A2A8A2BE
:100B00002E2D30E040E050E0298B3A8B4B8B5C8BF4
:100B1000CA01B9010E94D1092D813E814F815885BA
:100B20000E945F0A6B017C01D5016E91B9A3A8A355
:100B300070E080E090E00E94D3099B01AC016981E4
:100B40007A818B819C810E945F0A9B01AC01C70165
:100B5000B6010E94C4080E94A209E8A1F9A160831D
:100B6000D1016E917D0170E080E090E00E94D30998
:100B70009B01AC0169817A818B819C810E945F0A13
:100B80009B01AC0169857A858B859C850E94C40890
:100B90000E94A209F70160836D857E858F85988903
:100BA0000E94D1092D813E814F8158850E945F0AA4
:100BB0006B017C01D1016C9170E080E090E00E94BB
:100BC000D3099B01AC0169817A818B819C810E9450
:100BD0005F0A9B01AC01C701B6010E94C4080E94D4
:100BE000A209F10160839101225031093A872987D6
:100BF00069897A898B899C890E94D1092D813E81DE
:100C00004F8158850E945F0A6B017C01A985BA85D6
:100C10006C9170E080E090E00E94D3099B01AC01F0
:100C200069817A818B819C810E945F0A9B01AC0162
:100C3000C701B6010E94C4080E94A209E985FA858D
:100C40006083F4E06F1A710824E0420E511C34E016
:100C5000A30EB11C44E0840E911C54E0251A310807
:100C60000A30110509F0C2CD3091B103332331F0C0
:100C70008091B00381508093B00305C08091B00390
:100C80008F5F8093B0038091B00390E06A8D7B8D7D
:100C90008617970754F18091AF0390E00196609119
:100CA000000270E00E94CC0A8093AF0321E0313053
:100CB00009F420E02093B10330E0AE8DBF8D2A9F70
:100CC000C0012B9F900D3A9F900D112499230CF495
:100CD00001969595879581508093B00306C0309119
:100CE000B103C6CF3091B103C9CFA1960FB6F89426
:100CF000DEBF0FBECDBFDF91CF911F910F91FF904F
:100D0000EF90DF90CF90BF90AF909F908F907F90AB
:100D10006F905F904F903F902F9008954F925F9209
:100D20006F927F928F929F92AF92BF92CF92DF92FB
:100D3000FF920F931F93CF93DF936C01EB01F09021
:100D4000B5036F2D70E080E090E00E94D10920E0B3
:100D500030E048E452E40E9430094B015C011C166B
:100D60001D060CF048C0E091B403F0E0EE0FFF1F49
:100D7000EE0FFF1FE050FF4F408051806280738074
:100D8000C301B2017727882799270E94D109A501BD
:100D900094010E945F0A0E94A209062F652D70E04F
:100DA00080E090E00E94D109A50194010E945F0AB1
:100DB0000E94A209162F662D70E080E090E00E944C
:100DC000D109A50194010E945F0A0E94A209F601BF
:100DD0003296CC0FDD1FCC0FDD1F2296C6018C0F83
:100DE0009D1FDF0111970C93108311976C9334961C
:100DF000E817F907B1F78091B303811104C0F394A8
:100E0000F092B50303C0FA94F092B5038091B50354
:100E1000823330F091E09093B303882339F013C00C
:100E2000811111C08091B303882369F08091B403CC
:100E300090E001966091000270E00E94CC0A8093DD
:100E4000B4031092B303DF91CF911F910F91FF90E4
:100E5000DF90CF90BF90AF909F908F907F906F90DA
:100E60005F904F9008952F923F924F925F926F92B2
:100E70007F928F929F92AF92BF92CF92DF92EF922A
:100E8000FF920F931F93CF93DF93CDB7DEB72A97CF
:100E90000FB6F894DEBF0FBECDBF1C018B012091B1
:100EA000B7032A87622F70E080E090E00E94D109AA
:100EB00020E030E048E452E40E94300969837A83FC
:100EC0008B839C83101611060CF0B2C09B01AC0101
:100ED00060E070E080E89FE30E94C3086D837E833A
:100EE0008F8398878091B60390E0FC01EE0FFF1F7F
:100EF000EE0FFF1FE050FF4F80809180A280B380F3
:100F000001966091000270E00E94CC0AFC01EE0F95
:100F1000FF1FEE0FFF1FE050FF4FC080D180E28027
:100F2000F380C501B4017727882799270E94D1094A
:100F30009B01AC016D817E818F8198850E945F0A43
:100F40002B013C01C701B6017727882799270E940A
:100F5000D10929813A814B815C810E945F0A9B0102
:100F6000AC01C301B2010E94C4080E94A2096987B2
:100F7000692D70E080E090E00E94D1099B01AC01F6
:100F80006D817E818F8198850E945F0A2B013C01D3
:100F90006D2D70E080E090E00E94D10929813A81B6
:100FA0004B815C810E945F0A9B01AC01C301B201CD
:100FB0000E94C4080E94A209762E6A2D70E080E08B
:100FC00090E00E94D1099B01AC016D817E818F81EF
:100FD00098850E945F0A4B015C016E2D70E080E0F5
:100FE00090E00E94D10929813A814B815C810E9465
:100FF0005F0A9B01AC01C501B4010E94C4080E94B4
:10100000A209F1013296000F111F000F111F0E5F90
:101010001F4F200E311E9A858985DF0111978C9311
:10102000708211976C933496E215F305B1F79A87A5
:101030008A858F5F8093B703833368F08091B6030E
:1010400090E001966091000270E00E94CC0A8093CB
:10105000B6031092B7032A960FB6F894DEBF0FBE00
:10106000CDBFDF91CF911F910F91FF90EF90DF9057
:10107000CF90BF90AF909F908F907F906F905F9038
:101080004F903F902F9008950F931F9316161706B9
:10109000B4F40091000110910101209102013091FE
:1010A0000301FC01660F771F660F771F860F971FDE
:1010B0000193119321933193E817F907C9F71F9111
:1010C0000F9108958093B8030895E091B803F0E07C
:1010D000EE0FFF1FEF5FFD4F0190F081E02D0995AE
:1010E000089590910002891760F4E82FF0E0EE0F68
:1010F000FF1FEE0FFF1FE050FF4F208361834283ED
:1011000013820895539A08951F93CF93DF93DC01C0
:10111000EB011C161D0634F131C040815181628102
:101120007381022E04C076956795579547950A946A
:10113000D2F740FF07C05B9A5B9A5B9A5B9A5B9A17
:101140005B9806C05B9A5B985B985B985B985B9832
:101150002150310910F79F5F292F30E02C173D07F0
:1011600024F00CC090E017E180E0FD0124E0929FA4
:10117000E00DF11D1124212F382FCFCF1BB8DF91A7
:10118000CF911F9108955058BB27AA270E94DB08D2
:101190000C94250A0E94170A38F00E941E0A20F0BB
:1011A00039F49F3F19F426F40C94140A0EF4E095D8
:1011B000E7FB0C940E0AE92F0E94360A58F3BA177F
:1011C000620773078407950720F079F4A6F50C945D
:1011D000580A0EF4E0950B2EBA2FA02D0B01B90181
:1011E00090010C01CA01A0011124FF27591B99F09D
:1011F000593F50F4503E68F11A16F040A22F232FA9
:10120000342F4427585FF3CF469537952795A795F8
:10121000F0405395C9F77EF41F16BA0B620B730B9F
:10122000840BBAF09150A1F0FF0FBB1F661F771F10
:10123000881FC2F70EC0BA0F621F731F841F48F4C5
:10124000879577956795B795F7959E3F08F0B0CF4E
:101250009395880F08F09927EE0F97958795089535
:101260000E9444090C94250A0E941E0A58F00E940C
:10127000170A40F029F45F3F29F00C940E0A51112F
:101280000C94590A0C94140A0E94360A68F39923A4
:10129000B1F3552391F3951B550BBB27AA27621772
:1012A0007307840738F09F5F5F4F220F331F441F7F
:1012B000AA1FA9F335D00E2E3AF0E0E832D09150B3
:1012C0005040E695001CCAF72BD0FE2F29D0660FA0
:1012D000771F881FBB1F261737074807AB07B0E8E3
:1012E00009F0BB0B802DBF01FF2793585F4F3AF0E9
:1012F0009E3F510578F00C940E0A0C94590A5F3FFA
:10130000E4F3983ED4F3869577956795B795F7956E
:101310009F5FC9F7880F911D9695879597F9089556
:10132000E1E0660F771F881FBB1F621773078407F2
:10133000BA0720F0621B730B840BBA0BEE1F88F701
:10134000E09508950E943E0A88F09F5798F0B92FC3
:101350009927B751B0F0E1F0660F771F881F991FEA
:101360001AF0BA95C9F714C0B13091F00E94580A2A
:10137000B1E008950C94580A672F782F8827B85F3A
:1013800039F0B93FCCF3869577956795B395D9F742
:101390003EF490958095709561957F4F8F4F9F4F4C
:1013A0000895E89409C097FB3EF490958095709558
:1013B00061957F4F8F4F9F4F9923A9F0F92F96E9A1
:1013C000BB279395F695879577956795B795F11116
:1013D000F8CFFAF4BB0F11F460FF1BC06F5F7F4FB3
:1013E0008F4F9F4F16C0882311F096E911C07723C5
:1013F00021F09EE8872F762F05C0662371F096E8CE
:10140000862F70E060E02AF09A95660F771F881F9C
:10141000DAF7880F9695879597F9089597F99F675A
:1014200080E870E060E008959FEF80EC089500246C
:101430000A941616170618060906089500240A9439
:1014400012161306140605060895092E0394000CBF
:1014500011F4882352F0BB0F40F4BF2B11F460FF4E
:1014600004C06F5F7F4F8F4F9F4F089557FD905877
:10147000440F551F59F05F3F71F04795880F97FB58
:10148000991F61F09F3F79F0879508951216130612
:101490001406551FF2CF4695F1DF08C01616170641
:1014A0001806991FF1CF8695710561050894089576
:1014B000E894BB2766277727CB0197F908950E9408
:1014C000720A0C94250A0E94170A38F00E941E0A1C
:1014D00020F0952311F00C940E0A0C94140A112498
:1014E0000C94590A0E94360A70F3959FC1F3950F28
:1014F00050E0551F629FF001729FBB27F00DB11D98
:10150000639FAA27F00DB11DAA1F649F6627B00D27
:10151000A11D661F829F2227B00DA11D621F739F10
:10152000B00DA11D621F839FA00D611D221F749F1E
:101530003327A00D611D231F849F600D211D822F65
:10154000762F6A2F11249F5750409AF0F1F088238C
:101550004AF0EE0FFF1FBB1F661F771F881F9150B9
:101560005040A9F79E3F510580F00C940E0A0C9450
:10157000590A5F3FE4F3983ED4F3869577956795D3
:10158000B795F795E7959F5FC1F7FE2B880F911DE3
:101590009695879597F9089597FB072E16F4009472
:1015A00007D077FD09D00E94FF0A07FC05D03EF462
:1015B000909581959F4F0895709561957F4F0895FF
:1015C000052E97FB1EF400940E94F70A57FD07D0E2
:1015D0000E94130B07FC03D04EF40C94F70A5095AD
:1015E0004095309521953F4F4F4F5F4F089590950F
:1015F0008095709561957F4F8F4F9F4F0895AA1BDF
:10160000BB1B51E107C0AA1FBB1FA617B70710F0ED
:10161000A61BB70B881F991F5A95A9F7809590951F
:10162000BC01CD010895A1E21A2EAA1BBB1BFD012E
:101630000DC0AA1FBB1FEE1FFF1FA217B307E407B1
:10164000F50720F0A21BB30BE40BF50B661F771F09
:10165000881F991F1A9469F76095709580959095E9
:0E1660009B01AC01BD01CF010895F894FFCFAE
:10166E000000FF0000FF0000FF00000000FFFF0071
:10167E00FF00FF00FFFF0000FFFFFF000000000063
:10168E00000000000000000000000000000000004C
:10169E00000000000000000000000000000000003C
:1016AE00000000000000000000000000000000002C
:1016BE00000000000000000000000000000000001C
:1016CE00000000000000000000000000000000000C
:1016DE0000000000000000000000000000000000FC
:1016EE0000000000000000000000000000000000EC
:1016FE0000000000000000000000000000000000DC
:10170E0000000000000000000000000000000000CB
:10171E0000000000000000000000000000000000BB
:10172E0000000000000000000000000000000000AB
:10173E00000000000000000000000000000000009B
:10174E00000000000000000000000000000000008B
:10175E00000000000000000000000000000000007B
:0C176E0007840181038E06330744080045
:00000001FF
