:100000000C9434000C9451000C9451000C94510049
:100010000C9451000C9451000C9451000C9451001C
:100020000C9451000C9451000C9451000C9451000C
:100030000C9451000C9451000C9451000C945100FC
:100040000C9451000C9451000C9453000C945100EA
:100050000C9451000C9451000C9451000C945100DC
:100060000C9451000C94510011241FBECFEFD4E02A
:10007000DEBFCDBF11E0A0E0B1E0ECE9F5E102C0E8
:1000800005900D92AC32B107D9F724E0ACE2B1E0B3
:1000900001C01D92AD35B207E1F70E94E0000C945B
:1000A000CC0A0C9400001F920F920FB60F921124ED
:1000B0002F933F935F936F937F938F939F93AF9310
:1000C000BF93EF93FF9320912D0130E0C90101967A
:1000D00064E872E00E94630A80932C0190912E01E3
:1000E000981741F09091C600F901E15DFE4F9083B1
:1000F00080932D01FF91EF91BF91AF919F918F91CF
:100100007F916F915F913F912F910F900FBE0F9054
:100110001F90189540912E0150E020912D0130E064
:10012000241B350B12F42C573D4F263031054CF172
:10013000FA01E15DFE4F2181211125C0FA01E15D47
:10014000FE4F2381211121C0FA01E15DFE4F25817F
:1001500021111DC0FA01E15DFE4F2081DC012C93CD
:10016000228111962C931197248112962C93CA0107
:10017000069664E872E00E94630A80932E0181E093
:10018000089580E0089580E0089580E0089580E07B
:1001900008959C0140E050E060E271EA87E090E061
:1001A0000E94770A215031093093C5002093C40082
:1001B00088E98093C10086E08093C2007894089516
:1001C000CF93DF9300D01F92CDB7DEB73D9A459A0B
:1001D000E3EBF3E08FE494E011921192119211920B
:1001E000E817F907C9F780E096E90E94C9000E9464
:1001F000190884E00E94F90767E270E083EB93E05E
:100200000E941B0867E270E083EB93E00E94FC070A
:10021000CE0101960E948A00882331F02B814A8109
:10022000698180E00E9408088FE19EE40197F1F760
:1002300000C00000E1CF2F923F924F925F926F92E9
:100240007F928F929F92AF92BF92CF92DF92EF9266
:10025000FF920F931F93CF93DF93CDB7DEB76397D2
:100260000FB6F894DEBF0FBECDBFFC017F876E874F
:10027000909152049F5F923018F490935204BFC142
:100280001092520420915104298780914F04482FE5
:1002900050E080915004A82FB0E0BD87AC879D014D
:1002A000220F331F220F331F1901B2E02B0E311C16
:1002B0002E0E3F1E2F5F3F4F4F01820E931E00E018
:1002C00010E0CA01880F991F880F991FFC01E050A8
:1002D000FF4FFB87EA872C853D852F5F3F4F398B8A
:1002E000288B540141010F5F1F4FB801012E000CF4
:1002F000880B990B0E946A0920E030E040E751E446
:100300000E94C7086B017C01398531119CC0888926
:100310009989801B910B0AF46FC1AA85BB854D900A
:100320005D906D907C90A701960160E070E080E8A0
:100330009FE30E945A0869837A838B839C833B8A5C
:100340002A8AC301B2017727882799270E94680962
:10035000A70196010E94F6096D837E838F8398879B
:10036000F1016291FB8BEA8B70E080E090E00E94EB
:100370006A099B01AC0169817A818B819C810E9411
:10038000F6099B01AC016D817E818F8198850E9469
:100390005B080E943909AA89BB896C93652D70E0BE
:1003A00080E090E00E946809A70196010E94F6098A
:1003B0006D837E838F839887F101608170E080E098
:1003C00090E00E946A099B01AC0169817A818B816E
:1003D0009C810E94F6099B01AC016D817E818F8119
:1003E00098850E945B080E943909D1016C93F10144
:1003F0003297FE83ED83662D70E080E090E00E94EE
:100400006809A70196010E94F6096B017C01AD8184
:10041000BE816C9170E080E090E00E946A099B01CF
:10042000AC0169817A818B819C810E94F6099B01D4
:10043000AC01C701B6010E945B080E943909ED8139
:10044000FE8160839AC08C859D85800F911F0197E6
:100450002E853F85821793070CF0CBC0A70196012C
:1004600060E070E080E89FE30E945A0869837A8325
:100470008B839C83AA85BB854D905D906D907C900D
:10048000C301B2017727882799270E946809A7012D
:1004900096010E94F6096D837E838F839887F5010C
:1004A000608170E080E090E00E946A099B01AC01ED
:1004B00069817A818B819C810E94F6099B01AC0144
:1004C0006D817E818F8198850E945B080E94390929
:1004D000D5016C93652D70E080E090E00E94680982
:1004E000A70196010E94F6096D837E838F8398870A
:1004F000F401608170E080E090E00E946A099B0155
:10050000AC0169817A818B819C810E94F6099B01F3
:10051000AC016D817E818F8198850E945B080E946D
:100520003909D4016C93BE82AD82662D70E080E003
:1005300090E00E946809A70196010E94F6096B01EC
:100540007C01F5016291FE83ED8370E080E090E034
:100550000E946A099B01AC0169817A818B819C812F
:100560000E94F6099B01AC01C701B6010E945B081D
:100570000E943909AD81BE816C93B4E02B1A310819
:10058000E4E0AE0EB11CF4E08F0E911C0F301105AB
:1005900009F0A9CE20915104222331F0809150041A
:1005A00081508093500405C0809150048F5F8093E8
:1005B00050048091500490E04E855F858417950724
:1005C000F4F080914F0490E001966091200170E07A
:1005D0000E94630A80934F0481E0213009F480E097
:1005E000809351045E85859F802D11248093500453
:1005F00006C020915104D2CF20915104D5CF6396EB
:100600000FB6F894DEBF0FBECDBFDF91CF911F9123
:100610000F91FF90EF90DF90CF90BF90AF909F90A1
:100620008F907F906F905F904F903F902F900895A4
:100630002F923F924F925F926F927F928F929F92F2
:10064000AF92BF92CF92DF92EF92FF920F931F93E0
:10065000CF93DF93CDB7DEB7A1970FB6F894DEBF87
:100660000FBECDBFAC01909156049F5F923018F43D
:1006700090935604D1C210925604209155042D8BAC
:100680001091540480915304282F30E0FB0177230C
:100690000CF431967F8F6E8FCA01AF015595479547
:1006A0005B8F4A8F612F70E0798F688FAB01440FA9
:1006B000551F440F551FBA016E5F7F4F3C01660EF8
:1006C000771E2E8C3F8C71E0271A3108A88DB98DCA
:1006D0002A1A3B0A220C331C220C331CB2E02B0ECC
:1006E000311C280E391E4F5F5F4F4C01840E951E42
:1006F00000E010E0C901880F991F880F991FFC01C5
:10070000E050FF4FFF8BEE8B288D398D2F5F3F4FD1
:100710003D8F2C8F5401430121010F5F1F4FB80102
:10072000012E000C880B990B0E946A0920E030E032
:1007300040E251E40E94C7086D837E838F839887CF
:100740003D893111F6C08C8D9D8D801B910B0AF473
:1007500060C2AE89BF89CD90DD90ED90FC90C7015D
:10076000B6017727882799270E9468092D813E8145
:100770004F8158850E94F60969877A878B879C8705
:100780002D813E814F81588560E070E080E89FE3D5
:100790000E945A0869837A838B839C83F301629158
:1007A000FE87ED8770E080E090E00E946A099B017F
:1007B000AC0169817A818B819C810E94F6099B0141
:1007C000AC0169857A858B859C850E945B080E94B7
:1007D0003909AD85BE856C936D2D70E080E090E0A9
:1007E0000E9468092D813E814F8158850E94F6093B
:1007F0006D877E878F87988BF301608170E080E042
:1008000090E00E946A099B01AC0169817A818B8129
:100810009C810E94F6099B01AC016D857E858F85C8
:1008200098890E945B080E943909D3016C936E2D50
:1008300070E080E090E00E9468092D813E814F8148
:1008400058850E94F6096B017C01F3013297FE8303
:10085000ED83608170E080E090E00E946A099B0176
:10086000AC0169817A818B819C810E94F6099B0190
:10087000AC01C701B6010E945B080E943909AD8135
:10088000BE816C93F2016291FE83ED8370E080E0A3
:1008900090E00E946A099B01AC0169817A818B8199
:1008A0009C810E94F6099B01AC0169857A858B8544
:1008B0009C850E945B080E943909AD81BE816C93C2
:1008C000F201608170E080E090E00E946A099B0183
:1008D000AC0169817A818B819C810E94F6099B0120
:1008E000AC016D857E858F8598890E945B080E948A
:1008F0003909D2016C93F2013297FE83ED83608156
:1009000070E080E090E00E946A099B01AC0169817F
:100910007A818B819C810E94F6099B01AC01C70101
:10092000B6010E945B080E943909AD81BE816C93BB
:100930001FC1888D998D800F911F0197EA8DFB8DC6
:10094000E817F9070CF462C1AE89BF89CD90DD903C
:10095000ED90FC90C701B6017727882799270E9460
:1009600068092D813E814F8158850E94F60969876B
:100970007A878B879C872D813E814F81588560E0E7
:1009800070E080E89FE30E945A0869837A838B8332
:100990009C83F501608170E080E090E00E946A092C
:1009A0009B01AC0169817A818B819C810E94F6094F
:1009B0009B01AC0169857A858B859C850E945B08CB
:1009C0000E943909D5016C932D2D30E040E050E0B4
:1009D0002D873E874F87588BCA01B9010E9468094D
:1009E0002D813E814F8158850E94F609698B7A8B53
:1009F0008B8B9C8BD4016C9170E080E090E00E9426
:100A00006A099B01AC0169817A818B819C810E947A
:100A1000F6099B01AC0169897A898B899C890E94BE
:100A20005B080E943909F4016083B9A2A8A22E2DA7
:100A300030E040E050E0298B3A8B4B8B5C8BCA0155
:100A4000B9010E9468092D813E814F8158850E941D
:100A5000F6096B017C01D5016E91B9A3A8A370E0E2
:100A600080E090E00E946A099B01AC0169817A8173
:100A70008B819C810E94F6099B01AC01C701B601E4
:100A80000E945B080E943909E8A1F9A16083D101A5
:100A90006E917D0170E080E090E00E946A099B0108
:100AA000AC0169817A818B819C810E94F6099B014E
:100AB000AC0169857A858B859C850E945B080E94C4
:100AC0003909F70160836D857E858F8598890E943D
:100AD00068092D813E814F8158850E94F6096B017E
:100AE0007C01D1016C9170E080E090E00E946A0985
:100AF0009B01AC0169817A818B819C810E94F609FE
:100B00009B01AC01C701B6010E945B080E94390934
:100B1000F10160839101225031093A87298769895F
:100B20007A898B899C890E9468092D813E814F8139
:100B300058850E94F6096B017C01A985BA856C91E4
:100B400070E080E090E00E946A099B01AC0169813D
:100B50007A818B819C810E94F6099B01AC01C701BF
:100B6000B6010E945B080E943909E985FA85608315
:100B7000F4E06F1A710824E0420E511C34E0A30E19
:100B8000B11C44E0840E911C54E0251A31080A304F
:100B9000110509F0C2CD30915504332331F0809115
:100BA000540481508093540405C0809154048F5F95
:100BB000809354048091540490E06A8D7B8D861755
:100BC000970754F18091530490E0019660912001C1
:100BD00070E00E94630A8093530421E0313009F4ED
:100BE00020E02093550430E0AE8DBF8D2A9FC001D8
:100BF0002B9F900D3A9F900D112499230CF4019690
:100C00009595879581508093540406C03091550482
:100C1000C6CF30915504C9CFA1960FB6F894DEBF68
:100C20000FBECDBFDF91CF911F910F91FF90EF903D
:100C3000DF90CF90BF90AF909F908F907F906F90FC
:100C40005F904F903F902F9008954F925F926F92D8
:100C50007F928F929F92AF92BF92CF92DF92FF923C
:100C60000F931F93CF93DF936C01EB01F090590426
:100C70006F2D70E080E090E00E94680920E030E095
:100C800048E452E40E94C7084B015C011C161D0693
:100C90000CF048C0E0915804F0E0EE0FFF1FEE0F9B
:100CA000FF1FE050FF4F4080518062807380C3017E
:100CB000B2017727882799270E946809A501940126
:100CC0000E94F6090E943909062F652D70E080E028
:100CD00090E00E946809A50194010E94F6090E9413
:100CE0003909162F662D70E080E090E00E946809B7
:100CF000A50194010E94F6090E943909F601329675
:100D0000CC0FDD1FCC0FDD1F2296C6018C0F9D1F5F
:100D1000DF0111970C93108311976C933496E817A9
:100D2000F907B1F780915704811104C0F394F09250
:100D3000590403C0FA94F092590480915904823303
:100D400030F091E090935704882339F013C081115B
:100D500011C080915704882369F08091580490E075
:100D600001966091200170E00E94630A809358040C
:100D700010925704DF91CF911F910F91FF90DF9058
:100D8000CF90BF90AF909F908F907F906F905F902B
:100D90004F9008952F923F924F925F926F927F9261
:100DA0008F929F92AF92BF92CF92DF92EF92FF927B
:100DB0000F931F93CF93DF93CDB7DEB72A970FB66C
:100DC000F894DEBF0FBECDBF1C018B0120915B04E8
:100DD0002A87622F70E080E090E00E94680920E09E
:100DE00030E048E452E40E94C70869837A838B8329
:100DF0009C83101611060CF0B2C09B01AC0160E0A0
:100E000070E080E89FE30E945A086D837E838F83A1
:100E1000988780915A0490E0FC01EE0FFF1FEE0FBF
:100E2000FF1FE050FF4F80809180A280B380019629
:100E30006091200170E00E94630AFC01EE0FFF1F29
:100E4000EE0FFF1FE050FF4FC080D180E280F380A3
:100E5000C501B4017727882799270E9468099B015B
:100E6000AC016D817E818F8198850E94F6092B01EE
:100E70003C01C701B6017727882799270E94680996
:100E800029813A814B815C810E94F6099B01AC016A
:100E9000C301B2010E945B080E9439096987692D6C
:100EA00070E080E090E00E9468099B01AC016D81D8
:100EB0007E818F8198850E94F6092B013C016D2D62
:100EC00070E080E090E00E94680929813A814B81BE
:100ED0005C810E94F6099B01AC01C301B2010E9432
:100EE0005B080E943909762E6A2D70E080E090E060
:100EF0000E9468099B01AC016D817E818F8198857C
:100F00000E94F6094B015C016E2D70E080E090E0DC
:100F10000E94680929813A814B815C810E94F6090F
:100F20009B01AC01C501B4010E945B080E94390914
:100F3000F1013296000F111F000F111F0E5F1F4F9E
:100F4000200E311E9A858985DF0111978C9370825E
:100F500011976C933496E215F305B1F79A878A8559
:100F60008F5F80935B04833368F080915A0490E034
:100F700001966091200170E00E94630A80935A04F8
:100F800010925B042A960FB6F894DEBF0FBECDBF59
:100F9000DF91CF911F910F91FF90EF90DF90CF9055
:100FA000BF90AF909F908F907F906F905F904F9089
:100FB0003F902F9008950F931F9316161706B4F4C1
:100FC0000091000110910101209102013091030173
:100FD000FC01660F771F660F771F860F971F01931F
:100FE000119321933193E817F907C9F71F910F91D6
:100FF000089580935C040895E0915C04F0E0EE0FA6
:10100000FF1FEF5DFE4F0190F081E02D09950895DF
:1010100090912001891760F4E82FF0E0EE0FFF1F98
:10102000EE0FFF1FE050FF4F208361834283138246
:101030000895539A08951F93CF93DF93DC01EB013A
:101040001C161D0634F131C04081518162817381CB
:10105000022E04C076956795579547950A94D2F766
:1010600040FF07C05B9A5B9A5B9A5B9A5B9A5B98BE
:1010700006C05B9A5B985B985B985B985B98215085
:10108000310910F79F5F292F30E02C173D0724F01E
:101090000CC090E017E180E0FD0124E0929FE00D9C
:1010A000F11D1124212F382FCFCF1BB8DF91CF9105
:1010B0001F9108955058BB27AA270E9472080C94CC
:1010C000BC090E94AE0938F00E94B50920F039F43D
:1010D0009F3F19F426F40C94AB090EF4E095E7FB5E
:1010E0000C94A509E92F0E94CD0958F3BA1762079D
:1010F00073078407950720F079F4A6F50C94EF099F
:101100000EF4E0950B2EBA2FA02D0B01B901900122
:101110000C01CA01A0011124FF27591B99F0593F66
:1011200050F4503E68F11A16F040A22F232F342FAE
:101130004427585FF3CF469537952795A795F040FC
:101140005395C9F77EF41F16BA0B620B730B840B11
:10115000BAF09150A1F0FF0FBB1F661F771F881FC9
:10116000C2F70EC0BA0F621F731F841F48F4879521
:1011700077956795B795F7959E3F08F0B0CF939513
:10118000880F08F09927EE0F9795879508950E948C
:10119000DB080C94BC090E94B50958F00E94AE0906
:1011A00040F029F45F3F29F00C94A50951110C94EB
:1011B000F0090C94AB090E94CD0968F39923B1F3AF
:1011C000552391F3951B550BBB27AA27621773076D
:1011D000840738F09F5F5F4F220F331F441FAA1F01
:1011E000A9F335D00E2E3AF0E0E832D091505040BD
:1011F000E695001CCAF72BD0FE2F29D0660F771F6B
:10120000881FBB1F261737074807AB07B0E809F050
:10121000BB0B802DBF01FF2793585F4F3AF09E3FD5
:10122000510578F00C94A5090C94F0095F3FE4F3A4
:10123000983ED4F3869577956795B795F7959F5F18
:10124000C9F7880F911D9695879597F90895E1E064
:10125000660F771F881FBB1F621773078407BA07C3
:1012600020F0621B730B840BBA0BEE1F88F7E0951E
:1012700008950E94D50988F09F5798F0B92F9927B3
:10128000B751B0F0E1F0660F771F881F991F1AF071
:10129000BA95C9F714C0B13091F00E94EF09B1E0DE
:1012A00008950C94EF09672F782F8827B85F39F0DD
:1012B000B93FCCF3869577956795B395D9F73EF40A
:1012C00090958095709561957F4F8F4F9F4F0895B2
:1012D000E89409C097FB3EF49095809570956195D0
:1012E0007F4F8F4F9F4F9923A9F0F92F96E9BB2786
:1012F0009395F695879577956795B795F111F8CF02
:10130000FAF4BB0F11F460FF1BC06F5F7F4F8F4F6C
:101310009F4F16C0882311F096E911C0772321F062
:101320009EE8872F762F05C0662371F096E8862FFA
:1013300070E060E02AF09A95660F771F881FDAF751
:10134000880F9695879597F9089597F99F6780E894
:1013500070E060E008959FEF80EC089500240A9407
:101360001616170618060906089500240A94121680
:101370001306140605060895092E0394000C11F4B3
:10138000882352F0BB0F40F4BF2B11F460FF04C060
:101390006F5F7F4F8F4F9F4F089557FD9058440FB9
:1013A000551F59F05F3F71F04795880F97FB991FC4
:1013B00061F09F3F79F08795089512161306140681
:1013C000551FF2CF4695F1DF08C01616170618060E
:1013D000991FF1CF86957105610508940895E894E9
:1013E000BB2766277727CB0197F908950E94090A42
:1013F0000C94BC090E94AE0938F00E94B50920F097
:10140000952311F00C94A5090C94AB0911240C94AC
:10141000F0090E94CD0970F3959FC1F3950F50E03C
:10142000551F629FF001729FBB27F00DB11D639F96
:10143000AA27F00DB11DAA1F649F6627B00DA11D3C
:10144000661F829F2227B00DA11D621F739FB00DE2
:10145000A11D621F839FA00D611D221F749F332752
:10146000A00D611D231F849F600D211D822F762FEB
:101470006A2F11249F5750409AF0F1F088234AF0C8
:10148000EE0FFF1FBB1F661F771F881F9150504034
:10149000A9F79E3F510580F00C94A5090C94F00922
:1014A0005F3FE4F3983ED4F3869577956795B795BB
:1014B000F795E7959F5FC1F7FE2B880F911D9695D5
:1014C000879597F9089597FB072E16F4009407D097
:1014D00077FD09D00E94960A07FC05D03EF490954E
:1014E00081959F4F0895709561957F4F0895052EC2
:1014F00097FB1EF400940E948E0A57FD07D00E94AD
:10150000AA0A07FC03D04EF40C948E0A509540951D
:10151000309521953F4F4F4F5F4F0895909580959F
:10152000709561957F4F8F4F9F4F0895AA1BBB1BEE
:1015300051E107C0AA1FBB1FA617B70710F0A61BD3
:10154000B70B881F991F5A95A9F780959095BC01F4
:10155000CD010895A1E21A2EAA1BBB1BFD010DC0EF
:10156000AA1FBB1FEE1FFF1FA217B307E407F50753
:1015700020F0A21BB30BE40BF50B661F771F881F2F
:10158000991F1A9469F760957095809590959B01C5
:0C159000AC01BD01CF010895F894FFCF1D
:10159C000000FF0000FF0000FF00000000FFFF0044
:1015AC00FF00FF00FFFF0000FFFFFF000000000036
:0C15BC00071B0118032506CA06DB070008
:00000001FF
