:100000000C944A000C9467000C9467000C946700F1
:100010000C9467000C9467000C9467000C946700C4
:100020000C9467000C9467000C9467000C946700B4
:100030000C9467000C9467000C9467000C946700A4
:100040000C9467000C9467000C9435010C946700C5
:100050000C9467000C9467000C9467000C94670084
:100060000C9467000C946700C101BD01E201EE0130
:10007000E601EA01F20105A84CCDB2D44EB93836FA
:10008000A9020C50B9918688083CA6AAAA2ABE00EB
:100090000000803F11241FBECFEFD4E0DEBFCDBFF4
:1000A00011E0A0E0B1E0EAEBF5E202C005900D92AC
:1000B000A635B107D9F723E0A6E5B1E001C01D924E
:1000C000A23EB207E1F70E947E010C94DB120C9471
:1000D0000000CF93DF93DC014091570180915801DC
:1000E00050E0481B51090AF0B8C040585F4F4230F9
:1000F00051050CF4ACC0E0915801EF77F0E0E75AFD
:10010000FE4F80818F3FC1F409C0E0915801EF7725
:10011000F0E0E75AFE4F90819F3F71F4E091580163
:10012000F0E0E65AFE4F80814250510990E04817B6
:100130005907C4F480E096C02091580130E02F5F49
:100140003F4F2F773078332334F421503109206822
:100150003F6F2F5F3F4F209358014150510942306C
:1001600051059CF6E0915801F0E0E65AFE4F4081BF
:10017000242F30E08091580190E001968F7790789D
:10018000992324F4019780689F6F0196809358010A
:100190008091580190E001968F779078992324F40C
:1001A000019780689F6F01968093580170E06217F5
:1001B00073070CF44EC01216130604F5ED01A40FDC
:1001C000B11DE0915801EF77F0E0E75AFE4F9081C2
:1001D000490F99932091580130E02F5F3F4F2F77BF
:1001E0003078332334F42150310920683F6F2F5F7A
:1001F0003F4F20935801CA17DB0719F7E0915801C8
:10020000EF77F0E0E75AFE4F8081841310C08091B1
:10021000580190E001968F779078992324F4019704
:1002200080689F6F01968093580181E01BC0809188
:10023000580190E001968F779078992324F40197E4
:1002400080689F6F01968093580180E00BC080E02A
:1002500009C080E007C080E005C0423051050CF0C5
:100260004ACFF9CFDF91CF9108951F920F920FB629
:100270000F9211248F939F93EF93FF9380915701D7
:1002800090E001968F779078992324F40197806805
:100290009F6F01968093560190915601809158016D
:1002A000981761F0E0915701F0E08091C600E75A9D
:1002B000FE4F80838091560180935701FF91EF910B
:1002C0009F918F910F900FBE0F901F9018959C01DA
:1002D00040E050E060E271EA87E090E00E94801226
:1002E000215031093093C5002093C40088E98093E0
:1002F000C10086E08093C20078940895CF93DF9385
:10030000CDB7DEB7E2970FB6F894DEBF0FBECDBF14
:10031000E9EDF1E089EB93E01192119211921192C3
:10032000E817F907C9F780E096E90E9467010E9483
:10033000640FC12CD12C6091000170E089ED91E037
:100340000E94660F6091000170E089ED91E00E94CB
:10035000470F62E3CE0101960E946900882309F4E9
:100360004DC0E9818E2F90E08730910508F046C09E
:10037000FC01EC5CFF4F0C949F128A81811105C037
:100380003DC08A810E942F0F39C08E010B5F1F4F25
:10039000EC2CFD2C8FEFE81AF80AD8011197C80150
:1003A0000297F80120814C91FC0160818FEF8E0D46
:1003B0000E94530F0D5F1F4F8A8190E0E816F906E7
:1003C0004CF31CC08A810E94320F18C08A810E949F
:1003D0003B0F14C08A810E94440F10C08A81809311
:1003E00000010CC08A810E942F0F8B810E94320F66
:1003F0008C810E943B0F8D810E94440F8FE99FE00A
:100400000197F1F700C0000096CF2F923F924F92D4
:100410005F926F927F928F929F92AF92BF92CF9294
:10042000DF92EF92FF920F931F93CF93DF93CDB79D
:10043000DEB767970FB6F894DEBF0FBECDBFFC01E5
:100440005B01809044012091BC032F5F2093BC038B
:1004500030E06091450170E084E690E00E946C120B
:10046000261737070CF4F2C11092BC034091BB036E
:100470004D878091B903482F50E02091BA03022E96
:10048000000C330B1901220C331C220C331C82E0AC
:10049000280E311C2E0E3F1E912C00E010E0C401EE
:1004A000092C000CAA0BBB0B8E879F87A88BB98BDE
:1004B000290191E0491A5108CA01880F991F880F34
:1004C000991FDC01AE5FBE4FBD8BAC8BF90131963D
:1004D000FB8BEA8BC40141019201250159013C01CA
:1004E00077C10F5F1F4FB801012E000C880B990BCD
:1004F0000E94BA106B017C016E857F85888999897D
:100500000E94BA109B01AC01C701B6010E941710EE
:100510009B01AC010E946F1169837A838B839C835A
:10052000FD85F111A8C08A899B89801B910B0AF473
:1005300049C1841595050CF045C1AC89BD89CD90A4
:10054000DD90ED90FC9029813A814B815C8160E0E7
:1005500070E080E89FE30E94A50F6D837E838F8308
:1005600098879F8A8E8AC701B6017727882799279F
:100570000E94B81029813A814B815C810E946F11E1
:1005800069877A878B879C87F4016291FF8BEE8B5A
:1005900070E080E090E00E94BA109B01AC016D8198
:1005A0007E818F8198850E946F119B01AC016985C6
:1005B0007A858B859C850E94A60F0E948910AE8942
:1005C000BF896C936D2D70E080E090E00E94B810C0
:1005D00029813A814B815C810E946F1169877A87FA
:1005E0008B879C87F401608170E080E090E00E943E
:1005F000BA109B01AC016D817E818F8198850E942C
:100600006F119B01AC0169857A858B859C850E9461
:10061000A60F0E948910D4016C93F4013297FA87D7
:10062000E9876E2D70E080E090E00E94B81029818B
:100630003A814B815C810E946F116B017C01A9851D
:10064000BA856C9170E080E090E00E94BA109B0146
:10065000AC016D817E818F8198850E946F119B0115
:10066000AC01C701B6010E94A60F0E948910E9855E
:10067000FA856083A7C0C501800F911F8415950579
:100680000CF0A0C099230CF49DC0AC89BD89CD901D
:10069000DD90ED90FC9029813A814B815C8160E096
:1006A00070E080E89FE30E94A50F6D837E838F83B7
:1006B00098873F8A2E8AC701B6017727882799270E
:1006C0000E94B81029813A814B815C810E946F1190
:1006D00069877A878B879C87F1016291FF8BEE8B0C
:1006E00070E080E090E00E94BA109B01AC016D8147
:1006F0007E818F8198850E946F119B01AC01698575
:100700007A858B859C850E94A60F0E948910AE89F0
:10071000BF896C936D2D70E080E090E00E94B8106E
:1007200029813A814B815C810E946F1169877A87A8
:100730008B879C87F101608170E080E090E00E94EF
:10074000BA109B01AC016D817E818F8198850E94DA
:100750006F119B01AC0169857A858B859C850E9410
:10076000A60F0E948910D1016C93F1013297FA878C
:10077000E9876E2D70E080E090E00E94B81029813A
:100780003A814B815C810E946F116B017C01A985CC
:10079000BA856C9170E080E090E00E94BA109B01F5
:1007A000AC016D817E818F8198850E946F119B01C4
:1007B000AC01C701B6010E94A60F0E948910E9850D
:1007C000FA856083F4E08F1A910844E0240E311C0E
:1007D0000615170509F085CE430152014091BB0370
:1007E000442331F08091BA0381508093BA0305C04D
:1007F0008091BA038F5F8093BA032091BA03022ECF
:10080000000C330BC501880D991D281739073CF4DE
:10081000882799278819990928173907BCF48091E6
:10082000B90390E001966091420170E00E946C1261
:100830008093B90381E0413009F480E08093BB03E9
:100840008A9D802D112481508093BA0367960FB63C
:10085000F894DEBF0FBECDBFDF91CF911F910F91F6
:10086000FF90EF90DF90CF90BF90AF909F908F90D0
:100870007F906F905F904F903F902F9008952F92B0
:100880003F924F925F926F927F928F929F92AF9220
:10089000BF92CF92DF92EF92FF920F931F93CF936D
:1008A000DF93CDB7DEB76F970FB6F894DEBF0FBEFC
:1008B000CDBF1C018B01409144012091C0032F5FEB
:1008C0002093C00330E0E09145016E2F70E084E694
:1008D00090E00E946C12261737070CF4C0C21092E9
:1008E000C0032091BF0329872091BE03C8011123B3
:1008F0000CF401961F8F0E8FB101DC01B595A79501
:10090000BF8BAE8B8091BD0390E0022E000C330BA9
:10091000F901EE0FFF1FEE0FFF1F329641018E0E01
:100920009F1E1801B1E02B1A3108221A330A220C3B
:10093000331C220C331CE2E02E0E311C260E371E17
:10094000642E712C2101540100E010E0A301072C5A
:10095000000C660B770B4A875B876C877D87B90134
:1009600061507109798F688F880F991F880F991FBF
:10097000DC01AE5FBE4FBD8FAC8FF9013196FB8FAE
:10098000EA8F4101150122C20F5F1F4FB801012EEE
:10099000000C880B990B0E94BA106B017C016A85D0
:1009A0007B858C859D850E94BA109B01AC01C70197
:1009B000B6010E9417106D837E838F839887F98517
:1009C000F111FCC08A8D9B8D801B910B0AF4F2C142
:1009D0002E893F89281739070CF4ECC1AC8DBD8DE9
:1009E000CD90DD90ED90FC90C701B6017727882768
:1009F00099270E94B8102D813E814F8158850E9411
:100A00006F116E877F87888B998B2D813E814F81F7
:100A1000588560E070E080E89FE30E94A50F69833D
:100A20007A838B839C83F1016291FB8BEA8B70E06C
:100A300080E090E00E94BA109B01AC0169817A814C
:100A40008B819C810E946F119B01AC016E857F851B
:100A5000888999890E94A60F0E948910AA89BB895A
:100A60006C936D2D70E080E090E00E94B8102D81B5
:100A70003E814F8158850E946F116A8B7B8B8C8BD6
:100A80009D8BF101608170E080E090E00E94BA10DF
:100A90009B01AC0169817A818B819C810E946F11DD
:100AA0009B01AC016A897B898C899D890E94A60F74
:100AB0000E948910D1016C936E2D70E080E090E06F
:100AC0000E94B8102D813E814F8158850E946F1180
:100AD0006B017C01F1013297FE83ED83608170E050
:100AE00080E090E00E94BA109B01AC0169817A819C
:100AF0008B819C810E946F119B01AC01C701B601E3
:100B00000E94A60F0E948910AD81BE816C93F401F2
:100B10006291FE83ED8370E080E090E00E94BA1065
:100B20009B01AC0169817A818B819C810E946F114C
:100B30009B01AC016E857F85888999890E94A60FEB
:100B40000E948910AD81BE816C93F401608170E0D8
:100B500080E090E00E94BA109B01AC0169817A812B
:100B60008B819C810E946F119B01AC016A897B89FA
:100B70008C899D890E94A60F0E948910D4016C93D4
:100B8000F4013297FE83ED83608170E080E090E0B5
:100B90000E94BA109B01AC0169817A818B819C8192
:100BA0000E946F119B01AC01C701B6010E94A60F04
:100BB0000E948910AD81BE816C93FCC0888D998D97
:100BC000800F911FEE89FF89E817F9070CF4F2C036
:100BD00099230CF4EFC0AC8DBD8DCD90DD90ED90E0
:100BE000FC90C701B6017727882799270E94B81083
:100BF0002D813E814F8158850E946F116E877F87BE
:100C0000888B998B2D813E814F81588560E070E003
:100C100080E89FE30E94A50F69837A838B839C837E
:100C2000F5016291FB8BEA8B70E080E090E00E941E
:100C3000BA109B01AC0169817A818B819C810E94F1
:100C40006F119B01AC016E857F85888999890E940F
:100C5000A60F0E948910AA89BB896C936D2D70E044
:100C600080E090E00E94B8102D813E814F81588530
:100C70000E946F116A8B7B8B8C8B9D8BF501608141
:100C800070E080E090E00E94BA109B01AC016981A5
:100C90007A818B819C810E946F119B01AC016A89D2
:100CA0007B898C899D890E94A60F0E948910D5019D
:100CB0006C936E2D70E080E090E00E94B8102D8162
:100CC0003E814F8158850E946F116B017C01F501B7
:100CD0003297FE83ED83608170E080E090E00E94B7
:100CE000BA109B01AC0169817A818B819C810E9441
:100CF0006F119B01AC01C701B6010E94A60F0E94B3
:100D00008910AD81BE816C93F2016291FE83ED8307
:100D100070E080E090E00E94BA109B01AC01698114
:100D20007A818B819C810E946F119B01AC016E8541
:100D30007F85888999890E94A60F0E948910AD81BC
:100D4000BE816C93F201608170E080E090E00E94CF
:100D5000BA109B01AC0169817A818B819C810E94D0
:100D60006F119B01AC016A897B898C899D890E94E6
:100D7000A60F0E948910D2016C93F2013297FE8374
:100D8000ED83608170E080E090E00E94BA109B01EA
:100D9000AC0169817A818B819C810E946F119B01DA
:100DA000AC01C701B6010E94A60F0E948910AD8157
:100DB000BE816C93B4E02B1A3108E4E08E0E911CD6
:100DC000F4E0AF0EB11C24E0421A510806151705D5
:100DD00009F0DACD4091BF03442331F08091BE0386
:100DE00081508093BE0305C08091BE038F5F8093C6
:100DF000BE032091BE03022E000C330B8E899F8907
:100E0000860D971D281739073CF4882799278619DE
:100E10009709281739071CF58091BD0390E00196CA
:100E20006091420170E00E946C128093BD0321E04A
:100E3000413009F420E02093BF0330E04E8D5F8DF8
:100E4000249FC001259F900D349F900D112499235C
:100E50000CF401969595879581508093BE036F960B
:100E60000FB6F894DEBF0FBECDBFDF91CF911F91BB
:100E70000F91FF90EF90DF90CF90BF90AF909F9039
:100E80008F907F906F905F904F903F902F9008953C
:100E90002F923F924F925F926F927F928F929F928A
:100EA000AF92BF92CF92DF92EF92FF920F931F9378
:100EB000CF93DF938C01EB016091450170E080E0FE
:100EC00090E00E94BA1020E030E44CE955E40E9422
:100ED00017102B013C011C161D060CF053C0E091AD
:100EE000C603F0E0EE0FFF1FEE0FFF1FEE5FFE4F99
:100EF00080809180A280B380C090C203D090C30351
:100F0000E090C403F090C503C501B401772788279A
:100F100099270E94B810A70196010E946F110E94A4
:100F20008910262E692D70E080E090E00E94B810B4
:100F30009B01AC01C701B6010E946F110E9489108C
:100F4000362E6A2D70E080E090E00E94B8109B0180
:100F5000AC01C701B6010E946F110E948910F8010F
:100F60003296CC0FDD1FCC0FDD1F22960C0F1D1FFC
:100F7000DF0111972C92308211976C933496E01711
:100F8000F107B1F78091C103811115C0A30192014E
:100F90006091C2037091C3038091C4039091C50313
:100FA0000E94A60F6093C2037093C3038093C4038F
:100FB0009093C50314C0A30192016091C203709184
:100FC000C3038091C4039091C5030E94A50F609351
:100FD000C2037093C3038093C4039093C503C0906E
:100FE000C203D090C303E090C403F090C50320E097
:100FF00030E040E85FE3C701B6010E946A11882330
:1010000084F081E08093C10380E090E0A0E8BFE33A
:101010008093C2039093C303A093C403B093C5030A
:1010200022C020E030E0A901C701B6010E941210E1
:101030001816CCF08091C1038823A9F08091C603D3
:1010400090E001966091420170E00E946C128093E2
:10105000C6031092C1031092C2031092C3031092F0
:10106000C4031092C503DF91CF911F910F91FF90A0
:10107000EF90DF90CF90BF90AF909F908F907F9038
:101080006F905F904F903F902F9008952F923F92D6
:101090004F925F926F927F928F929F92AF92BF9288
:1010A000CF92DF92EF92FF920F931F93CF93DF9334
:1010B000CDB7DEB72D970FB6F894DEBF0FBECDBF0C
:1010C0001C018B016091450170E080E090E00E947E
:1010D000BA1020E030E44CE955E40E94171069870B
:1010E0007A878B879C87101611060CF0C2C08091FE
:1010F000C8039091C903A091CA03B091CB0389831F
:101100009A83AB83BC839C01AD0160E070E080E812
:101110009FE30E94A50F6D837E838F8398878091C4
:10112000C70390E0FC01EE0FFF1FEE0FFF1FEE5F05
:10113000FE4F80809180A280B38001966091420131
:1011400070E00E946C12FC01EE0FFF1FEE0FFF1FFC
:10115000EE5FFE4FC080D180E280F380C501B40114
:101160007727882799270E94B8109B01AC016D81D1
:101170007E818F8198850E946F112B013C01C701F0
:10118000B6017727882799270E94B8109B01AC01E8
:1011900069817A818B819C810E946F119B01AC01D6
:1011A000C301B2010E94A60F0E9489106D87692DAC
:1011B00070E080E090E00E94B8109B01AC016D816E
:1011C0007E818F8198850E946F112B013C016D2DCE
:1011D00070E080E090E00E94B8109B01AC01698152
:1011E0007A818B819C810E946F119B01AC01C301AC
:1011F000B2010E94A60F0E948910762E6A2D70E01F
:1012000080E090E00E94B8109B01AC016D817E816E
:101210008F8198850E946F114B015C016E2D70E0EB
:1012200080E090E00E94B8109B01AC0169817A8156
:101230008B819C810E946F119B01AC01C501B4019F
:101240000E94A60F0E948910F1013296000F111F13
:10125000000F111F0E5F1F4F200E311E8D85DF0105
:1012600011978C93708211976C933496E215F30565
:10127000B1F72091C8033091C9034091CA0350913E
:10128000CB0369857A858B859C850E94A60F609328
:10129000C8037093C9038093CA039093CB0320E0E3
:1012A00030E040E85FE30E946A1188239CF080915F
:1012B000C70390E001966091420170E00E946C12B9
:1012C0008093C7031092C8031092C9031092CA03F7
:1012D0001092CB032D960FB6F894DEBF0FBECDBF94
:1012E000DF91CF911F910F91FF90EF90DF90CF9002
:1012F000BF90AF909F908F907F906F905F904F9036
:101300003F902F9008950F931F9316161706B4F46D
:101310000091020110910301209104013091050117
:10132000FC01660F771F660F771F860F971F0193CB
:10133000119321933193E817F907C9F71F910F9182
:1013400008952F923F924F925F926F927F928F9269
:101350009F92AF92BF92CF92DF92EF92FF920F9344
:101360001F93CF93DF93CDB7DEB7A6970FB6F89450
:10137000DEBF0FBECDBF9E8F8D8F7AA369A3609114
:10138000450170E080E090E00E94BA1020E030E07B
:1013900048E452E40E9417106BA37CA38DA39EA384
:1013A0006091430170E080E090E00E94B810698B8A
:1013B0007A8B8B8B9C8B8091D7039091D8031816D6
:1013C0001906D4F029A13AA13093D8032093D7036A
:1013D0008091D5039091D60301966091420170E00F
:1013E0000E946C129093D6038093D50338A32F8F5D
:1013F000121613060CF036C16091D1037091D2031E
:101400008091D3039091D4036D8B7E8B8F8B988FBB
:101410008091D5039091D603DC011196BA8FA98FE4
:1014200020914201E22FF0E0FC8FEB8F2091D70357
:101430003091D80338A32F8F2D8C3E8C3FEF231A89
:10144000330A4D8C5E8C320142E0640E711C00E068
:1014500010E0880F991F880F991FBC016E5F7E4FA7
:10146000AF8CB8A04101130132012B01B801012E4C
:10147000000C880B990B0E94BA109B01AC016D897E
:101480007E898F89988D0E94A50F6B017C0120E0D9
:1014900030E0A9010E941210882324F4F7FAF09496
:1014A000F7F8F09429893A894B895C89C701B6011C
:1014B0000E94121088230CF0BCC029893A894B89FC
:1014C0005C89C701B6010E94171069837A838B83F8
:1014D0009C83D2018D919D910D90BC91A02D8D8307
:1014E0009E83AF83B88729813A814B815C8160E01C
:1014F00070E080E89FE30E94A50F69877A878B8759
:101500009C87898D9A8D6B8D7C8D0E946C127C01DD
:101510006D817E818F8198857727882799270E9402
:10152000B81029813A814B815C810E946F116D87CF
:101530007E878F87988BC701880F991F880F991F07
:101540008E5F9E4FFC01C080D180E280F380C70196
:10155000B6017727882799270E94B8109B01AC0114
:1015600069857A858B859C850E946F119B01AC01F2
:101570006D857E858F8598890E94A60F0E948910AF
:10158000D4016C93BE816B2F70E080E090E00E94EC
:10159000B81029813A814B815C810E946F116D875F
:1015A0007E878F87988B6D2D70E080E090E00E94A1
:1015B000B8109B01AC0169857A858B859C850E945A
:1015C0006F119B01AC016D857E858F8598890E9486
:1015D000A60F0E948910F1016083FF816F2F70E0D8
:1015E00080E090E00E94B81029813A814B815C81B3
:1015F0000E946F1169837A838B839C836E2D70E0C8
:1016000080E090E00E94B8109B01AC0169857A856A
:101610008B859C850E946F119B01AC0169817A8149
:101620008B819C810E94A60F0E948910D3016C932C
:101630000AC0F201208191818281D4012C93F101B1
:101640009083D3018C930F5F1F4FB4E08B0E911CDE
:10165000E4E06E0E711CF4E02F0E311C0A151B0520
:101660000CF404CF29A13AA14F8D58A1421753077A
:1016700094F58091D5039091D60301966091420133
:1016800070E00E946C12FC01EE0FFF1FEE0FFF1FB7
:10169000EE5FFE4F408131812281EF8DF8A1EE0F88
:1016A000FF1FEE0FFF1F32966D8D7E8DE60FF71F29
:1016B00089A19AA1880F991F880F991F0296860FFA
:1016C000971FDF0111974C93308311972C93349619
:1016D000E817F907B1F72091D1033091D203409177
:1016E000D3035091D4036BA17CA18DA19EA10E9434
:1016F000A60F6B017C016093D1037093D20380939A
:10170000D3039093D403AF8DB8A1BD01BB0F880B59
:10171000990B0E94BA109B01AC01C701B6010E944F
:101720006A118823ACF18091D00381110AC08F8D9A
:1017300098A101979093D8038093D70381E0809379
:10174000D0036091D7037091D803072E000C880B4B
:10175000990B0E94BA1029893A894B895C890E94A9
:10176000A60F9B01AC01C701B6010E946A11882334
:101770007CF089899A89AB89BC89B0588093D10360
:101780009093D203A093D303B093D4031092D003C9
:10179000A6960FB6F894DEBF0FBECDBFDF91CF91F6
:1017A0001F910F91FF90EF90DF90CF90BF90AF907F
:1017B0009F908F907F906F905F904F903F902F9071
:1017C00008952F923F924F925F926F927F928F92E5
:1017D0009F92AF92BF92CF92DF92EF92FF920F93C0
:1017E0001F93CF93DF93CDB7DEB766970FB6F8940C
:1017F000DEBF0FBECDBF9E878D87788B6F876091D0
:10180000450170E080E090E00E94BA1020E030E0F6
:1018100048E452E40E941710698B7A8B8B8B9C8B67
:101820006091430170E080E090E00E94B81069830D
:101830007A838B839C838091E0039091E103181657
:101840001906CCF02F8538893093E1032093E0030B
:101850008091DE039091DF0301966091420170E078
:101860000E946C129093DF038093DE0339011216FD
:1018700013060CF0C3C06091DA037091DB03809112
:10188000DC039091DD036D837E838F839887809145
:10189000DE039091DF03DC011196BA87A98780915E
:1018A0004201E82FF0E0FC87EB876090E003709046
:1018B000E1030D851E850F5F1F4F4D845E8412016D
:1018C000F2E02F0E311CE12CF12CFE8AED8A2D89DD
:1018D0003E89B901330F880B990B0E94BA109B0106
:1018E000AC016D817E818F8198850E94A50F6B016F
:1018F0007C0120E030E0A9010E941210882324F42A
:10190000F7FAF094F7F8F09429813A814B815C81E1
:10191000C701B6010E94121088230CF055C029811E
:101920003A814B815C81C701B6010E9417109B016F
:10193000AC0160E070E080E89FE30E94A50F6B01BE
:101940007C0189859A856B857C850E946C12FC01DF
:10195000EE0FFF1FEE0FFF1FEE5FFE4F80809180A6
:10196000A280B380C501B4017727882799270E94F8
:10197000B8109B01AC01C701B6010E946F110E9413
:101980008910D8016C93692D70E080E090E00E948E
:10199000B8109B01AC01C701B6010E946F110E94F3
:1019A0008910F10160836A2D70E080E090E00E9470
:1019B000B8109B01AC01C701B6010E946F110E94D3
:1019C0008910D2016C9306C0F8011082D1011C92DB
:1019D000F20110822D893E892F5F3F4F3E8B2D8B68
:1019E0000C5F1F4F34E0430E511C64E0260E311C87
:1019F0008D899E89861597050CF469CFAF85B889C6
:101A00006A167B068CF58091DE039091DF030196C8
:101A10006091420170E00E946C12FC01EE0FFF1F0A
:101A2000EE0FFF1FEE5FFE4F408131812281F301F7
:101A3000EE0FFF1FEE0FFF1F32966D857E85E60FBE
:101A4000F71F8F859889880F991F880F991F029615
:101A5000860F971FDF0111974C93308311972C93BA
:101A60003496E817F907B1F72091DA033091DB03D8
:101A70004091DC035091DD0369897A898B899C89C7
:101A80000E94A60F6B017C016093DA037093DB0365
:101A90008093DC039093DD03B301072C000C880BCB
:101AA000990B0E94BA109B01AC01C701B6010E94BC
:101AB0006A118823A4F18091D903811109C0C3015F
:101AC00001979093E1038093E00381E08093D90331
:101AD0006091E0037091E103072E000C880B990BD5
:101AE0000E94BA1029813A814B815C810E94A60F25
:101AF0009B01AC01C701B6010E946A1188237CF0EA
:101B000089819A81AB81BC81B0588093DA0390932C
:101B1000DB03A093DC03B093DD031092D903669638
:101B20000FB6F894DEBF0FBECDBFDF91CF911F91EE
:101B30000F91FF90EF90DF90CF90BF90AF909F906C
:101B40008F907F906F905F904F903F902F9008956F
:101B50002F923F924F925F926F927F928F929F92BD
:101B6000AF92BF92CF92DF92EF92FF920F931F93AB
:101B7000CF93DF93CDB7DEB7A8970FB6F894DEBF4B
:101B80000FBECDBF8C013B016091450170E080E04C
:101B900090E00E94BA1020E030E04AEF53E40E9447
:101BA00017106DA37EA38FA398A76091430170E0E7
:101BB00080E090E00E94B810161417040CF005C1E4
:101BC0009B01AC0160E070E080E89FE30E94171089
:101BD0006D837E838F8398878091CC039091CD0312
:101BE000A091CE03B091CF0389879A87AB87BC873A
:101BF0000F2EF2E0AF2EF1E0BF2EF02DD501CD90EB
:101C0000DD90ED90FC90C701B601772788279927D2
:101C10000E94B8106D877E878F87988BF50184802E
:101C20009580A680B780C501B401772788279927BA
:101C30000E94B810698B7A8B8B8B9C8B6D2D70E01A
:101C400080E090E00E94B8106D8B7E8B8F8B988F18
:101C5000692D70E080E090E00E94B810698F7A8F63
:101C60008B8F9C8F6E2D70E080E090E00E94B8100A
:101C70006D8F7E8F8F8F98A36A2D70E080E090E04B
:101C80000E94B81069A37AA38BA39CA30E5F1F4F79
:101C9000212C312C5301B101032C000C880B990B22
:101CA0000E94BA102D813E814F8158850E946F118C
:101CB00029853A854B855C850E94A60F0E94DC1120
:101CC00020E030E040E85FE30E94A60F20E030E033
:101CD00040E05FE30E946F116B017C019B01AC014E
:101CE00060E070E080E89FE30E94A50F69837A833B
:101CF0008B839C834801F1E08F1A9108A70196011C
:101D00006D857E858F8598890E946F112B013C011E
:101D100029893A894B895C8969817A818B819C8187
:101D20000E946F119B01AC01C301B2010E94A60F7A
:101D30000E948910D4016C93A70196016D897E8958
:101D40008F89988D0E946F112B013C01298D3A8D4E
:101D50004B8D5C8D69817A818B819C810E946F1192
:101D60009B01AC01C301B2010E94A60F0E94891021
:101D7000F80160834801F2E08F1A9108A7019601EB
:101D80006D8D7E8D8F8D98A10E946F116B017C01EE
:101D900029A13AA14BA15CA169817A818B819C81A7
:101DA0000E946F119B01AC01C701B6010E94A60FF2
:101DB0000E948910D4016C93BFEF2B1A3B0A0C5F71
:101DC0001F4F2A143B0409F066CF2091CC033091B9
:101DD000CD034091CE035091CF036DA17EA18FA181
:101DE00098A50E94A60F6B017C012BED3FE049EC0A
:101DF00050E40E946A1118164CF0C092CC03D092A5
:101E0000CD03E092CE03F092CF0310C02BED3FE064
:101E100049EC50E4C701B6010E94A50F6093CC03C2
:101E20007093CD038093CE039093CF03A8960FB603
:101E3000F894DEBF0FBECDBFDF91CF911F910F9100
:101E4000FF90EF90DF90CF90BF90AF909F908F90DA
:101E50007F906F905F904F903F902F900895809368
:101E600001010895853620F084E6809345010895A8
:101E7000809345010895853620F084E680934401DF
:101E80000895809344010895809343010895E0915B
:101E90000101F0E0EE0FFF1FEA5BFE4F0190F081C1
:101EA000E02D0995089590914201891760F4E82F7B
:101EB000F0E0EE0FFF1FEE0FFF1FEE5FFE4F2083DF
:101EC0006183428313820895539A08951F93CF9399
:101ED000DF93DC01EB011C161D0634F131C040819B
:101EE000518162817381022E04C076956795579562
:101EF00047950A94D2F740FF07C05B9A5B9A5B9ABA
:101F00005B9A5B9A5B9806C05B9A5B985B985B9860
:101F10005B985B982150310910F79F5F292F30E0C3
:101F20002C173D0724F00CC090E017E180E0FD0184
:101F300024E0929FE00DF11D1124212F382FCFCFE7
:101F40001BB8DF91CF911F9108955058BB27AA2746
:101F50000E94BD0F0C9430110E94221138F00E9493
:101F6000291120F039F49F3F19F426F40C941F1125
:101F70000EF4E095E7FB0C941911E92F0E94411132
:101F800058F3BA17620773078407950720F079F4AE
:101F9000A6F50C9463110EF4E0950B2EBA2FA02D2C
:101FA0000B01B90190010C01CA01A0011124FF2706
:101FB000591B99F0593F50F4503E68F11A16F04001
:101FC000A22F232F342F4427585FF3CF4695379500
:101FD0002795A795F0405395C9F77EF41F16BA0BC5
:101FE000620B730B840BBAF09150A1F0FF0FBB1F73
:101FF000661F771F881FC2F70EC0BA0F621F731FBC
:10200000841F48F4879577956795B795F7959E3F18
:1020100008F0B0CF9395880F08F09927EE0F9795A9
:10202000879508950E94F51008F481E008950E94B4
:102030002B100C9430110E94291158F00E9422118B
:1020400040F029F45F3F29F00C94191151110C94C0
:1020500064110C941F110E94411168F39923B1F38C
:10206000552391F3951B550BBB27AA2762177307BE
:10207000840738F09F5F5F4F220F331F441FAA1F52
:10208000A9F335D00E2E3AF0E0E832D0915050400E
:10209000E695001CCAF72BD0FE2F29D0660F771FBC
:1020A000881FBB1F261737074807AB07B0E809F0A2
:1020B000BB0B802DBF01FF2793585F4F3AF09E3F27
:1020C000510578F00C9419110C9464115F3FE4F3FE
:1020D000983ED4F3869577956795B795F7959F5F6A
:1020E000C9F7880F911D9695879597F90895E1E0B6
:1020F000660F771F881FBB1F621773078407BA0715
:1021000020F0621B730B840BBA0BEE1F88F7E0956F
:1021100008950E94491188F09F5798F0B92F992788
:10212000B751B0F0E1F0660F771F881F991F1AF0C2
:10213000BA95C9F714C0B13091F00E946311B1E0B3
:1021400008950C946311672F782F8827B85F39F0B2
:10215000B93FCCF3869577956795B395D9F73EF45B
:1021600090958095709561957F4F8F4F9F4F089503
:10217000E89409C097FB3EF4909580957095619521
:102180007F4F8F4F9F4F9923A9F0F92F96E9BB27D7
:102190009395F695879577956795B795F111F8CF53
:1021A000FAF4BB0F11F460FF1BC06F5F7F4F8F4FBE
:1021B0009F4F16C0882311F096E911C0772321F0B4
:1021C0009EE8872F762F05C0662371F096E8862F4C
:1021D00070E060E02AF09A95660F771F881FDAF7A3
:1021E000880F9695879597F90895990F0008550FD0
:1021F000AA0BE0E8FEEF16161706E807F907C0F08D
:1022000012161306E407F50798F0621B730B840B94
:10221000950B39F40A2661F0232B242B252B21F46E
:1022200008950A2609F4A140A6958FEF811D811D0E
:10223000089597F99F6780E870E060E008959FEF48
:1022400080EC089500240A9416161706180609064D
:10225000089500240A94121613061406050608951C
:10226000092E0394000C11F4882352F0BB0F40F4A4
:10227000BF2B11F460FF04C06F5F7F4F8F4F9F4FE4
:10228000089557FD9058440F551F59F05F3F71F066
:102290004795880F97FB991F61F09F3F79F08795CD
:1022A0000895121613061406551FF2CF4695F1DF56
:1022B00008C0161617061806991FF1CF86957105E6
:1022C000610508940895E894BB2766277727CB011A
:1022D00097F908950E94F51008F48FEF08950E9471
:1022E00082110C9430110E94221138F00E942911A1
:1022F00020F0952311F00C9419110C941F11112446
:102300000C9464110E94411170F3959FC1F3950FD5
:1023100050E0551F629FF001729FBB27F00DB11D69
:10232000639FAA27F00DB11DAA1F649F6627B00DF9
:10233000A11D661F829F2227B00DA11D621F739FE2
:10234000B00DA11D621F839FA00D611D221F749FF0
:102350003327A00D611D231F849F600D211D822F37
:10236000762F6A2F11249F5750409AF0F1F088235E
:102370004AF0EE0FFF1FBB1F661F771F881F91508B
:102380005040A9F79E3F510580F00C9419110C9410
:1023900064115F3FE4F3983ED4F386957795679593
:1023A000B795F795E7959F5FC1F7FE2B880F911DB5
:1023B0009695879597F908959F930E94E6110F903F
:1023C00007FCEE5F0C940F120C941F110E94491130
:1023D000D8F3E894E0E0BB279F57F0F02AED3FE008
:1023E00049EC06C0EE0FBB0F661F771F881F28F051
:1023F000B23A62077307840728F0B25A620B730B74
:10240000840BE3959A9572F7803830F49A95BB0F58
:10241000661F771F881FD2F790480C942512EF9300
:10242000E0FF07C0A2EA2AED3FE049EC5FEB0E9423
:10243000BD0F0E9430110F90039401FC9058E6E705
:10244000F0E00C9431129F3F31F0915020F48795C9
:1024500077956795B795880F911D9695879597F90C
:1024600008959F938F937F936F93FF93EF939B01B7
:10247000AC010E946F11EF91FF910E9445122F91C4
:102480003F914F915F910C946F11DF93CF931F9306
:102490000F93FF92EF92DF927B018C01689406C04C
:1024A000DA2EEF010E948211FE01E894A591259198
:1024B000359145915591A6F3EF010E94BD0FFE01A4
:1024C0009701A801DA9469F7DF90EF90FF900F91E0
:1024D0001F91CF91DF91089597FB072E16F400947A
:1024E00007D077FD09D00E94A51207FC05D03EF465
:1024F000909581959F4F0895709561957F4F0895B0
:10250000052E97FB1EF400940E94971257FD07D0EA
:102510000E94B91207FC03D04EF40C949712509508
:102520004095309521953F4F4F4F5F4F08959095BF
:102530008095709561957F4F8F4F9F4F0895EE0F57
:10254000FF1F0590F491E02D0994AA1BBB1B51E1DC
:1025500007C0AA1FBB1FA617B70710F0A61BB70B13
:10256000881F991F5A95A9F780959095BC01CD01B8
:102570000895A1E21A2EAA1BBB1BFD010DC0AA1FC4
:10258000BB1FEE1FFF1FA217B307E407F50720F0DC
:10259000A21BB30BE40BF50B661F771F881F991F57
:1025A0001A9469F760957095809590959B01AC01A0
:0A25B000BD01CF010895F894FFCF9C
:1025BA00270600FF0000FFFF0000FF00000000FFE9
:1025CA00FF000000FF00FF00FF00FFFFFF00000008
:1025DA0000000000000000000000000000000000F1
:1025EA0000000000000000000000000000000000E1
:1025FA000000070A0A0A05023F0448074608830939
:06260A00A80DA109E10B7F
:00000001FF
