:100000000C944A000C9467000C9467000C946700F1
:100010000C9467000C9467000C9467000C946700C4
:100020000C9467000C9467000C9467000C946700B4
:100030000C9467000C9467000C9467000C946700A4
:100040000C9467000C9467000C94F2000C94670009
:100050000C9467000C9467000C9467000C94670084
:100060000C9467000C94670043020502FC01F40144
:10007000EB01E2014C0205A84CCDB2D44EB93836A2
:10008000A9020C50B9918688083CA6AAAA2ABE00EB
:100090000000803F11241FBECFEFD4E0DEBFCDBFF4
:1000A00011E0A0E0B1E0E8E1FAE202C005900D92B3
:1000B000A835B107D9F723E0A8E5B1E001C01D924A
:1000C000AC3EB207E1F70E9435010C940A150C947E
:1000D00000004091590120915A0150E0421B510902
:1000E00057FD73C0423051050CF45FC0E0915A01D6
:1000F000EF77F0E0E55AFE4F20812F3F09F457C01B
:1001000020915A0130E02F5F3F4F2F773327209304
:100110005A01415051094130510541F7E0915A01CE
:10012000F0E0E45AFE4F2081422F50E0E0915A0166
:10013000F0E03196EF77FF27E0935A01E0915A0102
:10014000F0E03196EF77FF27E0935A0170E06417F3
:1001500075075CF141155105B9F0DC01480F591FD5
:10016000E0915A01EF77F0E0E55AFE4F8081280FC9
:100170008D9380915A0190E001968F779927809313
:100180005A014A175B0761F7E0915A01EF77F0E0F7
:10019000E55AFE4F80812817D9F080915A0190E0EE
:1001A00001968F77992780935A0180E00895E09116
:1001B0005A01F0E0E45AFE4F20814150510930E0ED
:1001C000241735070CF4AACFF0CF40585F4F8ACFE1
:1001D00080915A0190E001968F77992780935A0178
:1001E00081E008951F920F920FB60F9211248F9302
:1001F0009F93EF93FF938091590190E001968F7741
:100200009927809358019091580180915A0198172D
:1002100061F0E0915901F0E08091C600E55AFE4F8F
:1002200080838091580180935901FF91EF919F91B4
:100230008F910F900FBE0F901F9018959C0140E07A
:1002400050E060E673EE86E190E00E949914215040
:1002500031093093C5002093C40088E98093C10020
:1002600086E08093C20078940895CF93DF93CDB752
:10027000DEB7E2970FB6F894DEBF0FBECDBFEBED51
:10028000F1E080EE91E0DF019C011D9221503040B1
:10029000E1F780E096E90E941E010E94751180E05E
:1002A00090E00E94F4148A3008F44AC181E090E0A2
:1002B0000E94F4149FEF980F983710F48093000178
:1002C00082E090E00E94F414853608F436C183E0A1
:1002D00090E00E94F414853608F42CC184E090E08C
:1002E0000E94F414853108F422C185E090E00E9458
:1002F000F414082F8FEF800F803108F4F2C02091A2
:10030000000130E02115310521F1EBEDF1E000E0D5
:1003100010E093E0E92EF12C4FEF09C01082128219
:1003200041830F5F1F4F34960217130794F4C801DF
:10033000B7010E948514009789F3019709F4CDC095
:100340001282118240830F5F1F4F349602171307EA
:1003500074F3DE0111967D0184E090E04C018A1A6D
:100360009B0A85E090E05C01AA1ABB0A86E090E057
:100370003C016A1A7B0A09C0EBE2F1E03197F1F720
:1003800000C000002091000130E0B9018BED91E048
:100390000E9477116091000170E08BED91E00E9466
:1003A0004E1162E3C7010E946900882329F3E981A5
:1003B0008E2F90E087309105F8F6FC01EC5CFF4F42
:1003C0000C94B8148A810E944B116A8184E090E0F9
:1003D0000E94FC14D1CF8A810E9442116A8183E07D
:1003E00090E00E94FC14C8CF6A816093000181E014
:1003F00090E00E94FC14C0CF8A810E9439116A816A
:1004000082E090E00E94FC14B7CF8A81813108F02D
:10041000B3CF0E9470116A8185E090E00E94FC14C5
:100420008A81882309F4A8CF8E010D5F1F4F512CBC
:10043000C12CD12CBFEFCB1ADB0AF80122814181FC
:100440006081852D0E945911D8016C91C401800FE3
:10045000911F0E94FC14F8016181C501800F911F5A
:100460000E94FC14D80112966C91C301800F911F59
:100470000E94FC140D5F1F4F53948A8190E0C816B0
:10048000D906C4F279CF8A810E9436116A8180E050
:1004900090E00E94FC1470CF8A810E9436118B81FB
:1004A0000E9439118C810E9442118D810E944B1152
:1004B0006A8180E090E00E94FC146B8182E090E011
:1004C0000E94FC146C8183E090E00E94FC146D811A
:1004D00084E090E00E94FC144FCF1082118242838E
:1004E00020CF802F0E94701110E086E0E82EF12CC2
:1004F000C12CD12CC7010E94F414B82EC70101965B
:100500000E94F414A82EC70102960E94F414282F0A
:100510004A2D6B2D8C2D0E9459113FEFC31AD30A1F
:1005200083E0E80EF11CC016D10621F7E8CE0E9448
:100530004B11DBCE0E944211D1CE0E943911C7CEA1
:100540000E943611B3CE2F923F924F925F926F92DC
:100550007F928F929F92AF92BF92CF92DF92EF9253
:10056000FF920F931F93CF93DF93CDB7DEB7AC9776
:100570000FB6F894DEBF0FBECDBF982E892E1B019B
:100580002091440129836091450170E080E090E072
:100590000E94D31220E030E048E452E40E9430127E
:1005A0006BA37CA38DA39EA3121413040CF087C22B
:1005B0009091C0039D8FA090BB03B12CF501EE0F6D
:1005C000FF1FEE0FFF1FEE5FFE4FC080D180E28065
:1005D000F380AFEFAA1ABA0AC701B60177278827B6
:1005E00099270E94D112698B7A8B8B8B9C8B6D2DF6
:1005F00070E080E090E00E94D1126D8B7E8B8F8B3B
:10060000988FB701882799270E94D112698F7A8F16
:100610008B8F9C8FF981EF2FF0E0FAA3E9A38091F3
:10062000BC039091BD03A091BE03B091BF03898329
:100630009A83AB83BC838091420190E0A816B906EF
:100640000CF0EEC0F501EE0FFF1FEE0FFF1FEE5F87
:10065000FE4FC080D180E280F380C701B6017727CA
:10066000882799270E94D1126D837E838F83988774
:100670006D2D70E080E090E00E94D11269877A874A
:100680008B879C87B701882799270E94D1126D8795
:100690007E878F87988B9D8D992309F446C19BA6F1
:1006A0008CA600E010E089A19AA1092E000CAA0BEB
:1006B000BB0B8FA398A7A9A7BAA797C06FA178A5CE
:1006C00089A59AA50E94D3124B015C019B01AC0144
:1006D00069817A818B819C810E94BE11A70196015C
:1006E0000E942B1218160CF49EC0A7019601698176
:1006F0007A818B819C810E94BE11A50194010E9488
:1007000030129B01AC0160E070E080E89FE30E9442
:10071000BE116B017C019B01AC0160E070E080E8E0
:100720009FE30E94BE114B015C01A5019401698900
:100730007A898B899C890E9488132B013C01A7012F
:1007400096016D817E818F8198850E9488139B011F
:10075000AC01C301B2010E94BF110E94A212ABA55D
:10076000BCA511966C93A50194016D897E898F8932
:10077000988D0E9488132B013C01A7019601698581
:100780007A858B859C850E9488139B01AC01C301EF
:10079000B2010E94BF110E94A212EBA5FCA56283C8
:1007A000A5019401698D7A8D8B8D9C8D0E94881393
:1007B0004B015C01A70196016D857E858F85988927
:1007C0000E9488139B01AC01C501B4010E94BF11B6
:1007D0000E94A212ABA5BCA56C930F5F1F4F14968D
:1007E000BCA7ABA72016310641F1B801012E000CC1
:1007F000880B990B0E94D3126B017C0129813A81ED
:100800004B815C810E94831387FD58CF812C912CF2
:100810005401C12CD12C30E8E32E3FE3F32E85CFD9
:10082000E0E0F0E010CF812C912C20E8A22E2FE305
:10083000B22EC12CD12C760178CF69817A818B813F
:100840009C812BA13CA14DA15EA10E94BE116B0118
:100850007C016093BC037093BD038093BE039093AF
:10086000BF03E9A1FAA1E20DF31DFA83E983BF01F9
:10087000FF0F880B990B0E94D312A70196010E94CB
:100880002B1218168CF469A17AA1719561957109E2
:10089000072E000C880B990B0E94D312A70196011A
:1008A0000E948313181644F58091BB0390E00196D3
:1008B0006091420170E00E9485148093BB0381E047
:1008C000FD8DF13009F43DC18093C0032D8D2130A1
:1008D00009F421C169817A8161507109072E000CE8
:1008E000880B990B0E94D3126093BC037093BD03D5
:1008F0008093BE039093BF03AC960FB6F894DEBF0F
:100900000FBECDBFDF91CF911F910F91FF90EF9060
:10091000DF90CF90BF90AF909F908F907F906F901F
:100920005F904F903F902F9008959FA288A600E07F
:1009300010E089A19AA1092E000CAA0BBB0B8D8F88
:100940009E8FAF8FB8A396C06D8D7E8D8F8D98A131
:100950000E94D3124B015C0129813A814B815C8159
:100960000E94BF119B01AC01C701B6010E942B126E
:1009700087FF9BC029813A814B815C81C701B60109
:100980000E94BE11A50194010E9430129B01AC018E
:1009900060E070E080E89FE30E94BE116B017C0183
:1009A0009B01AC0160E070E080E89FE30E94BE1113
:1009B0004B015C012D813E814F815885C701B601F5
:1009C0000E9488132B013C01A501940169897A8951
:1009D0008B899C890E9488139B01AC01C301B201E1
:1009E0000E94BF110E94A212AFA1B8A511966C93EC
:1009F00029853A854B855C85C701B6010E9488131D
:100A00002B013C01A50194016D897E898F89988D08
:100A10000E9488139B01AC01C301B2010E94BF1167
:100A20000E94A212EFA1F8A562832D853E854F8515
:100A30005889C701B6010E9488136B017C01A5018A
:100A40009401698D7A8D8B8D9C8D0E9488139B01FA
:100A5000AC01C701B6010E94BF110E94A212AFA152
:100A6000B8A56C930F5F1F4F1496B8A7AFA32016BD
:100A70003106D9F1B801012E000C880B990B0E94A8
:100A8000D3126B017C0129813A814B815C810E94E8
:100A90002B1287FF59CF812C912C5401C12CD12CC2
:100AA00090E8E92E9FE3F92E85CF812C912C80E8E8
:100AB000A82E8FE3B82EC12CD12C76017BCF30919C
:100AC000C0033D8F9981892F90E09AA389A38091DB
:100AD000BC039091BD03A091BE03B091BF03898375
:100AE0009A83AB83BC8331112EC029813A814B811B
:100AF0005C816BA17CA18DA19EA10E94BF116B01A5
:100B00007C016093BC037093BD038093BE039093FC
:100B1000BF031D8EA6CE89A19AA1919581959109B9
:100B20009A838983BC01990F880B990B0E94D31279
:100B30006093BC037093BD038093BE039093BF0387
:100B4000DBCE80E0C1CEBC01CD017BCE2F923F92A7
:100B50004F925F926F927F928F929F92AF92BF92CD
:100B6000CF92DF92EF92FF920F931F93CF93DF9379
:100B7000CDB7DEB7AC970FB6F894DEBF0FBECDBFD2
:100B8000782E99831B01609044016091450170E0CB
:100B900080E090E00E94D31220E030E048EC52E484
:100BA0000E9430126FA378A789A79AA7C10137FCCA
:100BB00051C29C013595279538872F8337FD8FC10A
:100BC0009091C6039E830091C10310E0C801019675
:100BD0006091420170E00E948514FC01EE0FFF1F3E
:100BE000EE0FFF1FEE5FFE4FC080D180E280F380EA
:100BF000C701B6017727882799270E94D1126987F4
:100C00007A878B879C87000F111F000F111FF80137
:100C1000EE5FFE4F80809180A280B380C501B40159
:100C20007727882799270E94D1126D877E878F8723
:100C3000988B6D2D70E080E090E00E94D112698B5E
:100C40007A8B8B8B9C8B692D70E080E090E00E940A
:100C5000D1126D8B7E8B8F8B988F6E2D70E080E024
:100C600090E00E94D112698F7A8F8B8F9C8F6A2DB2
:100C700070E080E090E00E94D1126D8F7E8F8F8FA8
:100C800098A3A62DB0E0BEA3ADA38091C20390911E
:100C9000C303A091C403B091C5038A839B83AC8333
:100CA000BD83072D198191E0291A90EC390A220C95
:100CB000331C220C331C200E311E1CA61BA68DA13A
:100CC0009EA1092E000CAA0BBB0B89A39AA3ABA370
:100CD000BCA3BCC0ABA5BCA5BD01BB0F880B990BC9
:100CE0000E94D3126B017C012A813B814C815D8182
:100CF0000E942B1287FDDFC069A17AA18BA19CA164
:100D00000E94D3124B015C012A813B814C815D81A1
:100D10000E94BF119B01AC01C701B6010E942B12BA
:100D200087FFD3C02A813B814C815D81C701B60119
:100D30000E94BE11A50194010E9430129B01AC01DA
:100D400060E070E080E89FE30E94BE116B017C01CF
:100D50009B01AC0160E070E080E89FE30E94BE115F
:100D60004B015C0129853A854B855C85C701B6013D
:100D70000E9488132B013C01A50194016D857E859D
:100D80008F8598890E9488139B01AC01C301B20131
:100D90000E94BF110E94A2126983D80111966C9320
:100DA00029893A894B895C89C701B6010E94881359
:100DB0002B013C01A50194016D897E898F89988D55
:100DC0000E9488139B01AC01C301B2010E94BF11B4
:100DD0000E94A212762ED80112966C93298D3A8D1C
:100DE0004B8D5C8DC701B6010E9488136B017C019D
:100DF000A50194016D8D7E8D8F8D98A10E94881321
:100E00009B01AC01C701B6010E94BF110E94A21252
:100E1000F8016083E981D1011196EC931197129644
:100E20007C9212976C932BA53CA52F5F3F4F3CA75C
:100E30002BA70C5F1F4F34E0231A31088F81988550
:100E4000ABA5BCA58A179B070CF45CC09E819923B7
:100E500009F440CFEBA5FCA5BF01FF0F880B990B50
:100E60000E94D3126B017C012A813B814C815D8100
:100E70000E94831387FF1FC069A17AA18BA19CA147
:100E80000E94D3124B015C019B01AC016A817B8102
:100E90008C819D810E94BE119B01AC01C701B601EE
:100EA0000E94831387FD11C0A70196016A817B818F
:100EB0008C819D813DCF812C912C5401C12CD12C52
:100EC00090E8E92E9FE3F92E4DCF812C912C80E8FC
:100ED000A82E8FE3B82EC12CD12C760143CF3091B0
:100EE000C6033E83862D90E09EA38DA38091C2030E
:100EF0009091C303A091C403B091C5038A839B83DF
:100F0000AC83BD83BE81B1117AC02A813B814C8103
:100F10005D816FA178A589A59AA50E94BF116B017B
:100F20007C016093C2037093C3038093C4039093C6
:100F3000C5036F8178856F5F7F4F0DA11EA1060FDE
:100F4000171FB801012E000C880B990B0E94D312B9
:100F5000A70196010E942B1218168CF46DA17EA198
:100F6000719561957109072E000C880B990B0E94F1
:100F7000D312A70196010E94831318163CF58091A5
:100F8000C10390E001966091420170E00E948514D7
:100F90008093C10381E0EE81E13009F459C0809370
:100FA000C603FE81F13009F43FC0B80161507109F8
:100FB000072E000C880B990B0E94D3126093C2037A
:100FC0007093C3038093C4039093C503AC960FB68C
:100FD000F894DEBF0FBECDBFDF91CF911F910F916F
:100FE000FF90EF90DF90CF90BF90AF909F908F9049
:100FF0007F906F905F904F903F902F9008952FA11A
:1010000038A549A55AA56A817B818C819D810E9462
:10101000BE116B017C016093C2037093C303809384
:10102000C4039093C50385CF6DA17EA17195619591
:101030007109072E000C880B990B0E94D312609344
:10104000C2037093C3038093C4039093C503BECFC0
:1010500080E0A5CF0196ADCD2F923F924F925F9247
:101060006F927F928F929F92AF92BF92CF92DF92B8
:10107000EF92FF920F931F93CF93DF931C01EB012D
:101080006091450170E080E090E00E94D31220E082
:1010900030E44CE955E40E9430122B013C011C164F
:1010A0001D060CF0BCC0E091CC03F0E0EE0FFF1F7A
:1010B000EE0FFF1FEE5FFE4F80809180A280B38015
:1010C000C090C803D090C903E090CA03F090CB034E
:1010D000C501B4017727882799270E94D112A7015B
:1010E00096010E9488130E94A212062F692D70E0BB
:1010F00080E090E00E94D112A70196010E9488131F
:101100000E94A212162F6A2D70E080E090E00E94EB
:10111000D112A70196010E9488130E94A212F10128
:10112000CC0FDD1FCC0FDD1FC20DD31D0183128339
:1011300060833496EC17FD07C9F7C091C703C1114E
:101140003CC0A7019601C301B2010E94BF116B010F
:101150007C016093C8037093C9038093CA03909382
:10116000CB0320E030E040E85FE3C701B6010E9416
:10117000831387FD33C081E08093C70380E090E054
:10118000A0E8BFE38093C8039093C903A093CA0368
:10119000B093CB03DF91CF911F910F91FF90EF9010
:1011A000DF90CF90BF90AF909F908F907F906F9087
:1011B0005F904F903F902F900895A3019201C70137
:1011C000B6010E94BE116B017C016093C80370934D
:1011D000C9038093CA039093CB03C3CF20E030E0D0
:1011E000A901C701B6010E942B1218169CF2CC234C
:1011F00089F28091CC0390E001966091420170E009
:101200000E9485148093CC031092C7031092C803E8
:101210001092C9031092CA031092CB03BBCFC090A7
:10122000C803D090C903E090CA03F090CB0385CFE8
:101230002F923F924F925F926F927F928F929F92E6
:10124000AF92BF92CF92DF92EF92FF920F931F93D4
:10125000CF93DF93CDB7DEB72F970FB6F894DEBFED
:101260000FBECDBF8F879D878B016091450170E0D8
:1012700080E090E00E94D31220E030E44CE955E495
:101280000E94301269877A878B879C87C090CE0333
:10129000D090CF03E090D003F090D1031016110648
:1012A0000CF0A8C0A701960160E070E080E89FE321
:1012B0000E94BE114B015C018091CD0390E0FC01C6
:1012C000EE0FFF1FEE0FFF1FEE5FFE4F20813181FB
:1012D0004281538129833A834B835C8301966091D9
:1012E000420170E00E948514FC01EE0FFF1FEE0F1B
:1012F000FF1FEE5FFE4F80819181A281B3818D83BC
:101300009E83AF83B88769817A818B819C8177279F
:10131000882799270E94D112A50194010E94881361
:101320002B013C016D817E818F81988577278827ED
:1013300099270E94D112A70196010E9488139B0150
:10134000AC01C301B2010E94BF110E94A2126E87BC
:10135000AA816A2F70E080E090E00E94D112A5017E
:1013600094010E9488132B013C01BE816B2F70E019
:1013700080E090E00E94D112A70196010E9488139C
:101380009B01AC01C301B2010E94BF110E94A212D5
:10139000762E2B81622F70E080E090E00E94D112C7
:1013A000A50194010E9488131B012C013F81632F2A
:1013B00070E080E090E00E94D112A70196010E94A7
:1013C00088139B01AC01C201B1010E94BF110E94B0
:1013D000A212EF85FD85C801880F991F880F991FFC
:1013E0008E0F9F1F4E854183728260833496E8176B
:1013F000F907C9F7A701960169857A858B859C85D0
:101400000E94BF116093CE037093CF038093D003EB
:101410009093D10320E030E040E85FE30E94831323
:1014200087FD13C08091CD0390E001966091420149
:1014300070E00E9485148093CD031092CE03109229
:10144000CF031092D0031092D1032F960FB6F894C9
:10145000DEBF0FBECDBFDF91CF911F910F91FF90E7
:10146000EF90DF90CF90BF90AF909F908F907F9044
:101470006F905F904F903F902F900895161617062B
:10148000A4F4409102013091030120910401FC0178
:10149000660F771F660F771F6E0F7F1F41833283A2
:1014A00020833496E617F707C9F708952F923F92E5
:1014B0004F925F926F927F928F929F92AF92BF9264
:1014C000CF92DF92EF92FF920F931F93CF93DF9310
:1014D000CDB7DEB7AC970FB6F894DEBF0FBECDBF69
:1014E0009CA38BA37EA36DA36091450170E080E077
:1014F00090E00E94D31220E030E048E452E40E94E1
:1015000030126FA378A789A79AA76091430170E072
:1015100080E090E00E94D1126D837E838F83988754
:101520002090D7033090D803C090DB03D090DC0329
:10153000E090DD03F090DE03C986DA86EB86FC8658
:10154000121413040CF019C1A090D903B090DA035F
:10155000F501EE0FFF1FEE0FFF1FEE5FFE4FC08085
:10156000D180E280F380CD86DE86EF86F88A2091F6
:101570004201E22EF12CFA8AE98A8BA09CA0CD844C
:10158000DE84EF84F88833272F2D1E2D0D2DB90111
:10159000A8015527662777274B8B5C8B6D8B7E8B3D
:1015A000A70166277727DB01CA019927AA27BB274E
:1015B0008F8B988FA98FBA8F0B8F4C8F00E010E024
:1015C000D5011196BE8FAD8FA70196013327442711
:1015D00055272F8F38A349A35AA39CA68BA69CC03E
:1015E0002D813E814F815885C701B6010E9430127E
:1015F0006B017C019B01AC0160E070E080E89FE33F
:101600000E94BE114B015C018D8D9E8D69897A8986
:101610000E948514FC01EE0FFF1FEE0FFF1FEE5F0F
:10162000FE4F408151816281738149835A836B836C
:101630007C836F8D78A189A19AA10E94D112A70104
:1016400096010E9488132B013C0169817A818B816C
:101650009C817727882799270E94D112A5019401A0
:101660000E9488139B01AC01C301B2010E94BF110B
:101670000E94A212ABA5BCA511966C93BA816B2FE8
:1016800070E080E090E00E94D112A50194010E94D8
:1016900088132B013C016B897C898D899E890E946E
:1016A000D112A70196010E9488139B01AC01C301CE
:1016B000B2010E94BF110E94A212EBA5FCA5628399
:1016C000FB816F2F70E080E090E00E94D112A501B5
:1016D00094010E9488134B015C016F89788D898D7C
:1016E0009A8D0E94D112A70196010E9488139B0136
:1016F000AC01C501B4010E94BF110E94A212ABA5AA
:10170000BCA56C939D010F5F1F4F2C5F3F4F3CA703
:101710002BA7021513058CF5B801012E000C880BC0
:10172000990B0E94D3129B01AC0169857A858B8548
:101730009C850E94BE116B017C0120E030E0A90174
:101740000E942B1287FD14C02D813E814F81588548
:10175000C701B6010E942B1287FD42CFCD84EBA5B5
:10176000FCA5C182DB8CD282EC8CE0829F01CBCFC6
:10177000F7FAF094F7F8F094E7CFCDA0DEA02C14A0
:101780003D0464F58091D9039091DA03019660914C
:10179000420170E00E948514FC01EE0FFF1FEE0F66
:1017A000FF1FEE5FFE4F408131812281F101EE0F7C
:1017B000FF1FEE0FFF1FEBA0FCA0EE0DFF1D8DA184
:1017C0009EA1880F991F880F991F8E0D9F1D418321
:1017D000328320833496E817F907C9F729853A85BB
:1017E0004B855C856FA178A589A59AA50E94BF113C
:1017F0006B017C016093DB037093DC038093DD035A
:101800009093DE03B101032C000C880B990B0E940E
:10181000D3129B01AC01C701B6010E94831387FD5F
:1018200035C08091D60381110AC021E0221A310807
:101830003092D8032092D70381E08093D603B10180
:10184000032C000C880B990B0E94D3122D813E8132
:101850004F8158850E94BF119B01AC01C701B601A1
:101860000E94831387FD12C08D819E81AF81B88550
:10187000B0588093DB039093DC03A093DD03B09317
:10188000DE031092D60312141304CCF4AC960FB6F8
:10189000F894DEBF0FBECDBFDF91CF911F910F91A6
:1018A000FF90EF90DF90CF90BF90AF909F908F9080
:1018B0007F906F905F904F903F902F900895CDA0B4
:1018C000DEA0D092D803C092D7038091D903909123
:1018D000DA0301966091420170E00E9485149093B2
:1018E000DA038093D903D2CF2F923F924F925F9227
:1018F0006F927F928F929F92AF92BF92CF92DF9220
:10190000EF92FF920F931F93CF93DF93CDB7DEB784
:1019100062970FB6F894DEBF0FBECDBF9A87898756
:101920007C876B876091450170E080E090E00E94C9
:10193000D31220E030E048E452E40E9430126D8778
:101940007E878F87988B6091430170E080E090E004
:101950000E94D1122B013C012090E0033090E10362
:10196000121413040CF0A7C08091E4039091E503D6
:10197000A091E603B091E70389839A83AB83BC838C
:101980008091E2039091E303DC011196BE83AD8365
:1019900080914201E82FF0E0F887EF8329853A85AE
:1019A0003A8B298B00E010E05AC0A3019201C701D5
:1019B000B6010E9430129B01AC0160E070E080E84B
:1019C0009FE30E94BE116B017C018D819E816F811E
:1019D00078850E948514FC01EE0FFF1FEE0FFF1F9C
:1019E000EE5FFE4F80809180A280B380C501B4017C
:1019F0007727882799270E94D112A70196010E9474
:101A000088130E94A212A989BA8911966C93692D34
:101A100070E080E090E00E94D112A70196010E9440
:101A200088130E94A212E989FA8962836A2D70E004
:101A300080E090E00E94D112A70196010E948813D5
:101A40000E94A212A989BA896C939D010F5F1F4F52
:101A50002C5F3F4F3A8B298B02151305C4F5B80153
:101A6000012E000C880B990B0E94D3129B01AC0134
:101A700069817A818B819C810E94BE116B017C01FE
:101A800020E030E0A9010E942B1287FD0FC0A301C6
:101A90009201C701B6010E942B1287FD86CFE9890A
:101AA000FA891182128210829F01D0CFF7FAF09446
:101AB000F7F8F094ECCF6091E4037091E503809126
:101AC000E6039091E70369837A838B839C836B851C
:101AD0007C852616370674F58091E2039091E30326
:101AE00001966091420170E00E948514FC01EE0FA6
:101AF000FF1FEE0FFF1FEE5FFE4F408131812281FD
:101B0000F101EE0FFF1FEE0FFF1F89859A85E80F89
:101B1000F91F8B859C85880F991F880F991FA985B0
:101B2000BA858A0F9B1F4183328320833496E8173E
:101B3000F907C9F729813A814B815C816D857E85E2
:101B40008F8598890E94BF116B017C016093E4032B
:101B50007093E5038093E6039093E703B101032CB0
:101B6000000C880B990B0E94D3129B01AC01C7019A
:101B7000B6010E94831387FD32C08091DF0381117B
:101B80000AC0B1E02B1A31083092E1032092E00341
:101B900081E08093DF03B101032C000C880B990BCB
:101BA0000E94D312A30192010E94BF119B01AC01BC
:101BB000C701B6010E94831387FD11C077FA7094A4
:101BC00077F870944092E4035092E5036092E60344
:101BD0007092E7031092DF0312141304CCF46296A0
:101BE0000FB6F894DEBF0FBECDBFDF91CF911F912E
:101BF0000F91FF90EF90DF90CF90BF90AF909F90AC
:101C00008F907F906F905F904F903F902F900895AE
:101C1000EB85FC85F093E103E093E0038091E20320
:101C20009091E30301966091420170E00E94851457
:101C30009093E3038093E203D2CF2F923F924F928F
:101C40005F926F927F928F929F92AF92BF92CF924C
:101C5000DF92EF92FF920F931F93CF93DF93CDB755
:101C6000DEB7A6970FB6F894DEBF0FBECDBF8C01CE
:101C70001B016091450170E080E090E00E94D3126A
:101C800020E030E04AE754E40E94301269A37AA3CE
:101C90008BA39CA360914301209144012983409030
:101CA000E8035090E9036090EA037090EB0312148C
:101CB00013040CF001C1A62FB0E0BE8BAD8BBD01AB
:101CC000BB0F880B990B0E94D3124B015C01C09093
:101CD0000201D0900301E0900401F0900501C701DA
:101CE000B6017727882799270E94D1126D837E83BA
:101CF0008F8398876D2D70E080E090E00E94D11274
:101D000069877A878B879C876E2D70E080E090E0F2
:101D10000E94D1126D877E878F87988BF981EF2F74
:101D2000F0E0F88FEF8B098B1A8B00E010E08D89C3
:101D30009E898E0F9F1F9C01990F440B550B298F75
:101D40003A8F4B8F5C8F9981892F90E0A0E0B0E0B3
:101D50008D8F9E8FAF8FB8A3A989BA89BEA3ADA37B
:101D600072C0B801620D731D072E000C880B990B11
:101D70000E94D312A30192010E94BE1169837A834B
:101D80008B839C83A50194010E942B1287FD77C051
:101D9000698D7A8D8B8D9C8D0E94D312698B7A8B85
:101DA0008B8B9C8B9B01AC01C701B6010E942B124F
:101DB00087FF71C0A701960169897A898B899C89FF
:101DC0000E94BE116B017C016D8D7E8D8F8D98A15F
:101DD0000E94D1129B01AC01C701B6010E943012D2
:101DE0006B017C012D813E814F815885C701B60171
:101DF0000E9488130E94A212EDA1FEA16183298591
:101E00003A854B855C85C701B6010E9488130E9404
:101E1000A212ADA1BEA112966C932D853E854F8571
:101E20005889C701B6010E9488130E94A212EDA131
:101E3000FEA160830F5F1F4F3496FEA3EDA3201613
:101E4000310609F441C0B801012E000C880B990B32
:101E50000E94D312A30192010E94BE116B017C016A
:101E600020E030E0A9010E942B1287FD0FC0A501E0
:101E70009401C701B6010E942B1287FF72CFC12CBB
:101E8000D12C80E8E82E8FE3F82EACCFF7FAF0944F
:101E9000F7F8F094ECCF29893A894B895C896981FC
:101EA0007A818B819C810E942B1287FF5AC02981E5
:101EB0003A814B815C8180CF462F50E05E8B4D8B09
:101EC000822F90E0988F8F8BA301920169A17AA154
:101ED0008BA19CA10E94BF116B017C016D897E8941
:101EE000620D731D2F89388D620F731F072E000C32
:101EF000880B990B0E94D3129B01AC01C701B6015C
:101F00000E94831387FD31C06D897E894F89588D6A
:101F1000640F751F072E000C880B990B0E94D312BB
:101F20006093E8037093E9038093EA039093EB03D3
:101F3000A6960FB6F894DEBF0FBECDBFDF91CF914E
:101F40001F910F91FF90EF90DF90CF90BF90AF90D7
:101F50009F908F907F906F905F904F903F902F90C9
:101F60000895C12CD12C76013DCFC092E803D092C8
:101F7000E903E092EA03F092EB03DACF2F923F926B
:101F80004F925F926F927F928F929F92AF92BF9289
:101F9000CF92DF92EF92FF921F93CF93DF93CDB753
:101FA000DEB7A8970FB6F894DEBF0FBECDBF1C01F9
:101FB0007A8369836091450170E080E090E00E943F
:101FC000D31220E030E04AEF53E40E9430126BA3BA
:101FD0007CA38DA39EA36091430170E080E090E01C
:101FE0000E94D1129B01AC0160E070E080E89FE3A9
:101FF0000E9430126F83788789879A8729813A8176
:102000008091D2039091D303A091D403B091D503D2
:102010008B839C83AD83BE83121613060CF0E1C044
:102020006091020170E080E090E00E94D3126B8723
:102030007C878D879E876091060170E080E090E04C
:102040000E94D3126F87788B898B9A8B60910301E2
:1020500070E080E090E00E94D3126B8B7C8B8D8BC4
:102060009E8B6091070170E080E090E00E94D312A7
:102070006F8B788F898F9A8F6091040170E080E078
:1020800090E00E94D3126B8F7C8F8D8F9E8F60911A
:10209000080170E080E090E00E94D3126F8F78A377
:1020A00089A39AA360E070E010E018A61FA2072E93
:1020B000000C880B990B0E94D3122F81388549851B
:1020C0005A850E9488132B813C814D815E810E943C
:1020D000BF110E94F51320E030E040E85FE30E946A
:1020E000BF1120E030E040E05FE30E9488136B0105
:1020F0007C019B01AC0160E070E080E89FE30E94FE
:10210000BE114B015C01AFA1B8A5AA0FBB1FAA0F5E
:10211000BB1FA20DB31DB8A7AFA32B853C854D8572
:102120005E85C701B6010E9488132B013C012F85F3
:10213000388949895A89C501B4010E9488139B01D5
:10214000AC01C301B2010E94BF110E94A212EFA113
:10215000F8A561832B893C894D895E89C701B60149
:102160000E9488132B013C012F89388D498D5A8D8F
:10217000C501B4010E9488139B01AC01C301B201E7
:102180000E94BF110E94A212AFA1B8A512966C9333
:102190002B8D3C8D4D8D5E8DC701B6010E9488133D
:1021A0006B017C012F8D38A149A15AA1C501B40151
:1021B0000E9488139B01AC01C701B6010E94BF11A8
:1021C0000E94A212EFA1F8A560831F5F212F30E0CB
:1021D00038A72FA3B90189819A81281739070CF4F0
:1021E00066CF2B813C814D815E816BA17CA18DA14D
:1021F0009EA10E94BF116B017C012BED3FE049ECD9
:1022000050E40E948313181644F52BED3FE049EC8F
:1022100050E4C701B6010E94BE116093D2037093CF
:10222000D3038093D4039093D503A8960FB6F89464
:10223000DEBF0FBECDBFDF91CF911F91FF90EF901A
:10224000DF90CF90BF90AF909F908F907F906F90D6
:102250005F904F903F902F900895C092D203D092FC
:10226000D303E092D403F092D503DFCF8093010132
:102270000895853618F480934501089584E6809387
:1022800045010895853618F480934401089584E645
:10229000809344010895809343010895E0910101E2
:1022A000F0E0EE0FFF1FEA5BFE4F0190F081E02DA2
:1022B000099490914201891790F4E82FF0E0EE0F15
:1022C000FF1FEE0FFF1FEE5FFE4F862F90E0A0E096
:1022D000B0E0942BA22B80839183A283B3830895D3
:1022E000813110F4809342010895539A0895FF922A
:1022F0000F931F93CF93DF93DC01EB011C161D0698
:1023000054F135C04081518162817381022E04C035
:1023100076956795579547950A94D2F740FF09C07F
:102320005B9A812F8A95F1F75B98802F8A95F1F758
:1023300008C05B9A802F8A95F1F75B98912F9A9548
:10234000F1F721503109F0F6F3948F2D90E08C17BE
:102350009D0724F00CC0F12C03E016E0FD0184E0A1
:10236000F89EE00DF11D112427E130E0CBCF1BB822
:10237000DF91CF911F910F91FF9008955058BB2787
:10238000AA270E94D6110C9449130E943B1338F0DF
:102390000E94421320F039F49F3F19F426F40C9464
:1023A00038130EF4E095E7FB0C943213E92F0E94EA
:1023B0005A1358F3BA17620773078407950720F07A
:1023C00079F4A6F50C947C130EF4E0950B2EBA2F3D
:1023D000A02D0B01B90190010C01CA01A00111242B
:1023E000FF27591B99F0593F50F4503E68F11A16D7
:1023F000F040A22F232F342F4427585FF3CF469568
:1024000037952795A795F0405395C9F77EF41F1689
:10241000BA0B620B730B840BBAF09150A1F0FF0F53
:10242000BB1F661F771F881FC2F70EC0BA0F621F3F
:10243000731F841F48F4879577956795B795F7952F
:102440009E3F08F0B0CF9395880F08F09927EE0FC4
:102450009795879508950E940E1308F481E00895DA
:102460000E9444120C9449130E94421358F00E9497
:102470003B1340F029F45F3F29F00C9432135111C3
:102480000C947D130C9438130E945A1368F399230B
:10249000B1F3552391F3951B550BBB27AA27621760
:1024A0007307840738F09F5F5F4F220F331F441F6D
:1024B000AA1FA9F335D00E2E3AF0E0E832D09150A1
:1024C0005040E695001CCAF72BD0FE2F29D0660F8E
:1024D000771F881FBB1F261737074807AB07B0E8D1
:1024E00009F0BB0B802DBF01FF2793585F4F3AF0D7
:1024F0009E3F510578F00C9432130C947D135F3F8E
:10250000E4F3983ED4F3869577956795B795F7955C
:102510009F5FC9F7880F911D9695879597F9089544
:10252000E1E0660F771F881FBB1F621773078407E0
:10253000BA0720F0621B730B840BBA0BEE1F88F7EF
:10254000E09508950E94621388F09F5798F0B92F84
:102550009927B751B0F0E1F0660F771F881F991FD8
:102560001AF0BA95C9F714C0B13091F00E947C13EB
:10257000B1E008950C947C13672F782F8827B85FFB
:1025800039F0B93FCCF3869577956795B395D9F730
:102590003EF490958095709561957F4F8F4F9F4F3A
:1025A0000895E89409C097FB3EF490958095709546
:1025B00061957F4F8F4F9F4F9923A9F0F92F96E98F
:1025C000BB279395F695879577956795B795F11104
:1025D000F8CFFAF4BB0F11F460FF1BC06F5F7F4FA1
:1025E0008F4F9F4F16C0882311F096E911C07723B3
:1025F00021F09EE8872F762F05C0662371F096E8BC
:10260000862F70E060E02AF09A95660F771F881F8A
:10261000DAF7880F9695879597F90895990F00082E
:10262000550FAA0BE0E8FEEF16161706E807F907A4
:10263000C0F012161306E407F50798F0621B730B3F
:10264000840B950B39F40A2661F0232B242B252BC0
:1026500021F408950A2609F4A140A6958FEF811D63
:10266000811D089597F99F6780E870E060E0089504
:102670009FEF80EC089500240A941616170618069A
:102680000906089500240A94121613061406050676
:102690000895092E0394000C11F4882352F0BB0F07
:1026A00040F4BF2B11F460FF04C06F5F7F4F8F4F6A
:1026B0009F4F089557FD9058440F551F59F05F3FA5
:1026C00071F04795880F97FB991F61F09F3F79F054
:1026D00087950895121613061406551FF2CF4695D6
:1026E000F1DF08C0161617061806991FF1CF869558
:1026F0007105610508940895E894BB27662777273C
:10270000CB0197F908950E940E1308F48FEF0895F6
:102710000E949B130C9449130E943B1338F00E94B3
:10272000421320F0952311F00C9432130C943813BB
:1027300011240C947D130E945A1370F3959FC1F3DA
:10274000950F50E0551F629FF001729FBB27F00D5F
:10275000B11D639FAA27F00DB11DAA1F649F6627B4
:10276000B00DA11D661F829F2227B00DA11D621F03
:10277000739FB00DA11D621F839FA00D611D221FBD
:10278000749F3327A00D611D231F849F600D211DA1
:10279000822F762F6A2F11249F5750409AF0F1F024
:1027A00088234AF0EE0FFF1FBB1F661F771F881F8D
:1027B00091505040A9F79E3F510580F00C94321380
:1027C0000C947D135F3FE4F3983ED4F386957795A0
:1027D0006795B795F795E7959F5FC1F7FE2B880F33
:1027E000911D9695879597F908959F930E94FF13E1
:1027F0000F9007FCEE5F0C9428140C9438130E9481
:102800006213D8F3E894E0E0BB279F57F0F02AED7D
:102810003FE049EC06C0EE0FBB0F661F771F881F15
:1028200028F0B23A62077307840728F0B25A620BA5
:10283000730B840BE3959A9572F7803830F49A9570
:10284000BB0F661F771F881FD2F790480C943E1469
:10285000EF93E0FF07C0A2EA2AED3FE049EC5FEB0F
:102860000E94D6110E9449130F90039401FC9058C6
:10287000E6E7F0E00C944A149F3F31F0915020F4C9
:10288000879577956795B795880F911D969587954C
:1028900097F908959F938F937F936F93FF93EF938F
:1028A0009B01AC010E948813EF91FF910E945E147E
:1028B0002F913F914F915F910C948813DF93CF93A9
:1028C0001F930F93FF92EF92DF927B018C0168942C
:1028D00006C0DA2EEF010E949B13FE01E894A59139
:1028E0002591359145915591A6F3EF010E94D6119E
:1028F000FE019701A801DA9469F7DF90EF90FF904D
:102900000F911F91CF91DF91089597FB072E16F439
:10291000009407D077FD09D00E94BE1407FC05D0B3
:102920003EF4909581959F4F0895709561957F4FE6
:102930000895052E97FB1EF400940E94B01457FDD5
:1029400007D00E94D21407FC03D04EF40C94B014AC
:1029500050954095309521953F4F4F4F5F4F0895CB
:1029600090958095709561957F4F8F4F9F4F0895FB
:10297000EE0FFF1F0590F491E02D0994AA1BBB1BDD
:1029800051E107C0AA1FBB1FA617B70710F0A61B6F
:10299000B70B881F991F5A95A9F780959095BC0190
:1029A000CD010895A1E21A2EAA1BBB1BFD010DC08B
:1029B000AA1FBB1FEE1FFF1FA217B307E407F507EF
:1029C00020F0A21BB30BE40BF50B661F771F881FCB
:1029D000991F1A9469F760957095809590959B0161
:1029E000AC01BD01CF010895F999FECF92BD81BD23
:1029F000F89A992780B50895262FF999FECF1FBA26
:102A000092BD81BD20BD0FB6F894FA9AF99A0FBE17
:082A100001960895F894FFCF30
:102A18007805FF00000000FF00000000FF00FFFF36
:102A2800000000FFFF00FF00FF00FFFFFF000000A5
:102A3800000000000000000000000000000000008E
:102A4800000000000000000000000000000000007E
:102A5800000007020364A302A6052C0818093E0A11
:082A6800BE0F560A740C1D0E8E
:00000001FF
